{"abi":[{"type":"constructor","inputs":[{"name":"_manager","type":"address","internalType":"contract IPoolManager"}],"stateMutability":"nonpayable"},{"type":"function","name":"excludeArtifacts","inputs":[],"outputs":[{"name":"excludedArtifacts_","type":"string[]","internalType":"string[]"}],"stateMutability":"view"},{"type":"function","name":"excludeContracts","inputs":[],"outputs":[{"name":"excludedContracts_","type":"address[]","internalType":"address[]"}],"stateMutability":"view"},{"type":"function","name":"excludeSenders","inputs":[],"outputs":[{"name":"excludedSenders_","type":"address[]","internalType":"address[]"}],"stateMutability":"view"},{"type":"function","name":"failed","inputs":[],"outputs":[{"name":"","type":"bool","internalType":"bool"}],"stateMutability":"view"},{"type":"function","name":"lockAcquired","inputs":[{"name":"rawData","type":"bytes","internalType":"bytes"}],"outputs":[{"name":"","type":"bytes","internalType":"bytes"}],"stateMutability":"nonpayable"},{"type":"function","name":"manager","inputs":[],"outputs":[{"name":"","type":"address","internalType":"contract IPoolManager"}],"stateMutability":"view"},{"type":"function","name":"take","inputs":[{"name":"key","type":"tuple","internalType":"struct PoolKey","components":[{"name":"currency0","type":"address","internalType":"Currency"},{"name":"currency1","type":"address","internalType":"Currency"},{"name":"fee","type":"uint24","internalType":"uint24"},{"name":"tickSpacing","type":"int24","internalType":"int24"},{"name":"hooks","type":"address","internalType":"contract IHooks"}]},{"name":"amount0","type":"uint256","internalType":"uint256"},{"name":"amount1","type":"uint256","internalType":"uint256"}],"outputs":[],"stateMutability":"payable"},{"type":"function","name":"targetArtifactSelectors","inputs":[],"outputs":[{"name":"targetedArtifactSelectors_","type":"tuple[]","internalType":"struct StdInvariant.FuzzSelector[]","components":[{"name":"addr","type":"address","internalType":"address"},{"name":"selectors","type":"bytes4[]","internalType":"bytes4[]"}]}],"stateMutability":"view"},{"type":"function","name":"targetArtifacts","inputs":[],"outputs":[{"name":"targetedArtifacts_","type":"string[]","internalType":"string[]"}],"stateMutability":"view"},{"type":"function","name":"targetContracts","inputs":[],"outputs":[{"name":"targetedContracts_","type":"address[]","internalType":"address[]"}],"stateMutability":"view"},{"type":"function","name":"targetInterfaces","inputs":[],"outputs":[{"name":"targetedInterfaces_","type":"tuple[]","internalType":"struct StdInvariant.FuzzInterface[]","components":[{"name":"addr","type":"address","internalType":"address"},{"name":"artifacts","type":"string[]","internalType":"string[]"}]}],"stateMutability":"view"},{"type":"function","name":"targetSelectors","inputs":[],"outputs":[{"name":"targetedSelectors_","type":"tuple[]","internalType":"struct StdInvariant.FuzzSelector[]","components":[{"name":"addr","type":"address","internalType":"address"},{"name":"selectors","type":"bytes4[]","internalType":"bytes4[]"}]}],"stateMutability":"view"},{"type":"function","name":"targetSenders","inputs":[],"outputs":[{"name":"targetedSenders_","type":"address[]","internalType":"address[]"}],"stateMutability":"view"},{"type":"event","name":"log","inputs":[{"name":"","type":"string","indexed":false,"internalType":"string"}],"anonymous":false},{"type":"event","name":"log_address","inputs":[{"name":"","type":"address","indexed":false,"internalType":"address"}],"anonymous":false},{"type":"event","name":"log_array","inputs":[{"name":"val","type":"uint256[]","indexed":false,"internalType":"uint256[]"}],"anonymous":false},{"type":"event","name":"log_array","inputs":[{"name":"val","type":"int256[]","indexed":false,"internalType":"int256[]"}],"anonymous":false},{"type":"event","name":"log_array","inputs":[{"name":"val","type":"address[]","indexed":false,"internalType":"address[]"}],"anonymous":false},{"type":"event","name":"log_bytes","inputs":[{"name":"","type":"bytes","indexed":false,"internalType":"bytes"}],"anonymous":false},{"type":"event","name":"log_bytes32","inputs":[{"name":"","type":"bytes32","indexed":false,"internalType":"bytes32"}],"anonymous":false},{"type":"event","name":"log_int","inputs":[{"name":"","type":"int256","indexed":false,"internalType":"int256"}],"anonymous":false},{"type":"event","name":"log_named_address","inputs":[{"name":"key","type":"string","indexed":false,"internalType":"string"},{"name":"val","type":"address","indexed":false,"internalType":"address"}],"anonymous":false},{"type":"event","name":"log_named_array","inputs":[{"name":"key","type":"string","indexed":false,"internalType":"string"},{"name":"val","type":"uint256[]","indexed":false,"internalType":"uint256[]"}],"anonymous":false},{"type":"event","name":"log_named_array","inputs":[{"name":"key","type":"string","indexed":false,"internalType":"string"},{"name":"val","type":"int256[]","indexed":false,"internalType":"int256[]"}],"anonymous":false},{"type":"event","name":"log_named_array","inputs":[{"name":"key","type":"string","indexed":false,"internalType":"string"},{"name":"val","type":"address[]","indexed":false,"internalType":"address[]"}],"anonymous":false},{"type":"event","name":"log_named_bytes","inputs":[{"name":"key","type":"string","indexed":false,"internalType":"string"},{"name":"val","type":"bytes","indexed":false,"internalType":"bytes"}],"anonymous":false},{"type":"event","name":"log_named_bytes32","inputs":[{"name":"key","type":"string","indexed":false,"internalType":"string"},{"name":"val","type":"bytes32","indexed":false,"internalType":"bytes32"}],"anonymous":false},{"type":"event","name":"log_named_decimal_int","inputs":[{"name":"key","type":"string","indexed":false,"internalType":"string"},{"name":"val","type":"int256","indexed":false,"internalType":"int256"},{"name":"decimals","type":"uint256","indexed":false,"internalType":"uint256"}],"anonymous":false},{"type":"event","name":"log_named_decimal_uint","inputs":[{"name":"key","type":"string","indexed":false,"internalType":"string"},{"name":"val","type":"uint256","indexed":false,"internalType":"uint256"},{"name":"decimals","type":"uint256","indexed":false,"internalType":"uint256"}],"anonymous":false},{"type":"event","name":"log_named_int","inputs":[{"name":"key","type":"string","indexed":false,"internalType":"string"},{"name":"val","type":"int256","indexed":false,"internalType":"int256"}],"anonymous":false},{"type":"event","name":"log_named_string","inputs":[{"name":"key","type":"string","indexed":false,"internalType":"string"},{"name":"val","type":"string","indexed":false,"internalType":"string"}],"anonymous":false},{"type":"event","name":"log_named_uint","inputs":[{"name":"key","type":"string","indexed":false,"internalType":"string"},{"name":"val","type":"uint256","indexed":false,"internalType":"uint256"}],"anonymous":false},{"type":"event","name":"log_string","inputs":[{"name":"","type":"string","indexed":false,"internalType":"string"}],"anonymous":false},{"type":"event","name":"log_uint","inputs":[{"name":"","type":"uint256","indexed":false,"internalType":"uint256"}],"anonymous":false},{"type":"event","name":"logs","inputs":[{"name":"","type":"bytes","indexed":false,"internalType":"bytes"}],"anonymous":false},{"type":"error","name":"SafeCastOverflow","inputs":[]}],"bytecode":{"object":"0x60a0604052600c805460ff1916600117905534801561001c575f80fd5b506040516119f93803806119f983398101604081905261003b9161004c565b6001600160a01b0316608052610079565b5f6020828403121561005c575f80fd5b81516001600160a01b0381168114610072575f80fd5b9392505050565b60805161191b6100de5f395f818161015c015281816102e50152818161087701528181610bdb01528181610c2101528181610cb601528181610e0d01528181610e6b01528181610f8b015281816110450152818161110b0152611177015261191b5ff3fe6080604052600436106100bf575f3560e01c806366d9a9a01161007c578063ab6291fe11610057578063ab6291fe146101ec578063b5508aa914610218578063ba414fa61461022c578063e20c9f7114610250575f80fd5b806366d9a9a01461019657806385226c81146101b7578063916a17c6146101d8575f80fd5b8063055419b6146100c35780631ed7831c146100d85780632ade3880146101025780633e5e3c23146101235780633f7286f414610137578063481c6a751461014b575b5f80fd5b6100d66100d13660046113f4565b610264565b005b3480156100e3575f80fd5b506100ec610385565b6040516100f99190611425565b60405180910390f35b34801561010d575f80fd5b506101166103e5565b6040516100f991906114be565b34801561012e575f80fd5b506100ec610521565b348015610142575f80fd5b506100ec61057f565b348015610156575f80fd5b5061017e7f000000000000000000000000000000000000000000000000000000000000000081565b6040516001600160a01b0390911681526020016100f9565b3480156101a1575f80fd5b506101aa6105dd565b6040516100f9919061157b565b3480156101c2575f80fd5b506101cb6106be565b6040516100f9919061162c565b3480156101e3575f80fd5b506101aa610789565b3480156101f7575f80fd5b5061020b61020636600461168e565b61086a565b6040516100f991906116fa565b348015610223575f80fd5b506101cb61091a565b348015610237575f80fd5b506102406109e5565b60405190151581526020016100f9565b34801561025b575f80fd5b506100ec610a85565b60408051608080820183523380835260208084018881528486018881526060958601888152875180850195909552915180516001600160a01b03908116868a0152938101518416858801529687015162ffffff16848601529486015160020b60a08401529490920151821660c0820152915160e083015291516101008201527f000000000000000000000000000000000000000000000000000000000000000090911690638154831990610120016040516020818303038152906040526040518263ffffffff1660e01b815260040161033d91906116fa565b5f604051808303815f875af1158015610358573d5f803e3d5ffd5b505050506040513d5f823e601f3d908101601f1916820160405261037f9190810190611713565b50505050565b606060168054806020026020016040519081016040528092919081815260200182805480156103db57602002820191905f5260205f20905b81546001600160a01b031681526001909101906020018083116103bd575b5050505050905090565b6060601d805480602002602001604051908101604052809291908181526020015f905b82821015610518575f84815260208082206040805180820182526002870290920180546001600160a01b03168352600181018054835181870281018701909452808452939591948681019491929084015b82821015610501578382905f5260205f20018054610476906117bb565b80601f01602080910402602001604051908101604052809291908181526020018280546104a2906117bb565b80156104ed5780601f106104c4576101008083540402835291602001916104ed565b820191905f5260205f20905b8154815290600101906020018083116104d057829003601f168201915b505050505081526020019060010190610459565b505050508152505081526020019060010190610408565b50505050905090565b606060188054806020026020016040519081016040528092919081815260200182805480156103db57602002820191905f5260205f209081546001600160a01b031681526001909101906020018083116103bd575050505050905090565b606060178054806020026020016040519081016040528092919081815260200182805480156103db57602002820191905f5260205f209081546001600160a01b031681526001909101906020018083116103bd575050505050905090565b6060601b805480602002602001604051908101604052809291908181526020015f905b82821015610518575f8481526020908190206040805180820182526002860290920180546001600160a01b031683526001810180548351818702810187019094528084529394919385830193928301828280156106a657602002820191905f5260205f20905f905b82829054906101000a900460e01b6001600160e01b031916815260200190600401906020826003010492830192600103820291508084116106685790505b50505050508152505081526020019060010190610600565b6060601a805480602002602001604051908101604052809291908181526020015f905b82821015610518578382905f5260205f200180546106fe906117bb565b80601f016020809104026020016040519081016040528092919081815260200182805461072a906117bb565b80156107755780601f1061074c57610100808354040283529160200191610775565b820191905f5260205f20905b81548152906001019060200180831161075857829003601f168201915b5050505050815260200190600101906106e1565b6060601c805480602002602001604051908101604052809291908181526020015f905b82821015610518575f8481526020908190206040805180820182526002860290920180546001600160a01b0316835260018101805483518187028101870190945280845293949193858301939283018282801561085257602002820191905f5260205f20905f905b82829054906101000a900460e01b6001600160e01b031916815260200190600401906020826003010492830192600103820291508084116108145790505b505050505081525050815260200190600101906107ac565b6060336001600160a01b037f000000000000000000000000000000000000000000000000000000000000000016146108a0575f80fd5b5f6108ad838501856117f3565b6040810151909150156108d257602081015151815160408301516108d2929190610ae3565b6060810151156108f6576108f6816020015160200151825f01518360600151610ae3565b604080515f6020820152016040516020818303038152906040529150505b92915050565b60606019805480602002602001604051908101604052809291908181526020015f905b82821015610518578382905f5260205f2001805461095a906117bb565b80601f0160208091040260200160405190810160405280929190818152602001828054610986906117bb565b80156109d15780601f106109a8576101008083540402835291602001916109d1565b820191905f5260205f20905b8154815290600101906020018083116109b457829003601f168201915b50505050508152602001906001019061093d565b6008545f9060ff16156109fc575060085460ff1690565b604051630667f9d760e41b8152737109709ecfa91a80626ff3989d68f67f5b1dd12d600482018190526519985a5b195960d21b60248301525f9163667f9d7090604401602060405180830381865afa158015610a5a573d5f803e3d5ffd5b505050506040513d601f19601f82011682018060405250810190610a7e9190611864565b1415905090565b606060158054806020026020016040519081016040528092919081815260200182805480156103db57602002820191905f5260205f209081546001600160a01b031681526001909101906020018083116103bd575050505050905090565b5f805f80610af2878730610bb3565b9350935093509350610b04815f610d2c565b610b198787610b1288610d97565b6001610dc4565b5f805f80610b288b8b30610bb3565b9350935093509350610b4e81610b3d8b610d97565b610b469061188f565b600f0b610d2c565b610b61610b5b89866118b3565b8a610f21565b610b6e610b5b84896118b3565b610b7b610b5b83886118b3565b610b88610b5b83886118b3565b610ba68b8b610b968c610d97565b610b9f9061188f565b6001610f60565b5050505050505050505050565b5f808080610bca6001600160a01b03881687611209565b9350610bff6001600160a01b0388167f0000000000000000000000000000000000000000000000000000000000000000611209565b6040516393c85a2160e01b81526001600160a01b0389811660048301529194507f0000000000000000000000000000000000000000000000000000000000000000909116906393c85a2190602401602060405180830381865afa158015610c68573d5f803e3d5ffd5b505050506040513d601f19601f82011682018060405250810190610c8c9190611864565b60405163a54b283160e01b81526001600160a01b03878116600483015289811660248301529193507f00000000000000000000000000000000000000000000000000000000000000009091169063a54b283190604401602060405180830381865afa158015610cfd573d5f803e3d5ffd5b505050506040513d601f19601f82011682018060405250810190610d219190611864565b905093509350935093565b60405163fe74f05b60e01b81526004810183905260248101829052737109709ecfa91a80626ff3989d68f67f5b1dd12d9063fe74f05b906044015b5f6040518083038186803b158015610d7d575f80fd5b505afa158015610d8f573d5f803e3d5ffd5b505050505050565b5f60016001607f1b03821115610dc0576040516393dafdf160e01b815260040160405180910390fd5b5090565b610dd182600f0b5f611298565b8015610e6957604051630b0d9c0960e01b81526001600160a01b03858116600483015284811660248301526001600160801b03841660448301527f00000000000000000000000000000000000000000000000000000000000000001690630b0d9c09906064015f604051808303815f87803b158015610e4e575f80fd5b505af1158015610e60573d5f803e3d5ffd5b5050505061037f565b7f00000000000000000000000000000000000000000000000000000000000000006001600160a01b031663156e29f684610eb2876001600160a01b03166001600160a01b031690565b6040516001600160e01b031960e085901b1681526001600160a01b03909216600483015260248201526001600160801b03851660448201526064015b5f604051808303815f87803b158015610f05575f80fd5b505af1158015610f17573d5f803e3d5ffd5b5050505050505050565b60405163260a5b1560e21b81526004810183905260248101829052737109709ecfa91a80626ff3989d68f67f5b1dd12d906398296c5490604401610d67565b610f6d82600f0b5f6112d7565b8015611175576001600160a01b038416611033576001600160a01b037f000000000000000000000000000000000000000000000000000000000000000016636a256b29610fb98461188f565b6040516001600160e01b031960e084901b1681526001600160a01b03881660048201526001600160801b03919091169060240160206040518083038185885af1158015611008573d5f803e3d5ffd5b50505050506040513d601f19601f8201168201806040525081019061102d9190611864565b5061037f565b6001600160a01b0384166323b872dd847f000000000000000000000000000000000000000000000000000000000000000061106d8661188f565b6040516001600160e01b031960e086901b1681526001600160a01b0393841660048201529290911660248301526001600160801b031660448201526064016020604051808303815f875af11580156110c7573d5f803e3d5ffd5b505050506040513d601f19601f820116820180604052508101906110eb91906118c6565b50604051636a256b2960e01b81526001600160a01b0385811660048301527f00000000000000000000000000000000000000000000000000000000000000001690636a256b29906024016020604051808303815f875af1158015611151573d5f803e3d5ffd5b505050506040513d601f19601f8201168201806040525081019061102d9190611864565b7f00000000000000000000000000000000000000000000000000000000000000006001600160a01b031663f5298aca846111be876001600160a01b03166001600160a01b031690565b6111c78661188f565b6040516001600160e01b031960e086901b1681526001600160a01b03909316600484015260248301919091526001600160801b03166044820152606401610eee565b5f6001600160a01b03831661122957506001600160a01b03811631610914565b6040516370a0823160e01b81526001600160a01b0383811660048301528416906370a0823190602401602060405180830381865afa15801561126d573d5f803e3d5ffd5b505050506040513d601f19601f820116820180604052508101906112919190611864565b9050610914565b604051635a362d4560e01b81526004810183905260248101829052737109709ecfa91a80626ff3989d68f67f5b1dd12d90635a362d4590604401610d67565b604051627d228160e71b81526004810183905260248101829052737109709ecfa91a80626ff3989d68f67f5b1dd12d90633e91408090604401610d67565b634e487b7160e01b5f52604160045260245ffd5b6001600160a01b038116811461133d575f80fd5b50565b803561134b81611329565b919050565b5f60a08284031215611360575f80fd5b60405160a0810181811067ffffffffffffffff8211171561138357611383611315565b604052905080823561139481611329565b815260208301356113a481611329565b6020820152604083013562ffffff811681146113be575f80fd5b60408201526060830135600281900b81146113d7575f80fd5b60608201526113e860808401611340565b60808201525092915050565b5f805f60e08486031215611406575f80fd5b6114108585611350565b9560a0850135955060c0909401359392505050565b602080825282518282018190525f9190848201906040850190845b818110156114655783516001600160a01b031683529284019291840191600101611440565b50909695505050505050565b5f5b8381101561148b578181015183820152602001611473565b50505f910152565b5f81518084526114aa816020860160208601611471565b601f01601f19169290920160200192915050565b602080825282518282018190525f919060409081850190600581811b87018401888601875b8481101561156c57603f198a8403018652815180516001600160a01b03168452880151888401889052805188850181905290890190606081871b8601810191908601905f5b8181101561155657605f19888503018352611544848651611493565b948d01949350918c0191600101611528565b50505096890196935050908701906001016114e3565b50909998505050505050505050565b5f60208083018184528085518083526040925060408601915060408160051b8701018488015f5b8381101561161e57888303603f19018552815180516001600160a01b031684528701518784018790528051878501819052908801905f9060608601905b808310156116095783516001600160e01b0319168252928a019260019290920191908a01906115df565b509689019694505050908601906001016115a2565b509098975050505050505050565b5f60208083016020845280855180835260408601915060408160051b8701019250602087015f5b8281101561168157603f1988860301845261166f858351611493565b94509285019290850190600101611653565b5092979650505050505050565b5f806020838503121561169f575f80fd5b823567ffffffffffffffff808211156116b6575f80fd5b818501915085601f8301126116c9575f80fd5b8135818111156116d7575f80fd5b8660208285010111156116e8575f80fd5b60209290920196919550909350505050565b602081525f61170c6020830184611493565b9392505050565b5f60208284031215611723575f80fd5b815167ffffffffffffffff8082111561173a575f80fd5b818401915084601f83011261174d575f80fd5b81518181111561175f5761175f611315565b604051601f8201601f19908116603f0116810190838211818310171561178757611787611315565b8160405282815287602084870101111561179f575f80fd5b6117b0836020830160208801611471565b979650505050505050565b600181811c908216806117cf57607f821691505b6020821081036117ed57634e487b7160e01b5f52602260045260245ffd5b50919050565b5f6101008284031215611804575f80fd5b6040516080810181811067ffffffffffffffff8211171561182757611827611315565b604052823561183581611329565b81526118448460208501611350565b602082015260c0830135604082015260e090920135606083015250919050565b5f60208284031215611874575f80fd5b5051919050565b634e487b7160e01b5f52601160045260245ffd5b5f81600f0b60016001607f1b031981036118ab576118ab61187b565b5f0392915050565b818103818111156109145761091461187b565b5f602082840312156118d6575f80fd5b8151801515811461170c575f80fdfea2646970667358221220795683a1e8901fcef7b48c36e6115222ddeef722c71090f4244dfd90f23c1ec564736f6c63430008180033","linkReferences":{}},"methodIdentifiers":{"excludeArtifacts()":"b5508aa9","excludeContracts()":"e20c9f71","excludeSenders()":"1ed7831c","failed()":"ba414fa6","lockAcquired(bytes)":"ab6291fe","manager()":"481c6a75","take((address,address,uint24,int24,address),uint256,uint256)":"055419b6","targetArtifactSelectors()":"66d9a9a0","targetArtifacts()":"85226c81","targetContracts()":"3f7286f4","targetInterfaces()":"2ade3880","targetSelectors()":"916a17c6","targetSenders()":"3e5e3c23"},"id":79}