{"abi":[{"type":"constructor","inputs":[{"name":"_manager","type":"address","internalType":"contract IPoolManager"}],"stateMutability":"nonpayable"},{"type":"function","name":"excludeArtifacts","inputs":[],"outputs":[{"name":"excludedArtifacts_","type":"string[]","internalType":"string[]"}],"stateMutability":"view"},{"type":"function","name":"excludeContracts","inputs":[],"outputs":[{"name":"excludedContracts_","type":"address[]","internalType":"address[]"}],"stateMutability":"view"},{"type":"function","name":"excludeSenders","inputs":[],"outputs":[{"name":"excludedSenders_","type":"address[]","internalType":"address[]"}],"stateMutability":"view"},{"type":"function","name":"failed","inputs":[],"outputs":[{"name":"","type":"bool","internalType":"bool"}],"stateMutability":"view"},{"type":"function","name":"lockAcquired","inputs":[{"name":"rawData","type":"bytes","internalType":"bytes"}],"outputs":[{"name":"","type":"bytes","internalType":"bytes"}],"stateMutability":"nonpayable"},{"type":"function","name":"manager","inputs":[],"outputs":[{"name":"","type":"address","internalType":"contract IPoolManager"}],"stateMutability":"view"},{"type":"function","name":"swap","inputs":[{"name":"key","type":"tuple","internalType":"struct PoolKey","components":[{"name":"currency0","type":"address","internalType":"Currency"},{"name":"currency1","type":"address","internalType":"Currency"},{"name":"fee","type":"uint24","internalType":"uint24"},{"name":"tickSpacing","type":"int24","internalType":"int24"},{"name":"hooks","type":"address","internalType":"contract IHooks"}]},{"name":"params","type":"tuple","internalType":"struct IPoolManager.SwapParams","components":[{"name":"zeroForOne","type":"bool","internalType":"bool"},{"name":"amountSpecified","type":"int256","internalType":"int256"},{"name":"sqrtPriceLimitX96","type":"uint160","internalType":"uint160"}]},{"name":"testSettings","type":"tuple","internalType":"struct PoolSwapTest.TestSettings","components":[{"name":"withdrawTokens","type":"bool","internalType":"bool"},{"name":"settleUsingTransfer","type":"bool","internalType":"bool"},{"name":"currencyAlreadySent","type":"bool","internalType":"bool"}]},{"name":"hookData","type":"bytes","internalType":"bytes"}],"outputs":[{"name":"delta","type":"int256","internalType":"BalanceDelta"}],"stateMutability":"payable"},{"type":"function","name":"targetArtifactSelectors","inputs":[],"outputs":[{"name":"targetedArtifactSelectors_","type":"tuple[]","internalType":"struct StdInvariant.FuzzSelector[]","components":[{"name":"addr","type":"address","internalType":"address"},{"name":"selectors","type":"bytes4[]","internalType":"bytes4[]"}]}],"stateMutability":"view"},{"type":"function","name":"targetArtifacts","inputs":[],"outputs":[{"name":"targetedArtifacts_","type":"string[]","internalType":"string[]"}],"stateMutability":"view"},{"type":"function","name":"targetContracts","inputs":[],"outputs":[{"name":"targetedContracts_","type":"address[]","internalType":"address[]"}],"stateMutability":"view"},{"type":"function","name":"targetInterfaces","inputs":[],"outputs":[{"name":"targetedInterfaces_","type":"tuple[]","internalType":"struct StdInvariant.FuzzInterface[]","components":[{"name":"addr","type":"address","internalType":"address"},{"name":"artifacts","type":"string[]","internalType":"string[]"}]}],"stateMutability":"view"},{"type":"function","name":"targetSelectors","inputs":[],"outputs":[{"name":"targetedSelectors_","type":"tuple[]","internalType":"struct StdInvariant.FuzzSelector[]","components":[{"name":"addr","type":"address","internalType":"address"},{"name":"selectors","type":"bytes4[]","internalType":"bytes4[]"}]}],"stateMutability":"view"},{"type":"function","name":"targetSenders","inputs":[],"outputs":[{"name":"targetedSenders_","type":"address[]","internalType":"address[]"}],"stateMutability":"view"},{"type":"event","name":"log","inputs":[{"name":"","type":"string","indexed":false,"internalType":"string"}],"anonymous":false},{"type":"event","name":"log_address","inputs":[{"name":"","type":"address","indexed":false,"internalType":"address"}],"anonymous":false},{"type":"event","name":"log_array","inputs":[{"name":"val","type":"uint256[]","indexed":false,"internalType":"uint256[]"}],"anonymous":false},{"type":"event","name":"log_array","inputs":[{"name":"val","type":"int256[]","indexed":false,"internalType":"int256[]"}],"anonymous":false},{"type":"event","name":"log_array","inputs":[{"name":"val","type":"address[]","indexed":false,"internalType":"address[]"}],"anonymous":false},{"type":"event","name":"log_bytes","inputs":[{"name":"","type":"bytes","indexed":false,"internalType":"bytes"}],"anonymous":false},{"type":"event","name":"log_bytes32","inputs":[{"name":"","type":"bytes32","indexed":false,"internalType":"bytes32"}],"anonymous":false},{"type":"event","name":"log_int","inputs":[{"name":"","type":"int256","indexed":false,"internalType":"int256"}],"anonymous":false},{"type":"event","name":"log_named_address","inputs":[{"name":"key","type":"string","indexed":false,"internalType":"string"},{"name":"val","type":"address","indexed":false,"internalType":"address"}],"anonymous":false},{"type":"event","name":"log_named_array","inputs":[{"name":"key","type":"string","indexed":false,"internalType":"string"},{"name":"val","type":"uint256[]","indexed":false,"internalType":"uint256[]"}],"anonymous":false},{"type":"event","name":"log_named_array","inputs":[{"name":"key","type":"string","indexed":false,"internalType":"string"},{"name":"val","type":"int256[]","indexed":false,"internalType":"int256[]"}],"anonymous":false},{"type":"event","name":"log_named_array","inputs":[{"name":"key","type":"string","indexed":false,"internalType":"string"},{"name":"val","type":"address[]","indexed":false,"internalType":"address[]"}],"anonymous":false},{"type":"event","name":"log_named_bytes","inputs":[{"name":"key","type":"string","indexed":false,"internalType":"string"},{"name":"val","type":"bytes","indexed":false,"internalType":"bytes"}],"anonymous":false},{"type":"event","name":"log_named_bytes32","inputs":[{"name":"key","type":"string","indexed":false,"internalType":"string"},{"name":"val","type":"bytes32","indexed":false,"internalType":"bytes32"}],"anonymous":false},{"type":"event","name":"log_named_decimal_int","inputs":[{"name":"key","type":"string","indexed":false,"internalType":"string"},{"name":"val","type":"int256","indexed":false,"internalType":"int256"},{"name":"decimals","type":"uint256","indexed":false,"internalType":"uint256"}],"anonymous":false},{"type":"event","name":"log_named_decimal_uint","inputs":[{"name":"key","type":"string","indexed":false,"internalType":"string"},{"name":"val","type":"uint256","indexed":false,"internalType":"uint256"},{"name":"decimals","type":"uint256","indexed":false,"internalType":"uint256"}],"anonymous":false},{"type":"event","name":"log_named_int","inputs":[{"name":"key","type":"string","indexed":false,"internalType":"string"},{"name":"val","type":"int256","indexed":false,"internalType":"int256"}],"anonymous":false},{"type":"event","name":"log_named_string","inputs":[{"name":"key","type":"string","indexed":false,"internalType":"string"},{"name":"val","type":"string","indexed":false,"internalType":"string"}],"anonymous":false},{"type":"event","name":"log_named_uint","inputs":[{"name":"key","type":"string","indexed":false,"internalType":"string"},{"name":"val","type":"uint256","indexed":false,"internalType":"uint256"}],"anonymous":false},{"type":"event","name":"log_string","inputs":[{"name":"","type":"string","indexed":false,"internalType":"string"}],"anonymous":false},{"type":"event","name":"log_uint","inputs":[{"name":"","type":"uint256","indexed":false,"internalType":"uint256"}],"anonymous":false},{"type":"event","name":"logs","inputs":[{"name":"","type":"bytes","indexed":false,"internalType":"bytes"}],"anonymous":false},{"type":"error","name":"ERC20TransferFailed","inputs":[]},{"type":"error","name":"NativeTransferFailed","inputs":[]},{"type":"error","name":"NoSwapOccurred","inputs":[]}],"bytecode":{"object":"0x60a0604052600c805460ff1916600117905534801561001c575f80fd5b50604051611ff2380380611ff283398101604081905261003b9161004c565b6001600160a01b0316608052610079565b5f6020828403121561005c575f80fd5b81516001600160a01b0381168114610072575f80fd5b9392505050565b608051611eff6100f35f395f8181610147015281816104cb0152818161086f015281816108f901528181610abf01528181610b8d01528181610f1e01528181610f6401528181610ff9015281816111c10152818161127b01528181611341015281816113ad015281816114b701526115150152611eff5ff3fe6080604052600436106100bf575f3560e01c806366d9a9a01161007c578063ab6291fe11610057578063ab6291fe146101f8578063b5508aa914610224578063ba414fa614610238578063e20c9f711461025c575f80fd5b806366d9a9a0146101a257806385226c81146101c3578063916a17c6146101e4575f80fd5b80631ed7831c146100c35780632ade3880146100ed5780633e5e3c231461010e5780633f7286f414610122578063481c6a75146101365780636646135b14610181575b5f80fd5b3480156100ce575f80fd5b506100d7610270565b6040516100e4919061162b565b60405180910390f35b3480156100f8575f80fd5b506101016102d0565b6040516100e491906116c4565b348015610119575f80fd5b506100d761040c565b34801561012d575f80fd5b506100d761046a565b348015610141575f80fd5b506101697f000000000000000000000000000000000000000000000000000000000000000081565b6040516001600160a01b0390911681526020016100e4565b61019461018f3660046119c7565b6104c8565b6040519081526020016100e4565b3480156101ad575f80fd5b506101b66105d5565b6040516100e49190611a38565b3480156101ce575f80fd5b506101d76106b6565b6040516100e49190611ae9565b3480156101ef575f80fd5b506101b6610781565b348015610203575f80fd5b50610217610212366004611b4b565b610862565b6040516100e49190611bb7565b34801561022f575f80fd5b506101d7610c95565b348015610243575f80fd5b5061024c610d60565b60405190151581526020016100e4565b348015610267575f80fd5b506100d7610e00565b606060168054806020026020016040519081016040528092919081815260200182805480156102c657602002820191905f5260205f20905b81546001600160a01b031681526001909101906020018083116102a8575b5050505050905090565b6060601d805480602002602001604051908101604052809291908181526020015f905b82821015610403575f84815260208082206040805180820182526002870290920180546001600160a01b03168352600181018054835181870281018701909452808452939591948681019491929084015b828210156103ec578382905f5260205f2001805461036190611bd0565b80601f016020809104026020016040519081016040528092919081815260200182805461038d90611bd0565b80156103d85780601f106103af576101008083540402835291602001916103d8565b820191905f5260205f20905b8154815290600101906020018083116103bb57829003601f168201915b505050505081526020019060010190610344565b5050505081525050815260200190600101906102f3565b50505050905090565b606060188054806020026020016040519081016040528092919081815260200182805480156102c657602002820191905f5260205f209081546001600160a01b031681526001909101906020018083116102a8575050505050905090565b606060178054806020026020016040519081016040528092919081815260200182805480156102c657602002820191905f5260205f209081546001600160a01b031681526001909101906020018083116102a8575050505050905090565b5f7f00000000000000000000000000000000000000000000000000000000000000006001600160a01b031663815483196040518060a00160405280336001600160a01b03168152602001868152602001888152602001878152602001858152506040516020016105389190611c4b565b6040516020818303038152906040526040518263ffffffff1660e01b81526004016105639190611bb7565b5f604051808303815f875af115801561057e573d5f803e3d5ffd5b505050506040513d5f823e601f3d908101601f191682016040526105a59190810190611ce7565b8060200190518101906105b89190611d59565b90504780156105cc576105cc5f3383610e5e565b50949350505050565b6060601b805480602002602001604051908101604052809291908181526020015f905b82821015610403575f8481526020908190206040805180820182526002860290920180546001600160a01b0316835260018101805483518187028101870190945280845293949193858301939283018282801561069e57602002820191905f5260205f20905f905b82829054906101000a900460e01b6001600160e01b031916815260200190600401906020826003010492830192600103820291508084116106605790505b505050505081525050815260200190600101906105f8565b6060601a805480602002602001604051908101604052809291908181526020015f905b82821015610403578382905f5260205f200180546106f690611bd0565b80601f016020809104026020016040519081016040528092919081815260200182805461072290611bd0565b801561076d5780601f106107445761010080835404028352916020019161076d565b820191905f5260205f20905b81548152906001019060200180831161075057829003601f168201915b5050505050815260200190600101906106d9565b6060601c805480602002602001604051908101604052809291908181526020015f905b82821015610403575f8481526020908190206040805180820182526002860290920180546001600160a01b0316835260018101805483518187028101870190945280845293949193858301939283018282801561084a57602002820191905f5260205f20905f905b82829054906101000a900460e01b6001600160e01b0319168152602001906004019060208260030104928301926001038202915080841161080c5790505b505050505081525050815260200190600101906107a4565b6060336001600160a01b037f00000000000000000000000000000000000000000000000000000000000000001614610898575f80fd5b5f6108a583850185611d70565b90505f806108be83604001515f0151845f015130610ef6565b9350935050505f806108dc856040015160200151865f015130610ef6565b9350935050506108ec835f61106f565b6108f6815f61106f565b5f7f00000000000000000000000000000000000000000000000000000000000000006001600160a01b031663f3cd914c8760400151886060015189608001516040518463ffffffff1660e01b815260040161095393929190611e24565b6020604051808303815f875af115801561096f573d5f803e3d5ffd5b505050506040513d601f19601f820116820180604052508101906109939190611d59565b90505f806109ac88604001515f0151895f015130610ef6565b9350935050505f806109ca8a60400151602001518b5f015130610ef6565b9350935050506109da89856110da565b6109e487836110da565b60608a01515115610a3c575f8a60600151602001511215610a2057610a11838b606001516020015161106f565b610a1b815f611119565b610a84565b610a2a835f611158565b610a1b818b606001516020015161106f565b5f8a60600151602001511215610a6857610a5e818b606001516020015161106f565b610a1b835f611119565b610a72815f611158565b610a84838b606001516020015161106f565b5f831215610b4f5789602001516040015115610b315760408a810151519051636a256b2960e01b81526001600160a01b0391821660048201527f000000000000000000000000000000000000000000000000000000000000000090911690636a256b29906024016020604051808303815f875af1158015610b07573d5f803e3d5ffd5b505050506040513d601f19601f82011682018060405250810190610b2b9190611d59565b50610b4f565b610b4f8a604001515f01518b5f0151858d6020015160200151611196565b5f811215610c1e5789602001516040015115610bff5760408a810151602001519051636a256b2960e01b81526001600160a01b0391821660048201527f000000000000000000000000000000000000000000000000000000000000000090911690636a256b29906024016020604051808303815f875af1158015610bd5573d5f803e3d5ffd5b505050506040513d601f19601f82011682018060405250810190610bf99190611d59565b50610c1e565b610c1e8a60400151602001518b5f0151838d6020015160200151611196565b5f831315610c415760408a0151518a5160208c015151610c41929190869061146e565b5f811315610c6757610c678a60400151602001518b5f0151838d602001515f015161146e565b6040805160208101879052016040516020818303038152906040529a50505050505050505050505b92915050565b60606019805480602002602001604051908101604052809291908181526020015f905b82821015610403578382905f5260205f20018054610cd590611bd0565b80601f0160208091040260200160405190810160405280929190818152602001828054610d0190611bd0565b8015610d4c5780601f10610d2357610100808354040283529160200191610d4c565b820191905f5260205f20905b815481529060010190602001808311610d2f57829003601f168201915b505050505081526020019060010190610cb8565b6008545f9060ff1615610d77575060085460ff1690565b604051630667f9d760e41b8152737109709ecfa91a80626ff3989d68f67f5b1dd12d600482018190526519985a5b195960d21b60248301525f9163667f9d7090604401602060405180830381865afa158015610dd5573d5f803e3d5ffd5b505050506040513d601f19601f82011682018060405250810190610df99190611d59565b1415905090565b606060158054806020026020016040519081016040528092919081815260200182805480156102c657602002820191905f5260205f209081546001600160a01b031681526001909101906020018083116102a8575050505050905090565b5f6001600160a01b038416610e9a575f805f8085875af1905080610e9557604051633d2cec6f60e21b815260040160405180910390fd5b610ef0565b60405163a9059cbb60e01b5f52836004528260245260205f60445f80895af13d15601f3d1160015f511416171691505f606052806040525080610ef057604051633c9fd93960e21b815260040160405180910390fd5b50505050565b5f808080610f0d6001600160a01b0388168761159c565b9350610f426001600160a01b0388167f000000000000000000000000000000000000000000000000000000000000000061159c565b6040516393c85a2160e01b81526001600160a01b0389811660048301529194507f0000000000000000000000000000000000000000000000000000000000000000909116906393c85a2190602401602060405180830381865afa158015610fab573d5f803e3d5ffd5b505050506040513d601f19601f82011682018060405250810190610fcf9190611d59565b60405163a54b283160e01b81526001600160a01b03878116600483015289811660248301529193507f00000000000000000000000000000000000000000000000000000000000000009091169063a54b283190604401602060405180830381865afa158015611040573d5f803e3d5ffd5b505050506040513d601f19601f820116820180604052508101906110649190611d59565b905093509350935093565b60405163fe74f05b60e01b81526004810183905260248101829052737109709ecfa91a80626ff3989d68f67f5b1dd12d9063fe74f05b906044015b5f6040518083038186803b1580156110c0575f80fd5b505afa1580156110d2573d5f803e3d5ffd5b505050505050565b60405163260a5b1560e21b81526004810183905260248101829052737109709ecfa91a80626ff3989d68f67f5b1dd12d906398296c54906044016110aa565b604051635a362d4560e01b81526004810183905260248101829052737109709ecfa91a80626ff3989d68f67f5b1dd12d90635a362d45906044016110aa565b604051627d228160e71b81526004810183905260248101829052737109709ecfa91a80626ff3989d68f67f5b1dd12d90633e914080906044016110aa565b6111a382600f0b5f611158565b80156113ab576001600160a01b038416611269576001600160a01b037f000000000000000000000000000000000000000000000000000000000000000016636a256b296111ef84611e75565b6040516001600160e01b031960e084901b1681526001600160a01b03881660048201526001600160801b03919091169060240160206040518083038185885af115801561123e573d5f803e3d5ffd5b50505050506040513d601f19601f820116820180604052508101906112639190611d59565b50610ef0565b6001600160a01b0384166323b872dd847f00000000000000000000000000000000000000000000000000000000000000006112a386611e75565b6040516001600160e01b031960e086901b1681526001600160a01b0393841660048201529290911660248301526001600160801b031660448201526064016020604051808303815f875af11580156112fd573d5f803e3d5ffd5b505050506040513d601f19601f820116820180604052508101906113219190611eae565b50604051636a256b2960e01b81526001600160a01b0385811660048301527f00000000000000000000000000000000000000000000000000000000000000001690636a256b29906024016020604051808303815f875af1158015611387573d5f803e3d5ffd5b505050506040513d601f19601f820116820180604052508101906112639190611d59565b7f00000000000000000000000000000000000000000000000000000000000000006001600160a01b031663f5298aca846113f4876001600160a01b03166001600160a01b031690565b6113fd86611e75565b6040516001600160e01b031960e086901b1681526001600160a01b03909316600484015260248301919091526001600160801b031660448201526064015b5f604051808303815f87803b158015611452575f80fd5b505af1158015611464573d5f803e3d5ffd5b5050505050505050565b61147b82600f0b5f611119565b801561151357604051630b0d9c0960e01b81526001600160a01b03858116600483015284811660248301526001600160801b03841660448301527f00000000000000000000000000000000000000000000000000000000000000001690630b0d9c09906064015f604051808303815f87803b1580156114f8575f80fd5b505af115801561150a573d5f803e3d5ffd5b50505050610ef0565b7f00000000000000000000000000000000000000000000000000000000000000006001600160a01b031663156e29f68461155c876001600160a01b03166001600160a01b031690565b6040516001600160e01b031960e085901b1681526001600160a01b03909216600483015260248201526001600160801b038516604482015260640161143b565b5f6001600160a01b0383166115bc57506001600160a01b03811631610c8f565b6040516370a0823160e01b81526001600160a01b0383811660048301528416906370a0823190602401602060405180830381865afa158015611600573d5f803e3d5ffd5b505050506040513d601f19601f820116820180604052508101906116249190611d59565b9050610c8f565b602080825282518282018190525f9190848201906040850190845b8181101561166b5783516001600160a01b031683529284019291840191600101611646565b50909695505050505050565b5f5b83811015611691578181015183820152602001611679565b50505f910152565b5f81518084526116b0816020860160208601611677565b601f01601f19169290920160200192915050565b602080825282518282018190525f919060409081850190600581811b87018401888601875b8481101561177257603f198a8403018652815180516001600160a01b03168452880151888401889052805188850181905290890190606081871b8601810191908601905f5b8181101561175c57605f1988850301835261174a848651611699565b948d01949350918c019160010161172e565b50505096890196935050908701906001016116e9565b50909998505050505050505050565b634e487b7160e01b5f52604160045260245ffd5b60405160a0810167ffffffffffffffff811182821017156117b8576117b8611781565b60405290565b6040516060810167ffffffffffffffff811182821017156117b8576117b8611781565b604051601f8201601f1916810167ffffffffffffffff8111828210171561180a5761180a611781565b604052919050565b6001600160a01b0381168114611826575f80fd5b50565b5f60a08284031215611839575f80fd5b611841611795565b9050813561184e81611812565b8152602082013561185e81611812565b6020820152604082013562ffffff81168114611878575f80fd5b60408201526060820135600281900b8114611891575f80fd5b606082015260808201356118a481611812565b608082015292915050565b8015158114611826575f80fd5b5f606082840312156118cc575f80fd5b6118d46117be565b905081356118e1816118af565b81526020828101359082015260408201356118fb81611812565b604082015292915050565b5f60608284031215611916575f80fd5b61191e6117be565b9050813561192b816118af565b8152602082013561193b816118af565b602082015260408201356118fb816118af565b5f67ffffffffffffffff82111561196757611967611781565b50601f01601f191660200190565b5f82601f830112611984575f80fd5b81356119976119928261194e565b6117e1565b8181528460208386010111156119ab575f80fd5b816020850160208301375f918101602001919091529392505050565b5f805f8061018085870312156119db575f80fd5b6119e58686611829565b93506119f48660a087016118bc565b9250611a04866101008701611906565b915061016085013567ffffffffffffffff811115611a20575f80fd5b611a2c87828801611975565b91505092959194509250565b5f60208083018184528085518083526040925060408601915060408160051b8701018488015f5b83811015611adb57888303603f19018552815180516001600160a01b031684528701518784018790528051878501819052908801905f9060608601905b80831015611ac65783516001600160e01b0319168252928a019260019290920191908a0190611a9c565b50968901969450505090860190600101611a5f565b509098975050505050505050565b5f60208083016020845280855180835260408601915060408160051b8701019250602087015f5b82811015611b3e57603f19888603018452611b2c858351611699565b94509285019290850190600101611b10565b5092979650505050505050565b5f8060208385031215611b5c575f80fd5b823567ffffffffffffffff80821115611b73575f80fd5b818501915085601f830112611b86575f80fd5b813581811115611b94575f80fd5b866020828501011115611ba5575f80fd5b60209290920196919550909350505050565b602081525f611bc96020830184611699565b9392505050565b600181811c90821680611be457607f821691505b602082108103611c0257634e487b7160e01b5f52602260045260245ffd5b50919050565b80516001600160a01b03908116835260208083015182169084015260408083015162ffffff169084015260608083015160020b9084015260809182015116910152565b602080825282516001600160a01b03168282015282810151805115156040808501919091529181015115156060840152810151151560808301528201515f90611c9760a0840182611c08565b506060830151805115156101408401526020810151610160840152604001516001600160a01b031661018083015260808301516101a080840152611cdf6101c0840182611699565b949350505050565b5f60208284031215611cf7575f80fd5b815167ffffffffffffffff811115611d0d575f80fd5b8201601f81018413611d1d575f80fd5b8051611d2b6119928261194e565b818152856020838501011115611d3f575f80fd5b611d50826020830160208601611677565b95945050505050565b5f60208284031215611d69575f80fd5b5051919050565b5f60208284031215611d80575f80fd5b813567ffffffffffffffff80821115611d97575f80fd5b908301906101a08286031215611dab575f80fd5b611db3611795565b8235611dbe81611812565b8152611dcd8660208501611906565b6020820152611ddf8660808501611829565b6040820152611df28661012085016118bc565b606082015261018083013582811115611e09575f80fd5b611e1587828601611975565b60808301525095945050505050565b5f610120611e328387611c08565b8451151560a0840152602085015160c084015260408501516001600160a01b031660e084015280610100840152611e6b81840185611699565b9695505050505050565b5f81600f0b6f7fffffffffffffffffffffffffffffff198103611ea657634e487b7160e01b5f52601160045260245ffd5b5f0392915050565b5f60208284031215611ebe575f80fd5b8151611bc9816118af56fea26469706673582212200d15c8cde672580be7a3d27e5a1f57ae364d4d02b230879be86c2686834241b464736f6c63430008180033","linkReferences":{}},"methodIdentifiers":{"excludeArtifacts()":"b5508aa9","excludeContracts()":"e20c9f71","excludeSenders()":"1ed7831c","failed()":"ba414fa6","lockAcquired(bytes)":"ab6291fe","manager()":"481c6a75","swap((address,address,uint24,int24,address),(bool,int256,uint160),(bool,bool,bool),bytes)":"6646135b","targetArtifactSelectors()":"66d9a9a0","targetArtifacts()":"85226c81","targetContracts()":"3f7286f4","targetInterfaces()":"2ade3880","targetSelectors()":"916a17c6","targetSenders()":"3e5e3c23"},"id":78}