{"abi":[{"type":"constructor","inputs":[{"name":"_manager","type":"address","internalType":"contract IPoolManager"}],"stateMutability":"nonpayable"},{"type":"function","name":"donate","inputs":[{"name":"key","type":"tuple","internalType":"struct PoolKey","components":[{"name":"currency0","type":"address","internalType":"Currency"},{"name":"currency1","type":"address","internalType":"Currency"},{"name":"fee","type":"uint24","internalType":"uint24"},{"name":"tickSpacing","type":"int24","internalType":"int24"},{"name":"hooks","type":"address","internalType":"contract IHooks"}]},{"name":"amount0","type":"uint256","internalType":"uint256"},{"name":"amount1","type":"uint256","internalType":"uint256"},{"name":"hookData","type":"bytes","internalType":"bytes"}],"outputs":[{"name":"delta","type":"int256","internalType":"BalanceDelta"}],"stateMutability":"payable"},{"type":"function","name":"excludeArtifacts","inputs":[],"outputs":[{"name":"excludedArtifacts_","type":"string[]","internalType":"string[]"}],"stateMutability":"view"},{"type":"function","name":"excludeContracts","inputs":[],"outputs":[{"name":"excludedContracts_","type":"address[]","internalType":"address[]"}],"stateMutability":"view"},{"type":"function","name":"excludeSenders","inputs":[],"outputs":[{"name":"excludedSenders_","type":"address[]","internalType":"address[]"}],"stateMutability":"view"},{"type":"function","name":"failed","inputs":[],"outputs":[{"name":"","type":"bool","internalType":"bool"}],"stateMutability":"view"},{"type":"function","name":"lockAcquired","inputs":[{"name":"rawData","type":"bytes","internalType":"bytes"}],"outputs":[{"name":"","type":"bytes","internalType":"bytes"}],"stateMutability":"nonpayable"},{"type":"function","name":"manager","inputs":[],"outputs":[{"name":"","type":"address","internalType":"contract IPoolManager"}],"stateMutability":"view"},{"type":"function","name":"targetArtifactSelectors","inputs":[],"outputs":[{"name":"targetedArtifactSelectors_","type":"tuple[]","internalType":"struct StdInvariant.FuzzSelector[]","components":[{"name":"addr","type":"address","internalType":"address"},{"name":"selectors","type":"bytes4[]","internalType":"bytes4[]"}]}],"stateMutability":"view"},{"type":"function","name":"targetArtifacts","inputs":[],"outputs":[{"name":"targetedArtifacts_","type":"string[]","internalType":"string[]"}],"stateMutability":"view"},{"type":"function","name":"targetContracts","inputs":[],"outputs":[{"name":"targetedContracts_","type":"address[]","internalType":"address[]"}],"stateMutability":"view"},{"type":"function","name":"targetInterfaces","inputs":[],"outputs":[{"name":"targetedInterfaces_","type":"tuple[]","internalType":"struct StdInvariant.FuzzInterface[]","components":[{"name":"addr","type":"address","internalType":"address"},{"name":"artifacts","type":"string[]","internalType":"string[]"}]}],"stateMutability":"view"},{"type":"function","name":"targetSelectors","inputs":[],"outputs":[{"name":"targetedSelectors_","type":"tuple[]","internalType":"struct StdInvariant.FuzzSelector[]","components":[{"name":"addr","type":"address","internalType":"address"},{"name":"selectors","type":"bytes4[]","internalType":"bytes4[]"}]}],"stateMutability":"view"},{"type":"function","name":"targetSenders","inputs":[],"outputs":[{"name":"targetedSenders_","type":"address[]","internalType":"address[]"}],"stateMutability":"view"},{"type":"event","name":"log","inputs":[{"name":"","type":"string","indexed":false,"internalType":"string"}],"anonymous":false},{"type":"event","name":"log_address","inputs":[{"name":"","type":"address","indexed":false,"internalType":"address"}],"anonymous":false},{"type":"event","name":"log_array","inputs":[{"name":"val","type":"uint256[]","indexed":false,"internalType":"uint256[]"}],"anonymous":false},{"type":"event","name":"log_array","inputs":[{"name":"val","type":"int256[]","indexed":false,"internalType":"int256[]"}],"anonymous":false},{"type":"event","name":"log_array","inputs":[{"name":"val","type":"address[]","indexed":false,"internalType":"address[]"}],"anonymous":false},{"type":"event","name":"log_bytes","inputs":[{"name":"","type":"bytes","indexed":false,"internalType":"bytes"}],"anonymous":false},{"type":"event","name":"log_bytes32","inputs":[{"name":"","type":"bytes32","indexed":false,"internalType":"bytes32"}],"anonymous":false},{"type":"event","name":"log_int","inputs":[{"name":"","type":"int256","indexed":false,"internalType":"int256"}],"anonymous":false},{"type":"event","name":"log_named_address","inputs":[{"name":"key","type":"string","indexed":false,"internalType":"string"},{"name":"val","type":"address","indexed":false,"internalType":"address"}],"anonymous":false},{"type":"event","name":"log_named_array","inputs":[{"name":"key","type":"string","indexed":false,"internalType":"string"},{"name":"val","type":"uint256[]","indexed":false,"internalType":"uint256[]"}],"anonymous":false},{"type":"event","name":"log_named_array","inputs":[{"name":"key","type":"string","indexed":false,"internalType":"string"},{"name":"val","type":"int256[]","indexed":false,"internalType":"int256[]"}],"anonymous":false},{"type":"event","name":"log_named_array","inputs":[{"name":"key","type":"string","indexed":false,"internalType":"string"},{"name":"val","type":"address[]","indexed":false,"internalType":"address[]"}],"anonymous":false},{"type":"event","name":"log_named_bytes","inputs":[{"name":"key","type":"string","indexed":false,"internalType":"string"},{"name":"val","type":"bytes","indexed":false,"internalType":"bytes"}],"anonymous":false},{"type":"event","name":"log_named_bytes32","inputs":[{"name":"key","type":"string","indexed":false,"internalType":"string"},{"name":"val","type":"bytes32","indexed":false,"internalType":"bytes32"}],"anonymous":false},{"type":"event","name":"log_named_decimal_int","inputs":[{"name":"key","type":"string","indexed":false,"internalType":"string"},{"name":"val","type":"int256","indexed":false,"internalType":"int256"},{"name":"decimals","type":"uint256","indexed":false,"internalType":"uint256"}],"anonymous":false},{"type":"event","name":"log_named_decimal_uint","inputs":[{"name":"key","type":"string","indexed":false,"internalType":"string"},{"name":"val","type":"uint256","indexed":false,"internalType":"uint256"},{"name":"decimals","type":"uint256","indexed":false,"internalType":"uint256"}],"anonymous":false},{"type":"event","name":"log_named_int","inputs":[{"name":"key","type":"string","indexed":false,"internalType":"string"},{"name":"val","type":"int256","indexed":false,"internalType":"int256"}],"anonymous":false},{"type":"event","name":"log_named_string","inputs":[{"name":"key","type":"string","indexed":false,"internalType":"string"},{"name":"val","type":"string","indexed":false,"internalType":"string"}],"anonymous":false},{"type":"event","name":"log_named_uint","inputs":[{"name":"key","type":"string","indexed":false,"internalType":"string"},{"name":"val","type":"uint256","indexed":false,"internalType":"uint256"}],"anonymous":false},{"type":"event","name":"log_string","inputs":[{"name":"","type":"string","indexed":false,"internalType":"string"}],"anonymous":false},{"type":"event","name":"log_uint","inputs":[{"name":"","type":"uint256","indexed":false,"internalType":"uint256"}],"anonymous":false},{"type":"event","name":"logs","inputs":[{"name":"","type":"bytes","indexed":false,"internalType":"bytes"}],"anonymous":false},{"type":"error","name":"ERC20TransferFailed","inputs":[]},{"type":"error","name":"NativeTransferFailed","inputs":[]}],"bytecode":{"object":"0x60a0604052600c805460ff1916600117905534801561001c575f80fd5b50604051611cad380380611cad83398101604081905261003b9161004c565b6001600160a01b0316608052610079565b5f6020828403121561005c575f80fd5b81516001600160a01b0381168114610072575f80fd5b9392505050565b608051611bc86100e55f395f8181610168015281816102d30152818161086f015281816108f901528181610d4401528181610d8a01528181610e1f01528181610f6a01528181611024015281816110ea015281816111560152818161126001526112be0152611bc85ff3fe6080604052600436106100bf575f3560e01c806366d9a9a01161007c578063ab6291fe11610057578063ab6291fe146101f8578063b5508aa914610224578063ba414fa614610238578063e20c9f711461025c575f80fd5b806366d9a9a0146101a257806385226c81146101c3578063916a17c6146101e4575f80fd5b80631ed7831c146100c3578063234266d7146100ed5780632ade38801461010e5780633e5e3c231461012f5780633f7286f414610143578063481c6a7514610157575b5f80fd5b3480156100ce575f80fd5b506100d7610270565b6040516100e49190611451565b60405180910390f35b6101006100fb366004611621565b6102d0565b6040519081526020016100e4565b348015610119575f80fd5b506101226103dd565b6040516100e49190611725565b34801561013a575f80fd5b506100d7610519565b34801561014e575f80fd5b506100d7610577565b348015610162575f80fd5b5061018a7f000000000000000000000000000000000000000000000000000000000000000081565b6040516001600160a01b0390911681526020016100e4565b3480156101ad575f80fd5b506101b66105d5565b6040516100e491906117a2565b3480156101ce575f80fd5b506101d76106b6565b6040516100e49190611845565b3480156101ef575f80fd5b506101b6610781565b348015610203575f80fd5b5061021761021236600461185e565b610862565b6040516100e491906118ca565b34801561022f575f80fd5b506101d7610abb565b348015610243575f80fd5b5061024c610b86565b60405190151581526020016100e4565b348015610267575f80fd5b506100d7610c26565b606060168054806020026020016040519081016040528092919081815260200182805480156102c657602002820191905f5260205f20905b81546001600160a01b031681526001909101906020018083116102a8575b5050505050905090565b5f7f00000000000000000000000000000000000000000000000000000000000000006001600160a01b031663815483196040518060a00160405280336001600160a01b0316815260200188815260200187815260200186815260200185815250604051602001610340919061191f565b6040516020818303038152906040526040518263ffffffff1660e01b815260040161036b91906118ca565b5f604051808303815f875af1158015610386573d5f803e3d5ffd5b505050506040513d5f823e601f3d908101601f191682016040526103ad919081019061197d565b8060200190518101906103c091906119ef565b90504780156103d4576103d45f3383610c84565b50949350505050565b6060601d805480602002602001604051908101604052809291908181526020015f905b82821015610510575f84815260208082206040805180820182526002870290920180546001600160a01b03168352600181018054835181870281018701909452808452939591948681019491929084015b828210156104f9578382905f5260205f2001805461046e90611a06565b80601f016020809104026020016040519081016040528092919081815260200182805461049a90611a06565b80156104e55780601f106104bc576101008083540402835291602001916104e5565b820191905f5260205f20905b8154815290600101906020018083116104c857829003601f168201915b505050505081526020019060010190610451565b505050508152505081526020019060010190610400565b50505050905090565b606060188054806020026020016040519081016040528092919081815260200182805480156102c657602002820191905f5260205f209081546001600160a01b031681526001909101906020018083116102a8575050505050905090565b606060178054806020026020016040519081016040528092919081815260200182805480156102c657602002820191905f5260205f209081546001600160a01b031681526001909101906020018083116102a8575050505050905090565b6060601b805480602002602001604051908101604052809291908181526020015f905b82821015610510575f8481526020908190206040805180820182526002860290920180546001600160a01b0316835260018101805483518187028101870190945280845293949193858301939283018282801561069e57602002820191905f5260205f20905f905b82829054906101000a900460e01b6001600160e01b031916815260200190600401906020826003010492830192600103820291508084116106605790505b505050505081525050815260200190600101906105f8565b6060601a805480602002602001604051908101604052809291908181526020015f905b82821015610510578382905f5260205f200180546106f690611a06565b80601f016020809104026020016040519081016040528092919081815260200182805461072290611a06565b801561076d5780601f106107445761010080835404028352916020019161076d565b820191905f5260205f20905b81548152906001019060200180831161075057829003601f168201915b5050505050815260200190600101906106d9565b6060601c805480602002602001604051908101604052809291908181526020015f905b82821015610510575f8481526020908190206040805180820182526002860290920180546001600160a01b0316835260018101805483518187028101870190945280845293949193858301939283018282801561084a57602002820191905f5260205f20905f905b82829054906101000a900460e01b6001600160e01b0319168152602001906004019060208260030104928301926001038202915080841161080c5790505b505050505081525050815260200190600101906107a4565b6060336001600160a01b037f00000000000000000000000000000000000000000000000000000000000000001614610898575f80fd5b5f6108a583850185611a3e565b90505f806108be83602001515f0151845f015130610d1c565b9350935050505f806108dc856020015160200151865f015130610d1c565b9350935050506108ec835f610e95565b6108f6815f610e95565b5f7f00000000000000000000000000000000000000000000000000000000000000006001600160a01b031663234266d78760200151886040015189606001518a608001516040518563ffffffff1660e01b81526004016109599493929190611ae1565b6020604051808303815f875af1158015610975573d5f803e3d5ffd5b505050506040513d601f19601f8201168201806040525081019061099991906119ef565b90505f806109b288602001515f0151895f015130610d1c565b9350935050505f806109d08a60200151602001518b5f015130610d1c565b9350935050506109e08985610f00565b6109ea8783610f00565b610a01838b604001516109fc90611b2c565b610e95565b610a13818b606001516109fc90611b2c565b5f831215610a305760208a0151518a51610a309190856001610f3f565b5f811215610a5057610a508a60200151602001518b5f0151836001610f3f565b5f831315610a6d5760208a0151518a51610a6d9190856001611217565b5f811315610a8d57610a8d8a60200151602001518b5f0151836001611217565b6040805160208101879052016040516020818303038152906040529a50505050505050505050505b92915050565b60606019805480602002602001604051908101604052809291908181526020015f905b82821015610510578382905f5260205f20018054610afb90611a06565b80601f0160208091040260200160405190810160405280929190818152602001828054610b2790611a06565b8015610b725780601f10610b4957610100808354040283529160200191610b72565b820191905f5260205f20905b815481529060010190602001808311610b5557829003601f168201915b505050505081526020019060010190610ade565b6008545f9060ff1615610b9d575060085460ff1690565b604051630667f9d760e41b8152737109709ecfa91a80626ff3989d68f67f5b1dd12d600482018190526519985a5b195960d21b60248301525f9163667f9d7090604401602060405180830381865afa158015610bfb573d5f803e3d5ffd5b505050506040513d601f19601f82011682018060405250810190610c1f91906119ef565b1415905090565b606060158054806020026020016040519081016040528092919081815260200182805480156102c657602002820191905f5260205f209081546001600160a01b031681526001909101906020018083116102a8575050505050905090565b5f6001600160a01b038416610cc0575f805f8085875af1905080610cbb57604051633d2cec6f60e21b815260040160405180910390fd5b610d16565b60405163a9059cbb60e01b5f52836004528260245260205f60445f80895af13d15601f3d1160015f511416171691505f606052806040525080610d1657604051633c9fd93960e21b815260040160405180910390fd5b50505050565b5f808080610d336001600160a01b03881687611345565b9350610d686001600160a01b0388167f0000000000000000000000000000000000000000000000000000000000000000611345565b6040516393c85a2160e01b81526001600160a01b0389811660048301529194507f0000000000000000000000000000000000000000000000000000000000000000909116906393c85a2190602401602060405180830381865afa158015610dd1573d5f803e3d5ffd5b505050506040513d601f19601f82011682018060405250810190610df591906119ef565b60405163a54b283160e01b81526001600160a01b03878116600483015289811660248301529193507f00000000000000000000000000000000000000000000000000000000000000009091169063a54b283190604401602060405180830381865afa158015610e66573d5f803e3d5ffd5b505050506040513d601f19601f82011682018060405250810190610e8a91906119ef565b905093509350935093565b60405163fe74f05b60e01b81526004810183905260248101829052737109709ecfa91a80626ff3989d68f67f5b1dd12d9063fe74f05b906044015b5f6040518083038186803b158015610ee6575f80fd5b505afa158015610ef8573d5f803e3d5ffd5b505050505050565b60405163260a5b1560e21b81526004810183905260248101829052737109709ecfa91a80626ff3989d68f67f5b1dd12d906398296c5490604401610ed0565b610f4c82600f0b5f6113d4565b8015611154576001600160a01b038416611012576001600160a01b037f000000000000000000000000000000000000000000000000000000000000000016636a256b29610f9884611b46565b6040516001600160e01b031960e084901b1681526001600160a01b03881660048201526001600160801b03919091169060240160206040518083038185885af1158015610fe7573d5f803e3d5ffd5b50505050506040513d601f19601f8201168201806040525081019061100c91906119ef565b50610d16565b6001600160a01b0384166323b872dd847f000000000000000000000000000000000000000000000000000000000000000061104c86611b46565b6040516001600160e01b031960e086901b1681526001600160a01b0393841660048201529290911660248301526001600160801b031660448201526064016020604051808303815f875af11580156110a6573d5f803e3d5ffd5b505050506040513d601f19601f820116820180604052508101906110ca9190611b73565b50604051636a256b2960e01b81526001600160a01b0385811660048301527f00000000000000000000000000000000000000000000000000000000000000001690636a256b29906024016020604051808303815f875af1158015611130573d5f803e3d5ffd5b505050506040513d601f19601f8201168201806040525081019061100c91906119ef565b7f00000000000000000000000000000000000000000000000000000000000000006001600160a01b031663f5298aca8461119d876001600160a01b03166001600160a01b031690565b6111a686611b46565b6040516001600160e01b031960e086901b1681526001600160a01b03909316600484015260248301919091526001600160801b031660448201526064015b5f604051808303815f87803b1580156111fb575f80fd5b505af115801561120d573d5f803e3d5ffd5b5050505050505050565b61122482600f0b5f611412565b80156112bc57604051630b0d9c0960e01b81526001600160a01b03858116600483015284811660248301526001600160801b03841660448301527f00000000000000000000000000000000000000000000000000000000000000001690630b0d9c09906064015f604051808303815f87803b1580156112a1575f80fd5b505af11580156112b3573d5f803e3d5ffd5b50505050610d16565b7f00000000000000000000000000000000000000000000000000000000000000006001600160a01b031663156e29f684611305876001600160a01b03166001600160a01b031690565b6040516001600160e01b031960e085901b1681526001600160a01b03909216600483015260248201526001600160801b03851660448201526064016111e4565b5f6001600160a01b03831661136557506001600160a01b03811631610ab5565b6040516370a0823160e01b81526001600160a01b0383811660048301528416906370a0823190602401602060405180830381865afa1580156113a9573d5f803e3d5ffd5b505050506040513d601f19601f820116820180604052508101906113cd91906119ef565b9050610ab5565b604051627d228160e71b81526004810183905260248101829052737109709ecfa91a80626ff3989d68f67f5b1dd12d90633e91408090604401610ed0565b604051635a362d4560e01b81526004810183905260248101829052737109709ecfa91a80626ff3989d68f67f5b1dd12d90635a362d4590604401610ed0565b602080825282518282018190525f9190848201906040850190845b818110156114915783516001600160a01b03168352928401929184019160010161146c565b50909695505050505050565b634e487b7160e01b5f52604160045260245ffd5b60405160a0810167ffffffffffffffff811182821017156114d4576114d461149d565b60405290565b604051601f8201601f1916810167ffffffffffffffff811182821017156115035761150361149d565b604052919050565b6001600160a01b038116811461151f575f80fd5b50565b5f60a08284031215611532575f80fd5b61153a6114b1565b905081356115478161150b565b815260208201356115578161150b565b6020820152604082013562ffffff81168114611571575f80fd5b60408201526060820135600281900b811461158a575f80fd5b6060820152608082013561159d8161150b565b608082015292915050565b5f67ffffffffffffffff8211156115c1576115c161149d565b50601f01601f191660200190565b5f82601f8301126115de575f80fd5b81356115f16115ec826115a8565b6114da565b818152846020838601011115611605575f80fd5b816020850160208301375f918101602001919091529392505050565b5f805f806101008587031215611635575f80fd5b61163f8686611522565b935060a0850135925060c0850135915060e085013567ffffffffffffffff811115611668575f80fd5b611674878288016115cf565b91505092959194509250565b5f5b8381101561169a578181015183820152602001611682565b50505f910152565b5f81518084526116b9816020860160208601611680565b601f01601f19169290920160200192915050565b5f8282518085526020808601955060208260051b840101602086015f5b8481101561171857601f198684030189526117068383516116a2565b988401989250908301906001016116ea565b5090979650505050505050565b5f60208083018184528085518083526040925060408601915060408160051b8701018488015f5b8381101561179457888303603f19018552815180516001600160a01b03168452870151878401879052611781878501826116cd565b958801959350509086019060010161174c565b509098975050505050505050565b5f60208083018184528085518083526040925060408601915060408160051b8701018488015f5b8381101561179457888303603f19018552815180516001600160a01b031684528701518784018790528051878501819052908801905f9060608601905b808310156118305783516001600160e01b0319168252928a019260019290920191908a0190611806565b509689019694505050908601906001016117c9565b602081525f61185760208301846116cd565b9392505050565b5f806020838503121561186f575f80fd5b823567ffffffffffffffff80821115611886575f80fd5b818501915085601f830112611899575f80fd5b8135818111156118a7575f80fd5b8660208285010111156118b8575f80fd5b60209290920196919550909350505050565b602081525f61185760208301846116a2565b80516001600160a01b03908116835260208083015182169084015260408083015162ffffff169084015260608083015160020b9084015260809182015116910152565b602080825282516001600160a01b0316828201528201515f9061194560408401826118dc565b50604083015160e083015260608301516101008301526080830151610120808401526119756101408401826116a2565b949350505050565b5f6020828403121561198d575f80fd5b815167ffffffffffffffff8111156119a3575f80fd5b8201601f810184136119b3575f80fd5b80516119c16115ec826115a8565b8181528560208385010111156119d5575f80fd5b6119e6826020830160208601611680565b95945050505050565b5f602082840312156119ff575f80fd5b5051919050565b600181811c90821680611a1a57607f821691505b602082108103611a3857634e487b7160e01b5f52602260045260245ffd5b50919050565b5f60208284031215611a4e575f80fd5b813567ffffffffffffffff80821115611a65575f80fd5b908301906101208286031215611a79575f80fd5b611a816114b1565b8235611a8c8161150b565b8152611a9b8660208501611522565b602082015260c0830135604082015260e0830135606082015261010083013582811115611ac6575f80fd5b611ad2878286016115cf565b60808301525095945050505050565b5f610100611aef83886118dc565b8560a08401528460c08401528060e0840152611b0d818401856116a2565b979650505050505050565b634e487b7160e01b5f52601160045260245ffd5b5f600160ff1b8201611b4057611b40611b18565b505f0390565b5f81600f0b6f7fffffffffffffffffffffffffffffff198103611b6b57611b6b611b18565b5f0392915050565b5f60208284031215611b83575f80fd5b81518015158114611857575f80fdfea26469706673582212206d769a5ca0fe7b425551da7998d4a04aa5430f3491ad13517da3dffa0674826564736f6c63430008180033","linkReferences":{}},"methodIdentifiers":{"donate((address,address,uint24,int24,address),uint256,uint256,bytes)":"234266d7","excludeArtifacts()":"b5508aa9","excludeContracts()":"e20c9f71","excludeSenders()":"1ed7831c","failed()":"ba414fa6","lockAcquired(bytes)":"ab6291fe","manager()":"481c6a75","targetArtifactSelectors()":"66d9a9a0","targetArtifacts()":"85226c81","targetContracts()":"3f7286f4","targetInterfaces()":"2ade3880","targetSelectors()":"916a17c6","targetSenders()":"3e5e3c23"},"id":75}