{"abi":[{"type":"constructor","inputs":[{"name":"admin","type":"address","internalType":"address"}],"stateMutability":"nonpayable"},{"type":"function","name":"ADMIN_ROLE","inputs":[],"outputs":[{"name":"","type":"bytes32","internalType":"bytes32"}],"stateMutability":"view"},{"type":"function","name":"ATTESTER_ROLE","inputs":[],"outputs":[{"name":"","type":"bytes32","internalType":"bytes32"}],"stateMutability":"view"},{"type":"function","name":"DEFAULT_ADMIN_ROLE","inputs":[],"outputs":[{"name":"","type":"bytes32","internalType":"bytes32"}],"stateMutability":"view"},{"type":"function","name":"approve","inputs":[{"name":"to","type":"address","internalType":"address"},{"name":"tokenId","type":"uint256","internalType":"uint256"}],"outputs":[],"stateMutability":"nonpayable"},{"type":"function","name":"balanceOf","inputs":[{"name":"owner","type":"address","internalType":"address"}],"outputs":[{"name":"","type":"uint256","internalType":"uint256"}],"stateMutability":"view"},{"type":"function","name":"boddyOfProfile","inputs":[{"name":"user","type":"address","internalType":"address"},{"name":"parts","type":"uint256","internalType":"uint256"}],"outputs":[{"name":"mod","type":"uint256","internalType":"uint256"}],"stateMutability":"view"},{"type":"function","name":"customProfileData","inputs":[{"name":"_part","type":"uint256","internalType":"uint256"},{"name":"_mod","type":"uint256","internalType":"uint256"}],"outputs":[],"stateMutability":"nonpayable"},{"type":"function","name":"dataVerfificationUser","inputs":[{"name":"user","type":"address","internalType":"address"}],"outputs":[{"name":"timeStamp","type":"uint256","internalType":"uint256"},{"name":"points","type":"uint256","internalType":"uint256"},{"name":"level","type":"uint256","internalType":"uint256"}],"stateMutability":"view"},{"type":"function","name":"getApproved","inputs":[{"name":"tokenId","type":"uint256","internalType":"uint256"}],"outputs":[{"name":"","type":"address","internalType":"address"}],"stateMutability":"view"},{"type":"function","name":"getLevelOfUser","inputs":[{"name":"_user","type":"address","internalType":"address"}],"outputs":[{"name":"","type":"uint256","internalType":"uint256"}],"stateMutability":"view"},{"type":"function","name":"getPointsOfUser","inputs":[{"name":"_user","type":"address","internalType":"address"}],"outputs":[{"name":"","type":"uint256","internalType":"uint256"}],"stateMutability":"view"},{"type":"function","name":"getRoleAdmin","inputs":[{"name":"role","type":"bytes32","internalType":"bytes32"}],"outputs":[{"name":"","type":"bytes32","internalType":"bytes32"}],"stateMutability":"view"},{"type":"function","name":"getUserData","inputs":[{"name":"_user","type":"address","internalType":"address"}],"outputs":[{"name":"","type":"tuple","internalType":"struct RegisterSystem.verificationMetadata","components":[{"name":"timeStamp","type":"uint256","internalType":"uint256"},{"name":"points","type":"uint256","internalType":"uint256"},{"name":"level","type":"uint256","internalType":"uint256"}]}],"stateMutability":"view"},{"type":"function","name":"getUsername","inputs":[{"name":"_account","type":"address","internalType":"address"}],"outputs":[{"name":"","type":"string","internalType":"string"}],"stateMutability":"view"},{"type":"function","name":"grantRole","inputs":[{"name":"role","type":"bytes32","internalType":"bytes32"},{"name":"account","type":"address","internalType":"address"}],"outputs":[],"stateMutability":"nonpayable"},{"type":"function","name":"hasRole","inputs":[{"name":"role","type":"bytes32","internalType":"bytes32"},{"name":"account","type":"address","internalType":"address"}],"outputs":[{"name":"","type":"bool","internalType":"bool"}],"stateMutability":"view"},{"type":"function","name":"isApprovedForAll","inputs":[{"name":"owner","type":"address","internalType":"address"},{"name":"operator","type":"address","internalType":"address"}],"outputs":[{"name":"","type":"bool","internalType":"bool"}],"stateMutability":"view"},{"type":"function","name":"name","inputs":[],"outputs":[{"name":"","type":"string","internalType":"string"}],"stateMutability":"view"},{"type":"function","name":"ownerOf","inputs":[{"name":"tokenId","type":"uint256","internalType":"uint256"}],"outputs":[{"name":"","type":"address","internalType":"address"}],"stateMutability":"view"},{"type":"function","name":"removeAdmin","inputs":[{"name":"_admin","type":"address","internalType":"address"}],"outputs":[],"stateMutability":"nonpayable"},{"type":"function","name":"removeAttester","inputs":[{"name":"_attester","type":"address","internalType":"address"}],"outputs":[],"stateMutability":"nonpayable"},{"type":"function","name":"renounceRole","inputs":[{"name":"role","type":"bytes32","internalType":"bytes32"},{"name":"callerConfirmation","type":"address","internalType":"address"}],"outputs":[],"stateMutability":"nonpayable"},{"type":"function","name":"revokeRole","inputs":[{"name":"role","type":"bytes32","internalType":"bytes32"},{"name":"account","type":"address","internalType":"address"}],"outputs":[],"stateMutability":"nonpayable"},{"type":"function","name":"safeMint","inputs":[{"name":"to","type":"address","internalType":"address"},{"name":"_username","type":"string","internalType":"string"}],"outputs":[],"stateMutability":"nonpayable"},{"type":"function","name":"safeTransferFrom","inputs":[{"name":"from","type":"address","internalType":"address"},{"name":"to","type":"address","internalType":"address"},{"name":"tokenId","type":"uint256","internalType":"uint256"}],"outputs":[],"stateMutability":"nonpayable"},{"type":"function","name":"safeTransferFrom","inputs":[{"name":"from","type":"address","internalType":"address"},{"name":"to","type":"address","internalType":"address"},{"name":"tokenId","type":"uint256","internalType":"uint256"},{"name":"data","type":"bytes","internalType":"bytes"}],"outputs":[],"stateMutability":"nonpayable"},{"type":"function","name":"setAdmin","inputs":[{"name":"_admin","type":"address","internalType":"address"}],"outputs":[],"stateMutability":"nonpayable"},{"type":"function","name":"setApprovalForAll","inputs":[{"name":"operator","type":"address","internalType":"address"},{"name":"approved","type":"bool","internalType":"bool"}],"outputs":[],"stateMutability":"nonpayable"},{"type":"function","name":"setAttester","inputs":[{"name":"_attester","type":"address","internalType":"address"}],"outputs":[],"stateMutability":"nonpayable"},{"type":"function","name":"setPointsData","inputs":[{"name":"_points","type":"uint256","internalType":"uint256"},{"name":"_user","type":"address","internalType":"address"}],"outputs":[],"stateMutability":"nonpayable"},{"type":"function","name":"supportsInterface","inputs":[{"name":"interfaceId","type":"bytes4","internalType":"bytes4"}],"outputs":[{"name":"","type":"bool","internalType":"bool"}],"stateMutability":"view"},{"type":"function","name":"symbol","inputs":[],"outputs":[{"name":"","type":"string","internalType":"string"}],"stateMutability":"view"},{"type":"function","name":"tokenURI","inputs":[{"name":"tokenId","type":"uint256","internalType":"uint256"}],"outputs":[{"name":"","type":"string","internalType":"string"}],"stateMutability":"view"},{"type":"function","name":"transferFrom","inputs":[{"name":"from","type":"address","internalType":"address"},{"name":"to","type":"address","internalType":"address"},{"name":"tokenId","type":"uint256","internalType":"uint256"}],"outputs":[],"stateMutability":"nonpayable"},{"type":"function","name":"usernameRegistry","inputs":[{"name":"account","type":"address","internalType":"address"}],"outputs":[{"name":"username","type":"string","internalType":"string"}],"stateMutability":"view"},{"type":"event","name":"Approval","inputs":[{"name":"owner","type":"address","indexed":true,"internalType":"address"},{"name":"approved","type":"address","indexed":true,"internalType":"address"},{"name":"tokenId","type":"uint256","indexed":true,"internalType":"uint256"}],"anonymous":false},{"type":"event","name":"ApprovalForAll","inputs":[{"name":"owner","type":"address","indexed":true,"internalType":"address"},{"name":"operator","type":"address","indexed":true,"internalType":"address"},{"name":"approved","type":"bool","indexed":false,"internalType":"bool"}],"anonymous":false},{"type":"event","name":"RoleAdminChanged","inputs":[{"name":"role","type":"bytes32","indexed":true,"internalType":"bytes32"},{"name":"previousAdminRole","type":"bytes32","indexed":true,"internalType":"bytes32"},{"name":"newAdminRole","type":"bytes32","indexed":true,"internalType":"bytes32"}],"anonymous":false},{"type":"event","name":"RoleGranted","inputs":[{"name":"role","type":"bytes32","indexed":true,"internalType":"bytes32"},{"name":"account","type":"address","indexed":true,"internalType":"address"},{"name":"sender","type":"address","indexed":true,"internalType":"address"}],"anonymous":false},{"type":"event","name":"RoleRevoked","inputs":[{"name":"role","type":"bytes32","indexed":true,"internalType":"bytes32"},{"name":"account","type":"address","indexed":true,"internalType":"address"},{"name":"sender","type":"address","indexed":true,"internalType":"address"}],"anonymous":false},{"type":"event","name":"Transfer","inputs":[{"name":"from","type":"address","indexed":true,"internalType":"address"},{"name":"to","type":"address","indexed":true,"internalType":"address"},{"name":"tokenId","type":"uint256","indexed":true,"internalType":"uint256"}],"anonymous":false},{"type":"error","name":"AccessControlBadConfirmation","inputs":[]},{"type":"error","name":"AccessControlUnauthorizedAccount","inputs":[{"name":"account","type":"address","internalType":"address"},{"name":"neededRole","type":"bytes32","internalType":"bytes32"}]},{"type":"error","name":"ERC721IncorrectOwner","inputs":[{"name":"sender","type":"address","internalType":"address"},{"name":"tokenId","type":"uint256","internalType":"uint256"},{"name":"owner","type":"address","internalType":"address"}]},{"type":"error","name":"ERC721InsufficientApproval","inputs":[{"name":"operator","type":"address","internalType":"address"},{"name":"tokenId","type":"uint256","internalType":"uint256"}]},{"type":"error","name":"ERC721InvalidApprover","inputs":[{"name":"approver","type":"address","internalType":"address"}]},{"type":"error","name":"ERC721InvalidOperator","inputs":[{"name":"operator","type":"address","internalType":"address"}]},{"type":"error","name":"ERC721InvalidOwner","inputs":[{"name":"owner","type":"address","internalType":"address"}]},{"type":"error","name":"ERC721InvalidReceiver","inputs":[{"name":"receiver","type":"address","internalType":"address"}]},{"type":"error","name":"ERC721InvalidSender","inputs":[{"name":"sender","type":"address","internalType":"address"}]},{"type":"error","name":"ERC721NonexistentToken","inputs":[{"name":"tokenId","type":"uint256","internalType":"uint256"}]}],"bytecode":{"object":"0x608060405234801562000010575f80fd5b5060405162001de638038062001de683398101604081905262000033916200017b565b604051806040016040528060058152602001641411c8125160da1b81525060405180604001604052806005815260200164141288125160da1b815250815f90816200007f919062000248565b5060016200008e828262000248565b505050620000c37fa49807205ce4d355092ef5a8a18f56e8913cf4a201fbe287825b095693c2177582620000cb60201b60201c565b505062000314565b5f8281526006602090815260408083206001600160a01b038516845290915281205460ff1662000172575f8381526006602090815260408083206001600160a01b03861684529091529020805460ff19166001179055620001293390565b6001600160a01b0316826001600160a01b0316847f2f8788117e7eff1d82e926ec794901d17c78024a50270940304540a733656f0d60405160405180910390a450600162000175565b505f5b92915050565b5f602082840312156200018c575f80fd5b81516001600160a01b0381168114620001a3575f80fd5b9392505050565b634e487b7160e01b5f52604160045260245ffd5b600181811c90821680620001d357607f821691505b602082108103620001f257634e487b7160e01b5f52602260045260245ffd5b50919050565b601f8211156200024357805f5260205f20601f840160051c810160208510156200021f5750805b601f840160051c820191505b8181101562000240575f81556001016200022b565b50505b505050565b81516001600160401b03811115620002645762000264620001aa565b6200027c81620002758454620001be565b84620001f8565b602080601f831160018114620002b2575f84156200029a5750858301515b5f19600386901b1c1916600185901b1785556200030c565b5f85815260208120601f198616915b82811015620002e257888601518255948401946001909101908401620002c1565b50858210156200030057878501515f19600388901b60f8161c191681555b505060018460011b0185555b505050505050565b611ac480620003225f395ff3fe608060405234801561000f575f80fd5b5060043610610208575f3560e01c8063713947b71161011f578063ab2b231c116100a9578063ce43c03211610079578063ce43c032146104fc578063d204c45e1461050f578063d547741f14610522578063e985e9c514610535578063ffc9896b14610548575f80fd5b8063ab2b231c146104b0578063b88d4fde146104c3578063c87b56dd146104d6578063cc78fef1146104e9575f80fd5b806391d14854116100ef57806391d148541461046857806395d89b411461047b5780639daf85ab14610483578063a217fddf14610496578063a22cb4651461049d575f80fd5b8063713947b7146103ce57806375b238fc146103e1578063763dadca146103f55780639025d49a1461041f575f80fd5b80632f2ff15d116101a057806342842e0e1161017057806342842e0e1461035757806345e147a01461036a5780636352211e14610395578063704b6c02146103a857806370a08231146103bb575f80fd5b80632f2ff15d1461030a5780632f81bb581461031d57806336568abe14610331578063421cb26c14610344575f80fd5b80631785f53c116101db5780631785f53c1461028957806323b872dd1461029c578063248a9ca3146102af5780632be082a2146102df575f80fd5b806301ffc9a71461020c57806306fdde0314610234578063081812fc14610249578063095ea7b314610274575b5f80fd5b61021f61021a3660046114c1565b61057d565b60405190151581526020015b60405180910390f35b61023c61058d565b60405161022b9190611530565b61025c610257366004611542565b61061c565b6040516001600160a01b03909116815260200161022b565b610287610282366004611574565b610643565b005b61028761029736600461159c565b610652565b6102876102aa3660046115b5565b610685565b6102d16102bd366004611542565b5f9081526006602052604090206001015490565b60405190815260200161022b565b6102d16102ed36600461159c565b6001600160a01b03165f908152600a602052604090206001015490565b6102876103183660046115ee565b610713565b6102d15f80516020611a6f83398151915281565b61028761033f3660046115ee565b610737565b610287610352366004611618565b61076a565b6102876103653660046115b5565b6107d2565b6102d161037836600461159c565b6001600160a01b03165f908152600a602052604090206002015490565b61025c6103a3366004611542565b6107ec565b6102876103b636600461159c565b6107f6565b6102d16103c936600461159c565b610824565b61023c6103dc36600461159c565b610869565b6102d15f805160206119f683398151915281565b6102d1610403366004611574565b600960209081525f928352604080842090915290825290205481565b61044d61042d36600461159c565b600a6020525f908152604090208054600182015460029092015490919083565b6040805193845260208401929092529082015260600161022b565b61021f6104763660046115ee565b610900565b61023c61092a565b61028761049136600461159c565b610939565b6102d15f81565b6102876104ab366004611638565b610967565b6102876104be3660046115ee565b610972565b6102876104d13660046116f8565b610afd565b61023c6104e4366004611542565b610b14565b6102876104f736600461159c565b610b28565b61023c61050a36600461159c565b610b56565b61028761051d36600461176f565b610bff565b6102876105303660046115ee565b610c6d565b61021f6105433660046117cd565b610c91565b61055b61055636600461159c565b610cbe565b604080518251815260208084015190820152918101519082015260600161022b565b5f61058782610d20565b92915050565b60605f805461059b906117f5565b80601f01602080910402602001604051908101604052809291908181526020018280546105c7906117f5565b80156106125780601f106105e957610100808354040283529160200191610612565b820191905f5260205f20905b8154815290600101906020018083116105f557829003601f168201915b5050505050905090565b5f61062682610d44565b505f828152600460205260409020546001600160a01b0316610587565b61064e828233610d7c565b5050565b5f805160206119f683398151915261066981610d89565b6106805f805160206119f683398151915283610d96565b505050565b6001600160a01b0382166106b357604051633250574960e11b81525f60048201526024015b60405180910390fd5b5f6106bf838333610e08565b9050836001600160a01b0316816001600160a01b03161461070d576040516364283d7b60e01b81526001600160a01b03808616600483015260248201849052821660448201526064016106aa565b50505050565b5f8281526006602052604090206001015461072d81610d89565b61070d8383610efa565b6001600160a01b03811633146107605760405163334bd91960e11b815260040160405180910390fd5b6106808282610d96565b60048210610776575f80fd5b816003036107b457335f908152600a6020526040902060020154811161020857335f9081526009602090815260408083209483529390529190912055565b335f9081526009602090815260408083209483529390529190912055565b61068083838360405180602001604052805f815250610afd565b5f61058782610d44565b5f805160206119f683398151915261080d81610d89565b6106805f805160206119f683398151915283610efa565b5f6001600160a01b03821661084e576040516322718ad960e21b81525f60048201526024016106aa565b506001600160a01b03165f9081526003602052604090205490565b60086020525f908152604090208054610881906117f5565b80601f01602080910402602001604051908101604052809291908181526020018280546108ad906117f5565b80156108f85780601f106108cf576101008083540402835291602001916108f8565b820191905f5260205f20905b8154815290600101906020018083116108db57829003601f168201915b505050505081565b5f9182526006602090815260408084206001600160a01b0393909316845291905290205460ff1690565b60606001805461059b906117f5565b5f805160206119f683398151915261095081610d89565b6106805f80516020611a6f83398151915283610efa565b61064e338383610f84565b5f80516020611a6f83398151915261098981610d89565b6001600160a01b0382165f908152600a6020526040812060010180548592906109b3908490611841565b9091555050600a831180156109c85750601e83105b156109f1576001600160a01b0382165f908152600a602052604090206001600290910155610ae7565b601e8310158015610a025750604b83105b15610a29576001600160a01b0382165f908152600a60205260409020600290810155610ae7565b604b8310158015610a3a5750609683105b15610a63576001600160a01b0382165f908152600a602052604090206003600290910155610ae7565b60968310158015610a75575061012c83105b15610a9e576001600160a01b0382165f908152600a602052604090206004600290910155610ae7565b61012c8310610acb576001600160a01b0382165f908152600a602052604090206005600290910155610ae7565b6001600160a01b0382165f908152600a60205260408120600201555b5050335f908152600a6020526040902042905550565b610b08848484610685565b61070d84848484611022565b6060610b1f82610d44565b50610587611148565b5f805160206119f6833981519152610b3f81610d89565b6106805f80516020611a6f83398151915283610d96565b6001600160a01b0381165f908152600860205260409020805460609190610b7c906117f5565b80601f0160208091040260200160405190810160405280929190818152602001828054610ba8906117f5565b8015610bf35780601f10610bca57610100808354040283529160200191610bf3565b820191905f5260205f20905b815481529060010190602001808311610bd657829003601f168201915b50505050509050919050565b600780545f9182610c0f83611854565b919050559050610c1f8382611168565b604080516060810182524281525f60208083018281528385018381526001600160a01b0389168452600a90925293909120915182559151600182015590516002909101556106808284611181565b5f82815260066020526040902060010154610c8781610d89565b61070d8383610d96565b6001600160a01b039182165f90815260056020908152604080832093909416825291909152205460ff1690565b610cdf60405180606001604052805f81526020015f81526020015f81525090565b506001600160a01b03165f908152600a6020908152604091829020825160608101845281548152600182015492810192909252600201549181019190915290565b5f6001600160e01b03198216637965db0b60e01b14806105875750610587826111e1565b5f818152600260205260408120546001600160a01b03168061058757604051637e27328960e01b8152600481018490526024016106aa565b6106808383836001611230565b610d938133611334565b50565b5f610da18383610900565b15610e01575f8381526006602090815260408083206001600160a01b0386168085529252808320805460ff1916905551339286917ff6391f5c32d9c69d2a47ea670b442974b53935d1edc7fd64eb21e047a839171b9190a4506001610587565b505f610587565b5f828152600260205260408120546001600160a01b0390811690831615610e3457610e3481848661136d565b6001600160a01b03811615610e6e57610e4f5f855f80611230565b6001600160a01b0381165f90815260036020526040902080545f190190555b6001600160a01b03851615610e9c576001600160a01b0385165f908152600360205260409020805460010190555b5f8481526002602052604080822080546001600160a01b0319166001600160a01b0389811691821790925591518793918516917fddf252ad1be2c89b69c2b068fc378daa952ba7f163c4a11628f55a4df523b3ef91a4949350505050565b5f610f058383610900565b610e01575f8381526006602090815260408083206001600160a01b03861684529091529020805460ff19166001179055610f3c3390565b6001600160a01b0316826001600160a01b0316847f2f8788117e7eff1d82e926ec794901d17c78024a50270940304540a733656f0d60405160405180910390a4506001610587565b6001600160a01b038216610fb657604051630b61174360e31b81526001600160a01b03831660048201526024016106aa565b6001600160a01b038381165f81815260056020908152604080832094871680845294825291829020805460ff191686151590811790915591519182527f17307eab39ab6107e8899845ad3d59bd9653f200f220920489ca2b5937696c31910160405180910390a3505050565b6001600160a01b0383163b1561070d57604051630a85bd0160e11b81526001600160a01b0384169063150b7a029061106490339088908790879060040161186c565b6020604051808303815f875af192505050801561109e575060408051601f3d908101601f1916820190925261109b918101906118a8565b60015b611105573d8080156110cb576040519150601f19603f3d011682016040523d82523d5f602084013e6110d0565b606091505b5080515f036110fd57604051633250574960e11b81526001600160a01b03851660048201526024016106aa565b805181602001fd5b6001600160e01b03198116630a85bd0160e11b1461114157604051633250574960e11b81526001600160a01b03851660048201526024016106aa565b5050505050565b6060604051806080016040528060598152602001611a1660599139905090565b61064e828260405180602001604052805f8152506113d1565b81604051806040016040528060068152602001650b9c1a8b9a5960d21b8152506040516020016111b29291906118c3565b60408051601f198184030181529181526001600160a01b0383165f908152600860205220906106809082611935565b5f6001600160e01b031982166380ac58cd60e01b148061121157506001600160e01b03198216635b5e139f60e01b145b8061058757506301ffc9a760e01b6001600160e01b0319831614610587565b808061124457506001600160a01b03821615155b15611305575f61125384610d44565b90506001600160a01b0383161580159061127f5750826001600160a01b0316816001600160a01b031614155b801561129257506112908184610c91565b155b156112bb5760405163a9fbf51f60e01b81526001600160a01b03841660048201526024016106aa565b81156113035783856001600160a01b0316826001600160a01b03167f8c5be1e5ebec7d5bd14f71427d1e84f3dd0314c0f7b2291e5b200ac8c7c3b92560405160405180910390a45b505b50505f90815260046020526040902080546001600160a01b0319166001600160a01b0392909216919091179055565b61133e8282610900565b61064e5760405163e2517d3f60e01b81526001600160a01b0382166004820152602481018390526044016106aa565b6113788383836113e7565b610680576001600160a01b0383166113a657604051637e27328960e01b8152600481018290526024016106aa565b60405163177e802f60e01b81526001600160a01b0383166004820152602481018290526044016106aa565b6113db838361144b565b6106805f848484611022565b5f6001600160a01b038316158015906114435750826001600160a01b0316846001600160a01b0316148061142057506114208484610c91565b8061144357505f828152600460205260409020546001600160a01b038481169116145b949350505050565b6001600160a01b03821661147457604051633250574960e11b81525f60048201526024016106aa565b5f61148083835f610e08565b90506001600160a01b03811615610680576040516339e3563760e11b81525f60048201526024016106aa565b6001600160e01b031981168114610d93575f80fd5b5f602082840312156114d1575f80fd5b81356114dc816114ac565b9392505050565b5f5b838110156114fd5781810151838201526020016114e5565b50505f910152565b5f815180845261151c8160208601602086016114e3565b601f01601f19169290920160200192915050565b602081525f6114dc6020830184611505565b5f60208284031215611552575f80fd5b5035919050565b80356001600160a01b038116811461156f575f80fd5b919050565b5f8060408385031215611585575f80fd5b61158e83611559565b946020939093013593505050565b5f602082840312156115ac575f80fd5b6114dc82611559565b5f805f606084860312156115c7575f80fd5b6115d084611559565b92506115de60208501611559565b9150604084013590509250925092565b5f80604083850312156115ff575f80fd5b8235915061160f60208401611559565b90509250929050565b5f8060408385031215611629575f80fd5b50508035926020909101359150565b5f8060408385031215611649575f80fd5b61165283611559565b915060208301358015158114611666575f80fd5b809150509250929050565b634e487b7160e01b5f52604160045260245ffd5b5f67ffffffffffffffff8084111561169f5761169f611671565b604051601f8501601f19908116603f011681019082821181831017156116c7576116c7611671565b816040528093508581528686860111156116df575f80fd5b858560208301375f602087830101525050509392505050565b5f805f806080858703121561170b575f80fd5b61171485611559565b935061172260208601611559565b925060408501359150606085013567ffffffffffffffff811115611744575f80fd5b8501601f81018713611754575f80fd5b61176387823560208401611685565b91505092959194509250565b5f8060408385031215611780575f80fd5b61178983611559565b9150602083013567ffffffffffffffff8111156117a4575f80fd5b8301601f810185136117b4575f80fd5b6117c385823560208401611685565b9150509250929050565b5f80604083850312156117de575f80fd5b6117e783611559565b915061160f60208401611559565b600181811c9082168061180957607f821691505b60208210810361182757634e487b7160e01b5f52602260045260245ffd5b50919050565b634e487b7160e01b5f52601160045260245ffd5b808201808211156105875761058761182d565b5f600182016118655761186561182d565b5060010190565b6001600160a01b03858116825284166020820152604081018390526080606082018190525f9061189e90830184611505565b9695505050505050565b5f602082840312156118b8575f80fd5b81516114dc816114ac565b5f83516118d48184602088016114e3565b8351908301906118e88183602088016114e3565b01949350505050565b601f82111561068057805f5260205f20601f840160051c810160208510156119165750805b601f840160051c820191505b81811015611141575f8155600101611922565b815167ffffffffffffffff81111561194f5761194f611671565b6119638161195d84546117f5565b846118f1565b602080601f831160018114611996575f841561197f5750858301515b5f19600386901b1c1916600185901b1785556119ed565b5f85815260208120601f198616915b828110156119c4578886015182559484019460019091019084016119a5565b50858210156119e157878501515f19600388901b60f8161c191681555b505060018460011b0185555b50505050505056fea49807205ce4d355092ef5a8a18f56e8913cf4a201fbe287825b095693c2177568747470733a2f2f6261666b726569687776777065676b673764376b6f326534787a6934767535767334353372377533647a33636e6b796d6d7a706a78746a697967692e697066732e6e667473746f726167652e6c696e6b2fca77cd8f9856ef5fcd36f6b15bf469fe216c2f9114f60dd031f0a2b97b67aaa9a2646970667358221220d74f0a9b8d00ffa92558f19ccbe71c91c0e1cb0960028435489e01cbae9a5e2a64736f6c63430008180033","linkReferences":{}},"methodIdentifiers":{"ADMIN_ROLE()":"75b238fc","ATTESTER_ROLE()":"2f81bb58","DEFAULT_ADMIN_ROLE()":"a217fddf","approve(address,uint256)":"095ea7b3","balanceOf(address)":"70a08231","boddyOfProfile(address,uint256)":"763dadca","customProfileData(uint256,uint256)":"421cb26c","dataVerfificationUser(address)":"9025d49a","getApproved(uint256)":"081812fc","getLevelOfUser(address)":"45e147a0","getPointsOfUser(address)":"2be082a2","getRoleAdmin(bytes32)":"248a9ca3","getUserData(address)":"ffc9896b","getUsername(address)":"ce43c032","grantRole(bytes32,address)":"2f2ff15d","hasRole(bytes32,address)":"91d14854","isApprovedForAll(address,address)":"e985e9c5","name()":"06fdde03","ownerOf(uint256)":"6352211e","removeAdmin(address)":"1785f53c","removeAttester(address)":"cc78fef1","renounceRole(bytes32,address)":"36568abe","revokeRole(bytes32,address)":"d547741f","safeMint(address,string)":"d204c45e","safeTransferFrom(address,address,uint256)":"42842e0e","safeTransferFrom(address,address,uint256,bytes)":"b88d4fde","setAdmin(address)":"704b6c02","setApprovalForAll(address,bool)":"a22cb465","setAttester(address)":"9daf85ab","setPointsData(uint256,address)":"ab2b231c","supportsInterface(bytes4)":"01ffc9a7","symbol()":"95d89b41","tokenURI(uint256)":"c87b56dd","transferFrom(address,address,uint256)":"23b872dd","usernameRegistry(address)":"713947b7"},"id":89}