{"abi":[{"type":"constructor","inputs":[{"name":"admin","type":"address","internalType":"address"}],"stateMutability":"nonpayable"},{"type":"function","name":"ADMIN_ROLE","inputs":[],"outputs":[{"name":"","type":"bytes32","internalType":"bytes32"}],"stateMutability":"view"},{"type":"function","name":"ATTESTER_ROLE","inputs":[],"outputs":[{"name":"","type":"bytes32","internalType":"bytes32"}],"stateMutability":"view"},{"type":"function","name":"DEFAULT_ADMIN_ROLE","inputs":[],"outputs":[{"name":"","type":"bytes32","internalType":"bytes32"}],"stateMutability":"view"},{"type":"function","name":"approve","inputs":[{"name":"to","type":"address","internalType":"address"},{"name":"tokenId","type":"uint256","internalType":"uint256"}],"outputs":[],"stateMutability":"nonpayable"},{"type":"function","name":"balanceOf","inputs":[{"name":"owner","type":"address","internalType":"address"}],"outputs":[{"name":"","type":"uint256","internalType":"uint256"}],"stateMutability":"view"},{"type":"function","name":"boddyOfProfile","inputs":[{"name":"user","type":"address","internalType":"address"},{"name":"parts","type":"uint256","internalType":"uint256"}],"outputs":[{"name":"mod","type":"uint256","internalType":"uint256"}],"stateMutability":"view"},{"type":"function","name":"customProfileData","inputs":[{"name":"_part","type":"uint256","internalType":"uint256"},{"name":"_mod","type":"uint256","internalType":"uint256"}],"outputs":[],"stateMutability":"nonpayable"},{"type":"function","name":"dataVerfificationUser","inputs":[{"name":"user","type":"address","internalType":"address"}],"outputs":[{"name":"timeStamp","type":"uint256","internalType":"uint256"},{"name":"points","type":"uint256","internalType":"uint256"},{"name":"level","type":"uint256","internalType":"uint256"}],"stateMutability":"view"},{"type":"function","name":"getApproved","inputs":[{"name":"tokenId","type":"uint256","internalType":"uint256"}],"outputs":[{"name":"","type":"address","internalType":"address"}],"stateMutability":"view"},{"type":"function","name":"getLevelOfUser","inputs":[{"name":"_user","type":"address","internalType":"address"}],"outputs":[{"name":"","type":"uint256","internalType":"uint256"}],"stateMutability":"view"},{"type":"function","name":"getPointsOfUser","inputs":[{"name":"_user","type":"address","internalType":"address"}],"outputs":[{"name":"","type":"uint256","internalType":"uint256"}],"stateMutability":"view"},{"type":"function","name":"getRoleAdmin","inputs":[{"name":"role","type":"bytes32","internalType":"bytes32"}],"outputs":[{"name":"","type":"bytes32","internalType":"bytes32"}],"stateMutability":"view"},{"type":"function","name":"getUserData","inputs":[{"name":"_user","type":"address","internalType":"address"}],"outputs":[{"name":"","type":"tuple","internalType":"struct RegisterSystem.verificationMetadata","components":[{"name":"timeStamp","type":"uint256","internalType":"uint256"},{"name":"points","type":"uint256","internalType":"uint256"},{"name":"level","type":"uint256","internalType":"uint256"}]}],"stateMutability":"view"},{"type":"function","name":"getUsername","inputs":[{"name":"_account","type":"address","internalType":"address"}],"outputs":[{"name":"","type":"string","internalType":"string"}],"stateMutability":"view"},{"type":"function","name":"grantRole","inputs":[{"name":"role","type":"bytes32","internalType":"bytes32"},{"name":"account","type":"address","internalType":"address"}],"outputs":[],"stateMutability":"nonpayable"},{"type":"function","name":"hasRole","inputs":[{"name":"role","type":"bytes32","internalType":"bytes32"},{"name":"account","type":"address","internalType":"address"}],"outputs":[{"name":"","type":"bool","internalType":"bool"}],"stateMutability":"view"},{"type":"function","name":"isApprovedForAll","inputs":[{"name":"owner","type":"address","internalType":"address"},{"name":"operator","type":"address","internalType":"address"}],"outputs":[{"name":"","type":"bool","internalType":"bool"}],"stateMutability":"view"},{"type":"function","name":"name","inputs":[],"outputs":[{"name":"","type":"string","internalType":"string"}],"stateMutability":"view"},{"type":"function","name":"ownerOf","inputs":[{"name":"tokenId","type":"uint256","internalType":"uint256"}],"outputs":[{"name":"","type":"address","internalType":"address"}],"stateMutability":"view"},{"type":"function","name":"registerUsername","inputs":[{"name":"_username","type":"string","internalType":"string"}],"outputs":[],"stateMutability":"nonpayable"},{"type":"function","name":"removeAdmin","inputs":[{"name":"_admin","type":"address","internalType":"address"}],"outputs":[],"stateMutability":"nonpayable"},{"type":"function","name":"removeAttester","inputs":[{"name":"_attester","type":"address","internalType":"address"}],"outputs":[],"stateMutability":"nonpayable"},{"type":"function","name":"renounceRole","inputs":[{"name":"role","type":"bytes32","internalType":"bytes32"},{"name":"callerConfirmation","type":"address","internalType":"address"}],"outputs":[],"stateMutability":"nonpayable"},{"type":"function","name":"revokeRole","inputs":[{"name":"role","type":"bytes32","internalType":"bytes32"},{"name":"account","type":"address","internalType":"address"}],"outputs":[],"stateMutability":"nonpayable"},{"type":"function","name":"safeMint","inputs":[],"outputs":[],"stateMutability":"nonpayable"},{"type":"function","name":"safeTransferFrom","inputs":[{"name":"from","type":"address","internalType":"address"},{"name":"to","type":"address","internalType":"address"},{"name":"tokenId","type":"uint256","internalType":"uint256"}],"outputs":[],"stateMutability":"nonpayable"},{"type":"function","name":"safeTransferFrom","inputs":[{"name":"from","type":"address","internalType":"address"},{"name":"to","type":"address","internalType":"address"},{"name":"tokenId","type":"uint256","internalType":"uint256"},{"name":"data","type":"bytes","internalType":"bytes"}],"outputs":[],"stateMutability":"nonpayable"},{"type":"function","name":"setAdmin","inputs":[{"name":"_admin","type":"address","internalType":"address"}],"outputs":[],"stateMutability":"nonpayable"},{"type":"function","name":"setApprovalForAll","inputs":[{"name":"operator","type":"address","internalType":"address"},{"name":"approved","type":"bool","internalType":"bool"}],"outputs":[],"stateMutability":"nonpayable"},{"type":"function","name":"setAttester","inputs":[{"name":"_attester","type":"address","internalType":"address"}],"outputs":[],"stateMutability":"nonpayable"},{"type":"function","name":"setPointsData","inputs":[{"name":"_points","type":"uint256","internalType":"uint256"},{"name":"_user","type":"address","internalType":"address"}],"outputs":[],"stateMutability":"nonpayable"},{"type":"function","name":"supportsInterface","inputs":[{"name":"interfaceId","type":"bytes4","internalType":"bytes4"}],"outputs":[{"name":"","type":"bool","internalType":"bool"}],"stateMutability":"view"},{"type":"function","name":"symbol","inputs":[],"outputs":[{"name":"","type":"string","internalType":"string"}],"stateMutability":"view"},{"type":"function","name":"tokenURI","inputs":[{"name":"tokenId","type":"uint256","internalType":"uint256"}],"outputs":[{"name":"","type":"string","internalType":"string"}],"stateMutability":"view"},{"type":"function","name":"transferFrom","inputs":[{"name":"from","type":"address","internalType":"address"},{"name":"to","type":"address","internalType":"address"},{"name":"tokenId","type":"uint256","internalType":"uint256"}],"outputs":[],"stateMutability":"nonpayable"},{"type":"function","name":"usernameRegistry","inputs":[{"name":"account","type":"address","internalType":"address"}],"outputs":[{"name":"username","type":"string","internalType":"string"}],"stateMutability":"view"},{"type":"event","name":"Approval","inputs":[{"name":"owner","type":"address","indexed":true,"internalType":"address"},{"name":"approved","type":"address","indexed":true,"internalType":"address"},{"name":"tokenId","type":"uint256","indexed":true,"internalType":"uint256"}],"anonymous":false},{"type":"event","name":"ApprovalForAll","inputs":[{"name":"owner","type":"address","indexed":true,"internalType":"address"},{"name":"operator","type":"address","indexed":true,"internalType":"address"},{"name":"approved","type":"bool","indexed":false,"internalType":"bool"}],"anonymous":false},{"type":"event","name":"RoleAdminChanged","inputs":[{"name":"role","type":"bytes32","indexed":true,"internalType":"bytes32"},{"name":"previousAdminRole","type":"bytes32","indexed":true,"internalType":"bytes32"},{"name":"newAdminRole","type":"bytes32","indexed":true,"internalType":"bytes32"}],"anonymous":false},{"type":"event","name":"RoleGranted","inputs":[{"name":"role","type":"bytes32","indexed":true,"internalType":"bytes32"},{"name":"account","type":"address","indexed":true,"internalType":"address"},{"name":"sender","type":"address","indexed":true,"internalType":"address"}],"anonymous":false},{"type":"event","name":"RoleRevoked","inputs":[{"name":"role","type":"bytes32","indexed":true,"internalType":"bytes32"},{"name":"account","type":"address","indexed":true,"internalType":"address"},{"name":"sender","type":"address","indexed":true,"internalType":"address"}],"anonymous":false},{"type":"event","name":"Transfer","inputs":[{"name":"from","type":"address","indexed":true,"internalType":"address"},{"name":"to","type":"address","indexed":true,"internalType":"address"},{"name":"tokenId","type":"uint256","indexed":true,"internalType":"uint256"}],"anonymous":false},{"type":"error","name":"AccessControlBadConfirmation","inputs":[]},{"type":"error","name":"AccessControlUnauthorizedAccount","inputs":[{"name":"account","type":"address","internalType":"address"},{"name":"neededRole","type":"bytes32","internalType":"bytes32"}]},{"type":"error","name":"ERC721IncorrectOwner","inputs":[{"name":"sender","type":"address","internalType":"address"},{"name":"tokenId","type":"uint256","internalType":"uint256"},{"name":"owner","type":"address","internalType":"address"}]},{"type":"error","name":"ERC721InsufficientApproval","inputs":[{"name":"operator","type":"address","internalType":"address"},{"name":"tokenId","type":"uint256","internalType":"uint256"}]},{"type":"error","name":"ERC721InvalidApprover","inputs":[{"name":"approver","type":"address","internalType":"address"}]},{"type":"error","name":"ERC721InvalidOperator","inputs":[{"name":"operator","type":"address","internalType":"address"}]},{"type":"error","name":"ERC721InvalidOwner","inputs":[{"name":"owner","type":"address","internalType":"address"}]},{"type":"error","name":"ERC721InvalidReceiver","inputs":[{"name":"receiver","type":"address","internalType":"address"}]},{"type":"error","name":"ERC721InvalidSender","inputs":[{"name":"sender","type":"address","internalType":"address"}]},{"type":"error","name":"ERC721NonexistentToken","inputs":[{"name":"tokenId","type":"uint256","internalType":"uint256"}]}],"bytecode":{"object":"0x608060405234801562000010575f80fd5b5060405162001dc738038062001dc783398101604081905262000033916200017b565b604051806040016040528060058152602001641411c8125160da1b81525060405180604001604052806005815260200164141288125160da1b815250815f90816200007f919062000248565b5060016200008e828262000248565b505050620000c37fa49807205ce4d355092ef5a8a18f56e8913cf4a201fbe287825b095693c2177582620000cb60201b60201c565b505062000314565b5f8281526006602090815260408083206001600160a01b038516845290915281205460ff1662000172575f8381526006602090815260408083206001600160a01b03861684529091529020805460ff19166001179055620001293390565b6001600160a01b0316826001600160a01b0316847f2f8788117e7eff1d82e926ec794901d17c78024a50270940304540a733656f0d60405160405180910390a450600162000175565b505f5b92915050565b5f602082840312156200018c575f80fd5b81516001600160a01b0381168114620001a3575f80fd5b9392505050565b634e487b7160e01b5f52604160045260245ffd5b600181811c90821680620001d357607f821691505b602082108103620001f257634e487b7160e01b5f52602260045260245ffd5b50919050565b601f8211156200024357805f5260205f20601f840160051c810160208510156200021f5750805b601f840160051c820191505b8181101562000240575f81556001016200022b565b50505b505050565b81516001600160401b03811115620002645762000264620001aa565b6200027c81620002758454620001be565b84620001f8565b602080601f831160018114620002b2575f84156200029a5750858301515b5f19600386901b1c1916600185901b1785556200030c565b5f85815260208120601f198616915b82811015620002e257888601518255948401946001909101908401620002c1565b50858210156200030057878501515f19600388901b60f8161c191681555b505060018460011b0185555b505050505050565b611aa580620003225f395ff3fe608060405234801561000f575f80fd5b5060043610610213575f3560e01c806370a082311161011f578063a22cb465116100a9578063cc78fef111610079578063cc78fef11461050f578063ce43c03214610522578063d547741f14610535578063e985e9c514610548578063ffc9896b1461055b575f80fd5b8063a22cb465146104c3578063ab2b231c146104d6578063b88d4fde146104e9578063c87b56dd146104fc575f80fd5b80639025d49a116100ef5780639025d49a1461044557806391d148541461048e57806395d89b41146104a15780639daf85ab146104a9578063a217fddf146104bc575f80fd5b806370a08231146103e1578063713947b7146103f457806375b238fc14610407578063763dadca1461041b575f80fd5b80632f81bb58116101a057806342842e0e1161017057806342842e0e1461037557806345e147a0146103885780636352211e146103b35780636871ee40146103c6578063704b6c02146103ce575f80fd5b80632f81bb581461032857806336568abe1461033c57806336a941341461034f578063421cb26c14610362575f80fd5b80631785f53c116101e65780631785f53c1461029457806323b872dd146102a7578063248a9ca3146102ba5780632be082a2146102ea5780632f2ff15d14610315575f80fd5b806301ffc9a71461021757806306fdde031461023f578063081812fc14610254578063095ea7b31461027f575b5f80fd5b61022a6102253660046114bb565b610590565b60405190151581526020015b60405180910390f35b6102476105a0565b604051610236919061152a565b61026761026236600461153c565b61062f565b6040516001600160a01b039091168152602001610236565b61029261028d36600461156e565b610656565b005b6102926102a2366004611596565b610665565b6102926102b53660046115af565b610698565b6102dc6102c836600461153c565b5f9081526006602052604090206001015490565b604051908152602001610236565b6102dc6102f8366004611596565b6001600160a01b03165f908152600a602052604090206001015490565b6102926103233660046115e8565b610726565b6102dc5f80516020611a5083398151915281565b61029261034a3660046115e8565b61074a565b61029261035d366004611699565b61077d565b6102926103703660046116de565b6107d4565b6102926103833660046115af565b61083c565b6102dc610396366004611596565b6001600160a01b03165f908152600a602052604090206002015490565b6102676103c136600461153c565b610856565b610292610860565b6102926103dc366004611596565b6108be565b6102dc6103ef366004611596565b6108ec565b610247610402366004611596565b610931565b6102dc5f805160206119d783398151915281565b6102dc61042936600461156e565b600960209081525f928352604080842090915290825290205481565b610473610453366004611596565b600a6020525f908152604090208054600182015460029092015490919083565b60408051938452602084019290925290820152606001610236565b61022a61049c3660046115e8565b6109c8565b6102476109f2565b6102926104b7366004611596565b610a01565b6102dc5f81565b6102926104d13660046116fe565b610a2f565b6102926104e43660046115e8565b610a3a565b6102926104f7366004611737565b610bc5565b61024761050a36600461153c565b610bdc565b61029261051d366004611596565b610bf0565b610247610530366004611596565b610c1e565b6102926105433660046115e8565b610cc7565b61022a6105563660046117ae565b610ceb565b61056e610569366004611596565b610d18565b6040805182518152602080840151908201529181015190820152606001610236565b5f61059a82610d7a565b92915050565b60605f80546105ae906117d6565b80601f01602080910402602001604051908101604052809291908181526020018280546105da906117d6565b80156106255780601f106105fc57610100808354040283529160200191610625565b820191905f5260205f20905b81548152906001019060200180831161060857829003601f168201915b5050505050905090565b5f61063982610d9e565b505f828152600460205260409020546001600160a01b031661059a565b610661828233610dd6565b5050565b5f805160206119d783398151915261067c81610de3565b6106935f805160206119d783398151915283610df0565b505050565b6001600160a01b0382166106c657604051633250574960e11b81525f60048201526024015b60405180910390fd5b5f6106d2838333610e62565b9050836001600160a01b0316816001600160a01b031614610720576040516364283d7b60e01b81526001600160a01b03808616600483015260248201849052821660448201526064016106bd565b50505050565b5f8281526006602052604090206001015461074081610de3565b6107208383610f54565b6001600160a01b03811633146107735760405163334bd91960e11b815260040160405180910390fd5b6106938282610df0565b80604051806040016040528060068152602001650b9c1a8b9a5960d21b8152506040516020016107ae92919061180e565b60408051601f19818403018152918152335f908152600860205220906106619082611880565b600482106107e0575f80fd5b8160030361081e57335f908152600a6020526040902060020154811161021357335f9081526009602090815260408083209483529390529190912055565b335f9081526009602090815260408083209483529390529190912055565b61069383838360405180602001604052805f815250610bc5565b5f61059a82610d9e565b600780545f918261087083611954565b9190505590506108803382610fde565b50604080516060810182524281525f6020808301828152838501838152338452600a9092529390912091518255915160018201559051600290910155565b5f805160206119d78339815191526108d581610de3565b6106935f805160206119d783398151915283610f54565b5f6001600160a01b038216610916576040516322718ad960e21b81525f60048201526024016106bd565b506001600160a01b03165f9081526003602052604090205490565b60086020525f908152604090208054610949906117d6565b80601f0160208091040260200160405190810160405280929190818152602001828054610975906117d6565b80156109c05780601f10610997576101008083540402835291602001916109c0565b820191905f5260205f20905b8154815290600101906020018083116109a357829003601f168201915b505050505081565b5f9182526006602090815260408084206001600160a01b0393909316845291905290205460ff1690565b6060600180546105ae906117d6565b5f805160206119d7833981519152610a1881610de3565b6106935f80516020611a5083398151915283610f54565b610661338383610ff7565b5f80516020611a50833981519152610a5181610de3565b6001600160a01b0382165f908152600a602052604081206001018054859290610a7b90849061196c565b9091555050600a83118015610a905750601e83105b15610ab9576001600160a01b0382165f908152600a602052604090206001600290910155610baf565b601e8310158015610aca5750604b83105b15610af1576001600160a01b0382165f908152600a60205260409020600290810155610baf565b604b8310158015610b025750609683105b15610b2b576001600160a01b0382165f908152600a602052604090206003600290910155610baf565b60968310158015610b3d575061012c83105b15610b66576001600160a01b0382165f908152600a602052604090206004600290910155610baf565b61012c8310610b93576001600160a01b0382165f908152600a602052604090206005600290910155610baf565b6001600160a01b0382165f908152600a60205260408120600201555b5050335f908152600a6020526040902042905550565b610bd0848484610698565b61072084848484611095565b6060610be782610d9e565b5061059a6111bb565b5f805160206119d7833981519152610c0781610de3565b6106935f80516020611a5083398151915283610df0565b6001600160a01b0381165f908152600860205260409020805460609190610c44906117d6565b80601f0160208091040260200160405190810160405280929190818152602001828054610c70906117d6565b8015610cbb5780601f10610c9257610100808354040283529160200191610cbb565b820191905f5260205f20905b815481529060010190602001808311610c9e57829003601f168201915b50505050509050919050565b5f82815260066020526040902060010154610ce181610de3565b6107208383610df0565b6001600160a01b039182165f90815260056020908152604080832093909416825291909152205460ff1690565b610d3960405180606001604052805f81526020015f81526020015f81525090565b506001600160a01b03165f908152600a6020908152604091829020825160608101845281548152600182015492810192909252600201549181019190915290565b5f6001600160e01b03198216637965db0b60e01b148061059a575061059a826111db565b5f818152600260205260408120546001600160a01b03168061059a57604051637e27328960e01b8152600481018490526024016106bd565b610693838383600161122a565b610ded813361132e565b50565b5f610dfb83836109c8565b15610e5b575f8381526006602090815260408083206001600160a01b0386168085529252808320805460ff1916905551339286917ff6391f5c32d9c69d2a47ea670b442974b53935d1edc7fd64eb21e047a839171b9190a450600161059a565b505f61059a565b5f828152600260205260408120546001600160a01b0390811690831615610e8e57610e8e818486611367565b6001600160a01b03811615610ec857610ea95f855f8061122a565b6001600160a01b0381165f90815260036020526040902080545f190190555b6001600160a01b03851615610ef6576001600160a01b0385165f908152600360205260409020805460010190555b5f8481526002602052604080822080546001600160a01b0319166001600160a01b0389811691821790925591518793918516917fddf252ad1be2c89b69c2b068fc378daa952ba7f163c4a11628f55a4df523b3ef91a4949350505050565b5f610f5f83836109c8565b610e5b575f8381526006602090815260408083206001600160a01b03861684529091529020805460ff19166001179055610f963390565b6001600160a01b0316826001600160a01b0316847f2f8788117e7eff1d82e926ec794901d17c78024a50270940304540a733656f0d60405160405180910390a450600161059a565b610661828260405180602001604052805f8152506113cb565b6001600160a01b03821661102957604051630b61174360e31b81526001600160a01b03831660048201526024016106bd565b6001600160a01b038381165f81815260056020908152604080832094871680845294825291829020805460ff191686151590811790915591519182527f17307eab39ab6107e8899845ad3d59bd9653f200f220920489ca2b5937696c31910160405180910390a3505050565b6001600160a01b0383163b1561072057604051630a85bd0160e11b81526001600160a01b0384169063150b7a02906110d790339088908790879060040161197f565b6020604051808303815f875af1925050508015611111575060408051601f3d908101601f1916820190925261110e918101906119bb565b60015b611178573d80801561113e576040519150601f19603f3d011682016040523d82523d5f602084013e611143565b606091505b5080515f0361117057604051633250574960e11b81526001600160a01b03851660048201526024016106bd565b805181602001fd5b6001600160e01b03198116630a85bd0160e11b146111b457604051633250574960e11b81526001600160a01b03851660048201526024016106bd565b5050505050565b60606040518060800160405280605981526020016119f760599139905090565b5f6001600160e01b031982166380ac58cd60e01b148061120b57506001600160e01b03198216635b5e139f60e01b145b8061059a57506301ffc9a760e01b6001600160e01b031983161461059a565b808061123e57506001600160a01b03821615155b156112ff575f61124d84610d9e565b90506001600160a01b038316158015906112795750826001600160a01b0316816001600160a01b031614155b801561128c575061128a8184610ceb565b155b156112b55760405163a9fbf51f60e01b81526001600160a01b03841660048201526024016106bd565b81156112fd5783856001600160a01b0316826001600160a01b03167f8c5be1e5ebec7d5bd14f71427d1e84f3dd0314c0f7b2291e5b200ac8c7c3b92560405160405180910390a45b505b50505f90815260046020526040902080546001600160a01b0319166001600160a01b0392909216919091179055565b61133882826109c8565b6106615760405163e2517d3f60e01b81526001600160a01b0382166004820152602481018390526044016106bd565b6113728383836113e1565b610693576001600160a01b0383166113a057604051637e27328960e01b8152600481018290526024016106bd565b60405163177e802f60e01b81526001600160a01b0383166004820152602481018290526044016106bd565b6113d58383611445565b6106935f848484611095565b5f6001600160a01b0383161580159061143d5750826001600160a01b0316846001600160a01b0316148061141a575061141a8484610ceb565b8061143d57505f828152600460205260409020546001600160a01b038481169116145b949350505050565b6001600160a01b03821661146e57604051633250574960e11b81525f60048201526024016106bd565b5f61147a83835f610e62565b90506001600160a01b03811615610693576040516339e3563760e11b81525f60048201526024016106bd565b6001600160e01b031981168114610ded575f80fd5b5f602082840312156114cb575f80fd5b81356114d6816114a6565b9392505050565b5f5b838110156114f75781810151838201526020016114df565b50505f910152565b5f81518084526115168160208601602086016114dd565b601f01601f19169290920160200192915050565b602081525f6114d660208301846114ff565b5f6020828403121561154c575f80fd5b5035919050565b80356001600160a01b0381168114611569575f80fd5b919050565b5f806040838503121561157f575f80fd5b61158883611553565b946020939093013593505050565b5f602082840312156115a6575f80fd5b6114d682611553565b5f805f606084860312156115c1575f80fd5b6115ca84611553565b92506115d860208501611553565b9150604084013590509250925092565b5f80604083850312156115f9575f80fd5b8235915061160960208401611553565b90509250929050565b634e487b7160e01b5f52604160045260245ffd5b5f67ffffffffffffffff8084111561164057611640611612565b604051601f8501601f19908116603f0116810190828211818310171561166857611668611612565b81604052809350858152868686011115611680575f80fd5b858560208301375f602087830101525050509392505050565b5f602082840312156116a9575f80fd5b813567ffffffffffffffff8111156116bf575f80fd5b8201601f810184136116cf575f80fd5b61143d84823560208401611626565b5f80604083850312156116ef575f80fd5b50508035926020909101359150565b5f806040838503121561170f575f80fd5b61171883611553565b91506020830135801515811461172c575f80fd5b809150509250929050565b5f805f806080858703121561174a575f80fd5b61175385611553565b935061176160208601611553565b925060408501359150606085013567ffffffffffffffff811115611783575f80fd5b8501601f81018713611793575f80fd5b6117a287823560208401611626565b91505092959194509250565b5f80604083850312156117bf575f80fd5b6117c883611553565b915061160960208401611553565b600181811c908216806117ea57607f821691505b60208210810361180857634e487b7160e01b5f52602260045260245ffd5b50919050565b5f835161181f8184602088016114dd565b8351908301906118338183602088016114dd565b01949350505050565b601f82111561069357805f5260205f20601f840160051c810160208510156118615750805b601f840160051c820191505b818110156111b4575f815560010161186d565b815167ffffffffffffffff81111561189a5761189a611612565b6118ae816118a884546117d6565b8461183c565b602080601f8311600181146118e1575f84156118ca5750858301515b5f19600386901b1c1916600185901b178555611938565b5f85815260208120601f198616915b8281101561190f578886015182559484019460019091019084016118f0565b508582101561192c57878501515f19600388901b60f8161c191681555b505060018460011b0185555b505050505050565b634e487b7160e01b5f52601160045260245ffd5b5f6001820161196557611965611940565b5060010190565b8082018082111561059a5761059a611940565b6001600160a01b03858116825284166020820152604081018390526080606082018190525f906119b1908301846114ff565b9695505050505050565b5f602082840312156119cb575f80fd5b81516114d6816114a656fea49807205ce4d355092ef5a8a18f56e8913cf4a201fbe287825b095693c2177568747470733a2f2f6261666b726569687776777065676b673764376b6f326534787a6934767535767334353372377533647a33636e6b796d6d7a706a78746a697967692e697066732e6e667473746f726167652e6c696e6b2fca77cd8f9856ef5fcd36f6b15bf469fe216c2f9114f60dd031f0a2b97b67aaa9a2646970667358221220c7fe8f7279959569bb25ef2fb0f4f8c5b8caf2bd8073da96ec7a2f275bc12f3c64736f6c63430008180033","linkReferences":{}},"methodIdentifiers":{"ADMIN_ROLE()":"75b238fc","ATTESTER_ROLE()":"2f81bb58","DEFAULT_ADMIN_ROLE()":"a217fddf","approve(address,uint256)":"095ea7b3","balanceOf(address)":"70a08231","boddyOfProfile(address,uint256)":"763dadca","customProfileData(uint256,uint256)":"421cb26c","dataVerfificationUser(address)":"9025d49a","getApproved(uint256)":"081812fc","getLevelOfUser(address)":"45e147a0","getPointsOfUser(address)":"2be082a2","getRoleAdmin(bytes32)":"248a9ca3","getUserData(address)":"ffc9896b","getUsername(address)":"ce43c032","grantRole(bytes32,address)":"2f2ff15d","hasRole(bytes32,address)":"91d14854","isApprovedForAll(address,address)":"e985e9c5","name()":"06fdde03","ownerOf(uint256)":"6352211e","registerUsername(string)":"36a94134","removeAdmin(address)":"1785f53c","removeAttester(address)":"cc78fef1","renounceRole(bytes32,address)":"36568abe","revokeRole(bytes32,address)":"d547741f","safeMint()":"6871ee40","safeTransferFrom(address,address,uint256)":"42842e0e","safeTransferFrom(address,address,uint256,bytes)":"b88d4fde","setAdmin(address)":"704b6c02","setApprovalForAll(address,bool)":"a22cb465","setAttester(address)":"9daf85ab","setPointsData(uint256,address)":"ab2b231c","supportsInterface(bytes4)":"01ffc9a7","symbol()":"95d89b41","tokenURI(uint256)":"c87b56dd","transferFrom(address,address,uint256)":"23b872dd","usernameRegistry(address)":"713947b7"},"id":94}