{"abi":[{"type":"constructor","inputs":[{"name":"_poolManager","type":"address","internalType":"address"}],"stateMutability":"nonpayable"},{"type":"function","name":"_quoteExactInput","inputs":[{"name":"params","type":"tuple","internalType":"struct IQuoter.QuoteExactParams","components":[{"name":"exactCurrency","type":"address","internalType":"Currency"},{"name":"path","type":"tuple[]","internalType":"struct PathKey[]","components":[{"name":"intermediateCurrency","type":"address","internalType":"Currency"},{"name":"fee","type":"uint24","internalType":"uint24"},{"name":"tickSpacing","type":"int24","internalType":"int24"},{"name":"hooks","type":"address","internalType":"contract IHooks"},{"name":"hookData","type":"bytes","internalType":"bytes"}]},{"name":"recipient","type":"address","internalType":"address"},{"name":"exactAmount","type":"uint128","internalType":"uint128"}]}],"outputs":[{"name":"","type":"bytes","internalType":"bytes"}],"stateMutability":"nonpayable"},{"type":"function","name":"_quoteExactInputSingle","inputs":[{"name":"params","type":"tuple","internalType":"struct IQuoter.QuoteExactSingleParams","components":[{"name":"poolKey","type":"tuple","internalType":"struct PoolKey","components":[{"name":"currency0","type":"address","internalType":"Currency"},{"name":"currency1","type":"address","internalType":"Currency"},{"name":"fee","type":"uint24","internalType":"uint24"},{"name":"tickSpacing","type":"int24","internalType":"int24"},{"name":"hooks","type":"address","internalType":"contract IHooks"}]},{"name":"zeroForOne","type":"bool","internalType":"bool"},{"name":"recipient","type":"address","internalType":"address"},{"name":"exactAmount","type":"uint128","internalType":"uint128"},{"name":"sqrtPriceLimitX96","type":"uint160","internalType":"uint160"},{"name":"hookData","type":"bytes","internalType":"bytes"}]}],"outputs":[{"name":"","type":"bytes","internalType":"bytes"}],"stateMutability":"nonpayable"},{"type":"function","name":"_quoteExactOutput","inputs":[{"name":"params","type":"tuple","internalType":"struct IQuoter.QuoteExactParams","components":[{"name":"exactCurrency","type":"address","internalType":"Currency"},{"name":"path","type":"tuple[]","internalType":"struct PathKey[]","components":[{"name":"intermediateCurrency","type":"address","internalType":"Currency"},{"name":"fee","type":"uint24","internalType":"uint24"},{"name":"tickSpacing","type":"int24","internalType":"int24"},{"name":"hooks","type":"address","internalType":"contract IHooks"},{"name":"hookData","type":"bytes","internalType":"bytes"}]},{"name":"recipient","type":"address","internalType":"address"},{"name":"exactAmount","type":"uint128","internalType":"uint128"}]}],"outputs":[{"name":"","type":"bytes","internalType":"bytes"}],"stateMutability":"nonpayable"},{"type":"function","name":"_quoteExactOutputSingle","inputs":[{"name":"params","type":"tuple","internalType":"struct IQuoter.QuoteExactSingleParams","components":[{"name":"poolKey","type":"tuple","internalType":"struct PoolKey","components":[{"name":"currency0","type":"address","internalType":"Currency"},{"name":"currency1","type":"address","internalType":"Currency"},{"name":"fee","type":"uint24","internalType":"uint24"},{"name":"tickSpacing","type":"int24","internalType":"int24"},{"name":"hooks","type":"address","internalType":"contract IHooks"}]},{"name":"zeroForOne","type":"bool","internalType":"bool"},{"name":"recipient","type":"address","internalType":"address"},{"name":"exactAmount","type":"uint128","internalType":"uint128"},{"name":"sqrtPriceLimitX96","type":"uint160","internalType":"uint160"},{"name":"hookData","type":"bytes","internalType":"bytes"}]}],"outputs":[{"name":"","type":"bytes","internalType":"bytes"}],"stateMutability":"nonpayable"},{"type":"function","name":"lockAcquired","inputs":[{"name":"data","type":"bytes","internalType":"bytes"}],"outputs":[{"name":"","type":"bytes","internalType":"bytes"}],"stateMutability":"nonpayable"},{"type":"function","name":"manager","inputs":[],"outputs":[{"name":"","type":"address","internalType":"contract IPoolManager"}],"stateMutability":"view"},{"type":"function","name":"quoteExactInput","inputs":[{"name":"params","type":"tuple","internalType":"struct IQuoter.QuoteExactParams","components":[{"name":"exactCurrency","type":"address","internalType":"Currency"},{"name":"path","type":"tuple[]","internalType":"struct PathKey[]","components":[{"name":"intermediateCurrency","type":"address","internalType":"Currency"},{"name":"fee","type":"uint24","internalType":"uint24"},{"name":"tickSpacing","type":"int24","internalType":"int24"},{"name":"hooks","type":"address","internalType":"contract IHooks"},{"name":"hookData","type":"bytes","internalType":"bytes"}]},{"name":"recipient","type":"address","internalType":"address"},{"name":"exactAmount","type":"uint128","internalType":"uint128"}]}],"outputs":[{"name":"deltaAmounts","type":"int128[]","internalType":"int128[]"},{"name":"sqrtPriceX96AfterList","type":"uint160[]","internalType":"uint160[]"},{"name":"initializedTicksLoadedList","type":"uint32[]","internalType":"uint32[]"}],"stateMutability":"nonpayable"},{"type":"function","name":"quoteExactInputSingle","inputs":[{"name":"params","type":"tuple","internalType":"struct IQuoter.QuoteExactSingleParams","components":[{"name":"poolKey","type":"tuple","internalType":"struct PoolKey","components":[{"name":"currency0","type":"address","internalType":"Currency"},{"name":"currency1","type":"address","internalType":"Currency"},{"name":"fee","type":"uint24","internalType":"uint24"},{"name":"tickSpacing","type":"int24","internalType":"int24"},{"name":"hooks","type":"address","internalType":"contract IHooks"}]},{"name":"zeroForOne","type":"bool","internalType":"bool"},{"name":"recipient","type":"address","internalType":"address"},{"name":"exactAmount","type":"uint128","internalType":"uint128"},{"name":"sqrtPriceLimitX96","type":"uint160","internalType":"uint160"},{"name":"hookData","type":"bytes","internalType":"bytes"}]}],"outputs":[{"name":"deltaAmounts","type":"int128[]","internalType":"int128[]"},{"name":"sqrtPriceX96After","type":"uint160","internalType":"uint160"},{"name":"initializedTicksLoaded","type":"uint32","internalType":"uint32"}],"stateMutability":"nonpayable"},{"type":"function","name":"quoteExactOutput","inputs":[{"name":"params","type":"tuple","internalType":"struct IQuoter.QuoteExactParams","components":[{"name":"exactCurrency","type":"address","internalType":"Currency"},{"name":"path","type":"tuple[]","internalType":"struct PathKey[]","components":[{"name":"intermediateCurrency","type":"address","internalType":"Currency"},{"name":"fee","type":"uint24","internalType":"uint24"},{"name":"tickSpacing","type":"int24","internalType":"int24"},{"name":"hooks","type":"address","internalType":"contract IHooks"},{"name":"hookData","type":"bytes","internalType":"bytes"}]},{"name":"recipient","type":"address","internalType":"address"},{"name":"exactAmount","type":"uint128","internalType":"uint128"}]}],"outputs":[{"name":"deltaAmounts","type":"int128[]","internalType":"int128[]"},{"name":"sqrtPriceX96AfterList","type":"uint160[]","internalType":"uint160[]"},{"name":"initializedTicksLoadedList","type":"uint32[]","internalType":"uint32[]"}],"stateMutability":"nonpayable"},{"type":"function","name":"quoteExactOutputSingle","inputs":[{"name":"params","type":"tuple","internalType":"struct IQuoter.QuoteExactSingleParams","components":[{"name":"poolKey","type":"tuple","internalType":"struct PoolKey","components":[{"name":"currency0","type":"address","internalType":"Currency"},{"name":"currency1","type":"address","internalType":"Currency"},{"name":"fee","type":"uint24","internalType":"uint24"},{"name":"tickSpacing","type":"int24","internalType":"int24"},{"name":"hooks","type":"address","internalType":"contract IHooks"}]},{"name":"zeroForOne","type":"bool","internalType":"bool"},{"name":"recipient","type":"address","internalType":"address"},{"name":"exactAmount","type":"uint128","internalType":"uint128"},{"name":"sqrtPriceLimitX96","type":"uint160","internalType":"uint160"},{"name":"hookData","type":"bytes","internalType":"bytes"}]}],"outputs":[{"name":"deltaAmounts","type":"int128[]","internalType":"int128[]"},{"name":"sqrtPriceX96After","type":"uint160","internalType":"uint160"},{"name":"initializedTicksLoaded","type":"uint32","internalType":"uint32"}],"stateMutability":"nonpayable"},{"type":"error","name":"InsufficientAmountOut","inputs":[]},{"type":"error","name":"InvalidLockAcquiredSender","inputs":[]},{"type":"error","name":"InvalidLockCaller","inputs":[]},{"type":"error","name":"InvalidQuoteBatchParams","inputs":[]},{"type":"error","name":"LockFailure","inputs":[]},{"type":"error","name":"NotSelf","inputs":[]},{"type":"error","name":"UnexpectedRevertBytes","inputs":[{"name":"revertData","type":"bytes","internalType":"bytes"}]}],"bytecode":{"object":"0x60a060405234801562000010575f80fd5b506040516200290a3803806200290a833981016040819052620000339162000045565b6001600160a01b031660805262000074565b5f6020828403121562000056575f80fd5b81516001600160a01b03811681146200006d575f80fd5b9392505050565b60805161281b620000ef5f395f8181610124015281816101c3015281816104a601528181610723015281816107e3015281816108ee0152818161093a01528181610a6301528181610bda01528181610c2901528181610e74015281816110b401528181611197015281816113a201526114bd015261281b5ff3fe608060405234801561000f575f80fd5b506004361061009b575f3560e01c80638683d145116100635780638683d1451461015e578063a29d683f14610171578063ab6291fe14610184578063c33be63214610197578063eca1a382146101aa575f80fd5b80630357dde71461009f57806329dade18146100ca5780632a768ff2146100ea5780632cc719fc1461010c578063481c6a751461011f575b5f80fd5b6100b26100ad366004611bfe565b6101bd565b6040516100c193929190611d65565b60405180910390f35b6100dd6100d8366004611dbf565b610300565b6040516100c19190611f90565b6100fd6100f8366004611dbf565b6107dc565b6040516100c193929190611fa2565b6100fd61011a366004611dbf565b6108e7565b6101467f000000000000000000000000000000000000000000000000000000000000000081565b6040516001600160a01b0390911681526020016100c1565b6100b261016c366004611bfe565b610934565b6100dd61017f366004611bfe565b610a3e565b6100dd61019236600461203d565b610c1c565b6100dd6101a5366004611dbf565b610d04565b6100dd6101b8366004611bfe565b61113a565b60605f807f00000000000000000000000000000000000000000000000000000000000000006001600160a01b0316638154831963eca1a38260e01b8660405160240161020991906120eb565b60408051601f198184030181529181526020820180516001600160e01b03166001600160e01b03199485161790525160e084901b909216825261024e91600401611f90565b5f604051808303815f875af192505050801561028b57506040513d5f823e601f3d908101601f191682016040526102889190810190612162565b60015b6102f7573d8080156102b8576040519150601f19603f3d011682016040523d82523d5f602084013e6102bd565b606091505b5084608001516001600160a01b03165f036102e2575f80546001600160801b03191690555b6102eb8161128e565b935093509350506102f9565b505b9193909250565b6060333014610322576040516314e1dbf760e11b815260040160405180910390fd5b60208201515160408051606081019091525f90806103418460016121e7565b6001600160401b0381111561035857610358611a6c565b604051908082528060200260200182016040528015610381578160200160208202803683370190505b508152602001836001600160401b0381111561039f5761039f611a6c565b6040519080825280602002602001820160405280156103c8578160200160208202803683370190505b508152602001836001600160401b038111156103e6576103e6611a6c565b60405190808252806020026020018201604052801561040f578160200160208202803683370190505b509052905061041c611a29565b5f835b80156107a15784811461043657826020015161043c565b86606001515b5f80546001600160801b0319166001600160801b03831617815560208901519193509081906104a0906104706001866121fa565b815181106104805761048061220d565b6020026020010151888514610499578660c001516112be565b8a516112be565b915091507f00000000000000000000000000000000000000000000000000000000000000006001600160a01b031663c815641c6104dc8461136e565b6040518263ffffffff1660e01b81526004016104fa91815260200190565b608060405180830381865afa158015610515573d5f803e3d5ffd5b505050506040513d601f19601f820116820180604052508101906105399190612221565b505060020b608087015250602089015161058b9083908315906001600160801b038816905f9061056a60018a6121fa565b8151811061057a5761057a61220d565b60200260200101516080015161139d565b60020b60a08801526001600160a01b031660e087015285525f80546001600160801b031916905580156105d65784516105c390612283565b855160801c6105d190612283565b6105ef565b845160801c6105e490612283565b85516105ef90612283565b600f90810b60608801520b60408601819052865161060e6001866121fa565b8151811061061e5761061e61220d565b6020026020010181815161063291906122a7565b600f0b905250606085015186518051859081106106515761065161220d565b6020026020010181815161066591906122a7565b600f0b905250801561068157845161067c90612283565b61068f565b845160801c61068f90612283565b6001600160801b03166020808701919091528901516106af6001856121fa565b815181106106bf576106bf61220d565b602090810291909101810151516001600160a01b031660c087015260e0860151908701516106ee6001866121fa565b815181106106fe576106fe61220d565b60200260200101906001600160a01b031690816001600160a01b0316815250506107527f00000000000000000000000000000000000000000000000000000000000000008387608001518860a00151611561565b60408701516107626001866121fa565b815181106107725761077261220d565b602002602001019063ffffffff16908163ffffffff168152505050508080610799906122dd565b91505061041f565b505f835f0151846020015185604001516040516020016107c393929190611fa2565b6040516020818303038152906040529050805181602001fd5b60608060607f00000000000000000000000000000000000000000000000000000000000000006001600160a01b031663815483196329dade1860e01b8660405160240161082991906122f2565b60408051601f198184030181529181526020820180516001600160e01b03166001600160e01b03199485161790525160e084901b909216825261086e91600401611f90565b5f604051808303815f875af19250505080156108ab57506040513d5f823e601f3d908101601f191682016040526108a89190810190612162565b60015b6102f7573d8080156108d8576040519150601f19603f3d011682016040523d82523d5f602084013e6108dd565b606091505b506102eb81611951565b60608060607f00000000000000000000000000000000000000000000000000000000000000006001600160a01b0316638154831963c33be63260e01b8660405160240161082991906122f2565b60605f807f00000000000000000000000000000000000000000000000000000000000000006001600160a01b0316638154831963a29d683f60e01b8660405160240161098091906120eb565b60408051601f198184030181529181526020820180516001600160e01b03166001600160e01b03199485161790525160e084901b90921682526109c591600401611f90565b5f604051808303815f875af1925050508015610a0257506040513d5f823e601f3d908101601f191682016040526109ff9190810190612162565b60015b6102f7573d808015610a2f576040519150601f19603f3d011682016040523d82523d5f602084013e610a34565b606091505b506102eb8161128e565b6060333014610a60576040516314e1dbf760e11b815260040160405180910390fd5b5f7f00000000000000000000000000000000000000000000000000000000000000006001600160a01b031663c815641c610a9c855f015161136e565b6040518263ffffffff1660e01b8152600401610aba91815260200190565b608060405180830381865afa158015610ad5573d5f803e3d5ffd5b505050506040513d601f19601f82011682018060405250810190610af99190612221565b50509150505f805f610b2d865f015187602001518860600151600f0b610b1e906123dc565b89608001518a60a0015161139d565b919450925090505f60025b604051908082528060200260200182016040528015610b61578160200160208202803683370190505b509050610b6e8460801c90565b610b7790612283565b815f81518110610b8957610b8961220d565b6020026020010190600f0b9081600f0b81525050610ba48490565b610bad90612283565b81600181518110610bc057610bc061220d565b6020026020010190600f0b9081600f0b815250505f610c047f0000000000000000000000000000000000000000000000000000000000000000895f01518886611561565b90505f8285836040516020016107c393929190611d65565b6060336001600160a01b037f00000000000000000000000000000000000000000000000000000000000000001614610c6757604051634bd37f4360e01b815260040160405180910390fd5b5f80306001600160a01b03168585604051610c839291906123f6565b5f604051808303815f865af19150503d805f8114610cbc576040519150601f19603f3d011682016040523d82523d5f602084013e610cc1565b606091505b50915091508115610cd5579150610cfe9050565b80515f03610cf6576040516314815f4760e31b815260040160405180910390fd5b805160208201fd5b92915050565b6060333014610d26576040516314e1dbf760e11b815260040160405180910390fd5b60208201515160408051606081019091525f9080610d458460016121e7565b6001600160401b03811115610d5c57610d5c611a6c565b604051908082528060200260200182016040528015610d85578160200160208202803683370190505b508152602001836001600160401b03811115610da357610da3611a6c565b604051908082528060200260200182016040528015610dcc578160200160208202803683370190505b508152602001836001600160401b03811115610dea57610dea611a6c565b604051908082528060200260200182016040528015610e13578160200160208202803683370190505b5090529050610e20611a29565b5f5b83811015611118575f80610e6e8315610e3f578460c00151610e42565b88515b89602001518581518110610e5857610e5861220d565b60200260200101516112be90919063ffffffff16565b915091507f00000000000000000000000000000000000000000000000000000000000000006001600160a01b031663c815641c610eaa8461136e565b6040518263ffffffff1660e01b8152600401610ec891815260200190565b608060405180830381865afa158015610ee3573d5f803e3d5ffd5b505050506040513d601f19601f82011682018060405250810190610f079190612221565b505060020b608086015250610f5082828515610f27578660200151610f2d565b8a606001515b600f0b610f39906123dc565b5f8c60200151888151811061057a5761057a61220d565b60020b60a08701526001600160a01b031660e0860152845280610f8b578351610f7890612283565b845160801c610f8690612283565b610fa4565b835160801c610f9990612283565b8451610fa490612283565b600f90810b60608701520b604085018190528551805185908110610fca57610fca61220d565b60200260200101818151610fde91906122a7565b600f0b90525060608401518551610ff68560016121e7565b815181106110065761100661220d565b6020026020010181815161101a91906122a7565b600f0b9052508061102f57835160801c611032565b83515b6001600160801b03166020808601919091528801518051849081106110595761105961220d565b602090810291909101810151516001600160a01b031660c086015260e08501519086015180518590811061108f5761108f61220d565b60200260200101906001600160a01b031690816001600160a01b0316815250506110e37f00000000000000000000000000000000000000000000000000000000000000008386608001518760a00151611561565b856040015184815181106110f9576110f961220d565b63ffffffff909216602092830291909101909101525050600101610e22565b505f825f0151836020015184604001516040516020016107c393929190611fa2565b606033301461115c576040516314e1dbf760e11b815260040160405180910390fd5b81608001516001600160a01b03165f036111945760608201515f80546001600160801b0319166001600160801b039092169190911790555b5f7f00000000000000000000000000000000000000000000000000000000000000006001600160a01b031663c815641c6111d0855f015161136e565b6040518263ffffffff1660e01b81526004016111ee91815260200190565b608060405180830381865afa158015611209573d5f803e3d5ffd5b505050506040513d601f19601f8201168201806040525081019061122d9190612221565b50509150505f805f61125e865f0151876020015188606001516001600160801b031689608001518a60a0015161139d565b5f5492955090935091506001600160801b031615611286575f80546001600160801b03191690555b5f6002610b38565b60605f8061129b84611975565b9350838060200190518101906112b1919061248d565b9196909550909350915050565b6040805160a0810182525f808252602082018190529181018290526060810182905260808101919091525f805f61130485875f01516001600160a01b0390811691161090565b61131057855185611315565b855185905b6040805160a0810182526001600160a01b039384168082529284166020808301919091528a015162ffffff16818301529089015160020b6060808301919091529098015182166080890152969795169095149450505050565b5f8160405160200161138091906124e8565b604051602081830303815290604052805190602001209050919050565b5f805f7f00000000000000000000000000000000000000000000000000000000000000006001600160a01b031663f3cd914c8960405180606001604052808b151581526020018a81526020016113f38a8d6119a8565b6001600160a01b0316815250876040518463ffffffff1660e01b815260040161141e939291906124f6565b6020604051808303815f875af115801561143a573d5f803e3d5ffd5b505050506040513d601f19601f8201168201806040525081019061145e9190612548565b5f549093506001600160801b03161580159061149d575086611489576114848360801c90565b61148b565b825b5f546001600160801b03908116911614155b156114bb57604051637294b85560e11b815260040160405180910390fd5b7f00000000000000000000000000000000000000000000000000000000000000006001600160a01b031663c815641c6114f38a61136e565b6040518263ffffffff1660e01b815260040161151191815260200190565b608060405180830381865afa15801561152c573d5f803e3d5ffd5b505050506040513d601f19601f820116820180604052508101906115509190612221565b50949a919950975095505050505050565b6040805160c0810182525f80825260208201819052918101829052606081018290526080810182905260a081018290525f60088660600151866115a49190612573565b60020b901d90505f6101008760600151876115bf9190612573565b6115c991906125ab565b90505f60088860600151876115de9190612573565b60020b901d90505f6101008960600151886115f99190612573565b61160391906125ab565b90505f8a6001600160a01b0316637c352ef661161e8c61136e565b856040518363ffffffff1660e01b815260040161164892919091825260010b602082015260400190565b602060405180830381865afa158015611663573d5f803e3d5ffd5b505050506040513d601f19601f820116820180604052508101906116879190612548565b9050600160ff83161b8116158015906116af575060608a01516116aa90896125ab565b60020b155b80156116c057508760020b8960020b135b151560a08701525f6001600160a01b038c16637c352ef66116e08d61136e565b886040518363ffffffff1660e01b815260040161170a92919091825260010b602082015260400190565b602060405180830381865afa158015611725573d5f803e3d5ffd5b505050506040513d601f19601f820116820180604052508101906117499190612548565b9050600160ff86161b811615801590611771575060608b015161176c908b6125ab565b60020b155b801561178257508860020b8a60020b125b15156080880152600184810b9087900b12806117b457508360010b8660010b1480156117b457508260ff168560ff1611155b156117df57600186810b885260ff80871660408a01529085900b602089015283166060880152611801565b600184810b885260ff80851660408a01529087900b6020890152851660608801525b50505060408401515f1960ff9091161b925050505b816020015160010b825f015160010b1361191757816020015160010b825f015160010b0361185957606082015161184e9060ff6125cc565b5f1960ff919091161c165b5f876001600160a01b0316637c352ef66118728961136e565b855160405160e084901b6001600160e01b0319168152600481019290925260010b6024820152604401602060405180830381865afa1580156118b6573d5f803e3d5ffd5b505050506040513d601f19601f820116820180604052508101906118da9190612548565b90508181166118e8816119fe565b6118f69061ffff16866125e5565b84519095508461190582612609565b60010b9052505f199250611816915050565b8160a001511561192f5761192c600184612628565b92505b81608001511561194757611944600184612628565b92505b5050949350505050565b606080606061195f84611975565b9350838060200190518101906112b191906126a8565b606080825110156119a457816040516306190b2b60e41b815260040161199b9190611f90565b60405180910390fd5b5090565b5f6001600160a01b038316156119be57826119f7565b816119e7576119e2600173fffd8963efd1fc6a506488495d951d5263988d26612785565b6119f7565b6119f76401000276a360016127a5565b9392505050565b5f805b8215610cfe5780611a11816127c5565b9150611a2090506001846121fa565b83169250611a01565b60408051610100810182525f80825260208201819052918101829052606081018290526080810182905260a0810182905260c0810182905260e081019190915290565b634e487b7160e01b5f52604160045260245ffd5b60405160c081016001600160401b0381118282101715611aa257611aa2611a6c565b60405290565b60405160a081016001600160401b0381118282101715611aa257611aa2611a6c565b604051608081016001600160401b0381118282101715611aa257611aa2611a6c565b604051601f8201601f191681016001600160401b0381118282101715611b1457611b14611a6c565b604052919050565b6001600160a01b0381168114611b30575f80fd5b50565b8035611b3e81611b1c565b919050565b62ffffff81168114611b30575f80fd5b8060020b8114611b30575f80fd5b80358015158114611b3e575f80fd5b80356001600160801b0381168114611b3e575f80fd5b5f6001600160401b03821115611b9e57611b9e611a6c565b50601f01601f191660200190565b5f82601f830112611bbb575f80fd5b8135611bce611bc982611b86565b611aec565b818152846020838601011115611be2575f80fd5b816020850160208301375f918101602001919091529392505050565b5f60208284031215611c0e575f80fd5b81356001600160401b0380821115611c24575f80fd5b90830190818503610140811215611c39575f80fd5b611c41611a80565b60a0821215611c4e575f80fd5b611c56611aa8565b91508335611c6381611b1c565b82526020840135611c7381611b1c565b60208301526040840135611c8681611b43565b60408301526060840135611c9981611b53565b60608301526080840135611cac81611b1c565b6080830152818152611cc060a08501611b61565b6020820152611cd160c08501611b33565b6040820152611ce260e08501611b70565b6060820152611cf46101008501611b33565b6080820152610120840135915082821115611d0d575f80fd5b611d1987838601611bac565b60a08201529695505050505050565b5f815180845260208085019450602084015f5b83811015611d5a578151600f0b87529582019590820190600101611d3b565b509495945050505050565b606081525f611d776060830186611d28565b6001600160a01b039490941660208301525063ffffffff91909116604090910152919050565b5f6001600160401b03821115611db557611db5611a6c565b5060051b60200190565b5f6020808385031215611dd0575f80fd5b82356001600160401b0380821115611de6575f80fd5b9084019060808287031215611df9575f80fd5b611e01611aca565b8235611e0c81611b1c565b81528284013582811115611e1e575f80fd5b8301601f81018813611e2e575f80fd5b8035611e3c611bc982611d9d565b81815260059190911b8201860190868101908a831115611e5a575f80fd5b8784015b83811015611f0e57803587811115611e74575f80fd5b850160a0818e03601f19011215611e89575f80fd5b611e91611aa8565b8a820135611e9e81611b1c565b8152604082810135611eaf81611b43565b828d0152606083810135611ec281611b53565b80838501525060808401359150611ed882611b1c565b82015260a082013589811115611eec575f80fd5b611efa8f8d83860101611bac565b608083015250845250918801918801611e5e565b508488015250611f2391505060408401611b33565b6040820152611f3460608401611b70565b60608201529695505050505050565b5f5b83811015611f5d578181015183820152602001611f45565b50505f910152565b5f8151808452611f7c816020860160208601611f43565b601f01601f19169290920160200192915050565b602081525f6119f76020830184611f65565b606081525f611fb46060830186611d28565b8281036020848101919091528551808352868201928201905f5b81811015611ff35784516001600160a01b031683529383019391830191600101611fce565b5050848103604086015285518082529082019250818601905f5b8181101561202f57825163ffffffff168552938301939183019160010161200d565b509298975050505050505050565b5f806020838503121561204e575f80fd5b82356001600160401b0380821115612064575f80fd5b818501915085601f830112612077575f80fd5b813581811115612085575f80fd5b866020828501011115612096575f80fd5b60209290920196919550909350505050565b80516001600160a01b03908116835260208083015182169084015260408083015162ffffff169084015260608083015160020b9084015260809182015116910152565b602081526120fd6020820183516120a8565b6020820151151560c082015260408201516001600160a01b0390811660e083015260608301516001600160801b031661010083015260808301511661012082015260a0820151610140808301525f9061215a610160840182611f65565b949350505050565b5f60208284031215612172575f80fd5b81516001600160401b03811115612187575f80fd5b8201601f81018413612197575f80fd5b80516121a5611bc982611b86565b8181528560208385010111156121b9575f80fd5b6121ca826020830160208601611f43565b95945050505050565b634e487b7160e01b5f52601160045260245ffd5b80820180821115610cfe57610cfe6121d3565b81810381811115610cfe57610cfe6121d3565b634e487b7160e01b5f52603260045260245ffd5b5f805f8060808587031215612234575f80fd5b845161223f81611b1c565b602086015190945061225081611b53565b604086015190935061ffff81168114612267575f80fd5b606086015190925061227881611b43565b939692955090935050565b5f81600f0b60016001607f1b0319810361229f5761229f6121d3565b5f0392915050565b600f81810b9083900b0160016001607f1b0381136f7fffffffffffffffffffffffffffffff1982121715610cfe57610cfe6121d3565b5f816122eb576122eb6121d3565b505f190190565b5f602080835260a080840160018060a01b0380875116848701528387015160806040608060408a015284835180875260c08b01915060c08160051b8c0101965088850194505f5b8181101561239e578b880360bf1901835285518051881689528a81015162ffffff168b8a01528481015160020b858a01526060808201518916908a01528501518589018a905261238b8a8a0182611f65565b9850509489019491890191600101612339565b50505050505050604086015192506123c160608601846001600160a01b03169052565b60608601516001600160801b038116608087015292506121ca565b5f600160ff1b82016123f0576123f06121d3565b505f0390565b818382375f9101908152919050565b5f82601f830112612414575f80fd5b81516020612424611bc983611d9d565b8083825260208201915060208460051b870101935086841115612445575f80fd5b602086015b8481101561246f57805180600f0b8114612462575f80fd5b835291830191830161244a565b509695505050505050565b805163ffffffff81168114611b3e575f80fd5b5f805f6060848603121561249f575f80fd5b83516001600160401b038111156124b4575f80fd5b6124c086828701612405565b93505060208401516124d181611b1c565b91506124df6040850161247a565b90509250925092565b60a08101610cfe82846120a8565b5f61012061250483876120a8565b8451151560a0840152602085015160c084015260408501516001600160a01b031660e0840152610100830181905261253e81840185611f65565b9695505050505050565b5f60208284031215612558575f80fd5b5051919050565b634e487b7160e01b5f52601260045260245ffd5b5f8160020b8360020b806125895761258961255f565b627fffff1982145f19821416156125a2576125a26121d3565b90059392505050565b5f8260020b806125bd576125bd61255f565b808360020b0791505092915050565b60ff8281168282160390811115610cfe57610cfe6121d3565b63ffffffff818116838216019080821115612602576126026121d3565b5092915050565b5f8160010b617fff810361261f5761261f6121d3565b60010192915050565b63ffffffff828116828216039080821115612602576126026121d3565b5f82601f830112612654575f80fd5b81516020612664611bc983611d9d565b8083825260208201915060208460051b870101935086841115612685575f80fd5b602086015b8481101561246f5761269b8161247a565b835291830191830161268a565b5f805f606084860312156126ba575f80fd5b83516001600160401b03808211156126d0575f80fd5b6126dc87838801612405565b94506020915081860151818111156126f2575f80fd5b8601601f81018813612702575f80fd5b8051612710611bc982611d9d565b81815260059190911b8201840190848101908a83111561272e575f80fd5b928501925b8284101561275557835161274681611b1c565b82529285019290850190612733565b60408a015190975094505050508082111561276e575f80fd5b5061277b86828701612645565b9150509250925092565b6001600160a01b03828116828216039080821115612602576126026121d3565b6001600160a01b03818116838216019080821115612602576126026121d3565b5f61ffff8083168181036127db576127db6121d3565b600101939250505056fea264697066735822122006518f75bdcfb6f47db68313834a273c5de8e342b718f84aa37832bf0e1cf9db64736f6c63430008180033","linkReferences":{}},"methodIdentifiers":{"_quoteExactInput((address,(address,uint24,int24,address,bytes)[],address,uint128))":"c33be632","_quoteExactInputSingle(((address,address,uint24,int24,address),bool,address,uint128,uint160,bytes))":"a29d683f","_quoteExactOutput((address,(address,uint24,int24,address,bytes)[],address,uint128))":"29dade18","_quoteExactOutputSingle(((address,address,uint24,int24,address),bool,address,uint128,uint160,bytes))":"eca1a382","lockAcquired(bytes)":"ab6291fe","manager()":"481c6a75","quoteExactInput((address,(address,uint24,int24,address,bytes)[],address,uint128))":"2cc719fc","quoteExactInputSingle(((address,address,uint24,int24,address),bool,address,uint128,uint160,bytes))":"8683d145","quoteExactOutput((address,(address,uint24,int24,address,bytes)[],address,uint128))":"2a768ff2","quoteExactOutputSingle(((address,address,uint24,int24,address),bool,address,uint128,uint160,bytes))":"0357dde7"},"id":86}