{"abi":[{"type":"constructor","inputs":[{"name":"_manager","type":"address","internalType":"contract IPoolManager"}],"stateMutability":"nonpayable"},{"type":"function","name":"deposit","inputs":[{"name":"currency","type":"address","internalType":"Currency"},{"name":"user","type":"address","internalType":"address"},{"name":"amount","type":"uint256","internalType":"uint256"}],"outputs":[],"stateMutability":"payable"},{"type":"function","name":"excludeArtifacts","inputs":[],"outputs":[{"name":"excludedArtifacts_","type":"string[]","internalType":"string[]"}],"stateMutability":"view"},{"type":"function","name":"excludeContracts","inputs":[],"outputs":[{"name":"excludedContracts_","type":"address[]","internalType":"address[]"}],"stateMutability":"view"},{"type":"function","name":"excludeSenders","inputs":[],"outputs":[{"name":"excludedSenders_","type":"address[]","internalType":"address[]"}],"stateMutability":"view"},{"type":"function","name":"failed","inputs":[],"outputs":[{"name":"","type":"bool","internalType":"bool"}],"stateMutability":"view"},{"type":"function","name":"lockAcquired","inputs":[{"name":"rawData","type":"bytes","internalType":"bytes"}],"outputs":[{"name":"","type":"bytes","internalType":"bytes"}],"stateMutability":"nonpayable"},{"type":"function","name":"manager","inputs":[],"outputs":[{"name":"","type":"address","internalType":"contract IPoolManager"}],"stateMutability":"view"},{"type":"function","name":"targetArtifactSelectors","inputs":[],"outputs":[{"name":"targetedArtifactSelectors_","type":"tuple[]","internalType":"struct StdInvariant.FuzzSelector[]","components":[{"name":"addr","type":"address","internalType":"address"},{"name":"selectors","type":"bytes4[]","internalType":"bytes4[]"}]}],"stateMutability":"view"},{"type":"function","name":"targetArtifacts","inputs":[],"outputs":[{"name":"targetedArtifacts_","type":"string[]","internalType":"string[]"}],"stateMutability":"view"},{"type":"function","name":"targetContracts","inputs":[],"outputs":[{"name":"targetedContracts_","type":"address[]","internalType":"address[]"}],"stateMutability":"view"},{"type":"function","name":"targetInterfaces","inputs":[],"outputs":[{"name":"targetedInterfaces_","type":"tuple[]","internalType":"struct StdInvariant.FuzzInterface[]","components":[{"name":"addr","type":"address","internalType":"address"},{"name":"artifacts","type":"string[]","internalType":"string[]"}]}],"stateMutability":"view"},{"type":"function","name":"targetSelectors","inputs":[],"outputs":[{"name":"targetedSelectors_","type":"tuple[]","internalType":"struct StdInvariant.FuzzSelector[]","components":[{"name":"addr","type":"address","internalType":"address"},{"name":"selectors","type":"bytes4[]","internalType":"bytes4[]"}]}],"stateMutability":"view"},{"type":"function","name":"targetSenders","inputs":[],"outputs":[{"name":"targetedSenders_","type":"address[]","internalType":"address[]"}],"stateMutability":"view"},{"type":"function","name":"withdraw","inputs":[{"name":"currency","type":"address","internalType":"Currency"},{"name":"user","type":"address","internalType":"address"},{"name":"amount","type":"uint256","internalType":"uint256"}],"outputs":[],"stateMutability":"payable"},{"type":"event","name":"log","inputs":[{"name":"","type":"string","indexed":false,"internalType":"string"}],"anonymous":false},{"type":"event","name":"log_address","inputs":[{"name":"","type":"address","indexed":false,"internalType":"address"}],"anonymous":false},{"type":"event","name":"log_array","inputs":[{"name":"val","type":"uint256[]","indexed":false,"internalType":"uint256[]"}],"anonymous":false},{"type":"event","name":"log_array","inputs":[{"name":"val","type":"int256[]","indexed":false,"internalType":"int256[]"}],"anonymous":false},{"type":"event","name":"log_array","inputs":[{"name":"val","type":"address[]","indexed":false,"internalType":"address[]"}],"anonymous":false},{"type":"event","name":"log_bytes","inputs":[{"name":"","type":"bytes","indexed":false,"internalType":"bytes"}],"anonymous":false},{"type":"event","name":"log_bytes32","inputs":[{"name":"","type":"bytes32","indexed":false,"internalType":"bytes32"}],"anonymous":false},{"type":"event","name":"log_int","inputs":[{"name":"","type":"int256","indexed":false,"internalType":"int256"}],"anonymous":false},{"type":"event","name":"log_named_address","inputs":[{"name":"key","type":"string","indexed":false,"internalType":"string"},{"name":"val","type":"address","indexed":false,"internalType":"address"}],"anonymous":false},{"type":"event","name":"log_named_array","inputs":[{"name":"key","type":"string","indexed":false,"internalType":"string"},{"name":"val","type":"uint256[]","indexed":false,"internalType":"uint256[]"}],"anonymous":false},{"type":"event","name":"log_named_array","inputs":[{"name":"key","type":"string","indexed":false,"internalType":"string"},{"name":"val","type":"int256[]","indexed":false,"internalType":"int256[]"}],"anonymous":false},{"type":"event","name":"log_named_array","inputs":[{"name":"key","type":"string","indexed":false,"internalType":"string"},{"name":"val","type":"address[]","indexed":false,"internalType":"address[]"}],"anonymous":false},{"type":"event","name":"log_named_bytes","inputs":[{"name":"key","type":"string","indexed":false,"internalType":"string"},{"name":"val","type":"bytes","indexed":false,"internalType":"bytes"}],"anonymous":false},{"type":"event","name":"log_named_bytes32","inputs":[{"name":"key","type":"string","indexed":false,"internalType":"string"},{"name":"val","type":"bytes32","indexed":false,"internalType":"bytes32"}],"anonymous":false},{"type":"event","name":"log_named_decimal_int","inputs":[{"name":"key","type":"string","indexed":false,"internalType":"string"},{"name":"val","type":"int256","indexed":false,"internalType":"int256"},{"name":"decimals","type":"uint256","indexed":false,"internalType":"uint256"}],"anonymous":false},{"type":"event","name":"log_named_decimal_uint","inputs":[{"name":"key","type":"string","indexed":false,"internalType":"string"},{"name":"val","type":"uint256","indexed":false,"internalType":"uint256"},{"name":"decimals","type":"uint256","indexed":false,"internalType":"uint256"}],"anonymous":false},{"type":"event","name":"log_named_int","inputs":[{"name":"key","type":"string","indexed":false,"internalType":"string"},{"name":"val","type":"int256","indexed":false,"internalType":"int256"}],"anonymous":false},{"type":"event","name":"log_named_string","inputs":[{"name":"key","type":"string","indexed":false,"internalType":"string"},{"name":"val","type":"string","indexed":false,"internalType":"string"}],"anonymous":false},{"type":"event","name":"log_named_uint","inputs":[{"name":"key","type":"string","indexed":false,"internalType":"string"},{"name":"val","type":"uint256","indexed":false,"internalType":"uint256"}],"anonymous":false},{"type":"event","name":"log_string","inputs":[{"name":"","type":"string","indexed":false,"internalType":"string"}],"anonymous":false},{"type":"event","name":"log_uint","inputs":[{"name":"","type":"uint256","indexed":false,"internalType":"uint256"}],"anonymous":false},{"type":"event","name":"logs","inputs":[{"name":"","type":"bytes","indexed":false,"internalType":"bytes"}],"anonymous":false},{"type":"error","name":"SafeCastOverflow","inputs":[]}],"bytecode":{"object":"0x60a0604052600c805460ff1916600117905534801561001c575f80fd5b5060405161181038038061181083398101604081905261003b9161004c565b6001600160a01b0316608052610079565b5f6020828403121561005c575f80fd5b81516001600160a01b0381168114610072575f80fd5b9392505050565b6080516117326100de5f395f8181610161015281816105cc0152818161087a015281816108be0152818161098e01528181610bde01528181610d1501528181610dcf01528181610e9501528181610f0101528181610feb015261104901526117325ff3fe6080604052600436106100d9575f3560e01c806385226c811161007c578063b5508aa911610057578063b5508aa914610232578063ba414fa614610246578063d9caed121461026a578063e20c9f711461027d575f80fd5b806385226c81146101d1578063916a17c6146101f2578063ab6291fe14610206575f80fd5b80633f7286f4116100b75780633f7286f41461013c578063481c6a751461015057806366d9a9a01461019b5780638340f549146101bc575f80fd5b80631ed7831c146100dd5780632ade3880146101075780633e5e3c2314610128575b5f80fd5b3480156100e8575f80fd5b506100f1610291565b6040516100fe9190611158565b60405180910390f35b348015610112575f80fd5b5061011b6102f1565b6040516100fe91906111f1565b348015610133575f80fd5b506100f161042d565b348015610147575f80fd5b506100f161048b565b34801561015b575f80fd5b506101837f000000000000000000000000000000000000000000000000000000000000000081565b6040516001600160a01b0390911681526020016100fe565b3480156101a6575f80fd5b506101af6104e9565b6040516100fe91906112ae565b6101cf6101ca366004611376565b6105ca565b005b3480156101dc575f80fd5b506101e56106c1565b6040516100fe91906113b4565b3480156101fd575f80fd5b506101af61078c565b348015610211575f80fd5b50610225610220366004611416565b61086d565b6040516100fe9190611482565b34801561023d575f80fd5b506101e5610a71565b348015610251575f80fd5b5061025a610b3c565b60405190151581526020016100fe565b6101cf610278366004611376565b610bdc565b348015610288575f80fd5b506100f1610c5f565b606060168054806020026020016040519081016040528092919081815260200182805480156102e757602002820191905f5260205f20905b81546001600160a01b031681526001909101906020018083116102c9575b5050505050905090565b6060601d805480602002602001604051908101604052809291908181526020015f905b82821015610424575f84815260208082206040805180820182526002870290920180546001600160a01b03168352600181018054835181870281018701909452808452939591948681019491929084015b8282101561040d578382905f5260205f200180546103829061149b565b80601f01602080910402602001604051908101604052809291908181526020018280546103ae9061149b565b80156103f95780601f106103d0576101008083540402835291602001916103f9565b820191905f5260205f20905b8154815290600101906020018083116103dc57829003601f168201915b505050505081526020019060010190610365565b505050508152505081526020019060010190610314565b50505050905090565b606060188054806020026020016040519081016040528092919081815260200182805480156102e757602002820191905f5260205f209081546001600160a01b031681526001909101906020018083116102c9575050505050905090565b606060178054806020026020016040519081016040528092919081815260200182805480156102e757602002820191905f5260205f209081546001600160a01b031681526001909101906020018083116102c9575050505050905090565b6060601b805480602002602001604051908101604052809291908181526020015f905b82821015610424575f8481526020908190206040805180820182526002860290920180546001600160a01b031683526001810180548351818702810187019094528084529394919385830193928301828280156105b257602002820191905f5260205f20905f905b82829054906101000a900460e01b6001600160e01b031916815260200190600401906020826003010492830192600103820291508084116105745790505b5050505050815250508152602001906001019061050c565b7f00000000000000000000000000000000000000000000000000000000000000006001600160a01b031663815483196040518060a00160405280336001600160a01b03168152602001856001600160a01b03168152602001866001600160a01b031681526020018481526020016001151581525060405160200161064e91906114d3565b6040516020818303038152906040526040518263ffffffff1660e01b81526004016106799190611482565b5f604051808303815f875af1158015610694573d5f803e3d5ffd5b505050506040513d5f823e601f3d908101601f191682016040526106bb919081019061152e565b50505050565b6060601a805480602002602001604051908101604052809291908181526020015f905b82821015610424578382905f5260205f200180546107019061149b565b80601f016020809104026020016040519081016040528092919081815260200182805461072d9061149b565b80156107785780601f1061074f57610100808354040283529160200191610778565b820191905f5260205f20905b81548152906001019060200180831161075b57829003601f168201915b5050505050815260200190600101906106e4565b6060601c805480602002602001604051908101604052809291908181526020015f905b82821015610424575f8481526020908190206040805180820182526002860290920180546001600160a01b0316835260018101805483518187028101870190945280845293949193858301939283018282801561085557602002820191905f5260205f20905f905b82829054906101000a900460e01b6001600160e01b031916815260200190600401906020826003010492830192600103820291508084116108175790505b505050505081525050815260200190600101906107af565b6060336001600160a01b037f000000000000000000000000000000000000000000000000000000000000000016146108a3575f80fd5b5f6108b0838501856115e3565b905080608001511561098c577f00000000000000000000000000000000000000000000000000000000000000006001600160a01b031663156e29f6826020015161090d84604001516001600160a01b03166001600160a01b031690565b84606001516040518463ffffffff1660e01b815260040161093093929190611670565b5f604051808303815f87803b158015610947575f80fd5b505af1158015610959573d5f803e3d5ffd5b50505050610987816040015182602001516109778460600151610cbd565b6109809061169a565b6001610cea565b610a4e565b7f00000000000000000000000000000000000000000000000000000000000000006001600160a01b031663f5298aca82602001516109dd84604001516001600160a01b03166001600160a01b031690565b84606001516040518463ffffffff1660e01b8152600401610a0093929190611670565b5f604051808303815f87803b158015610a17575f80fd5b505af1158015610a29573d5f803e3d5ffd5b50505050610a4e81604001518260200151610a478460600151610cbd565b6001610fa2565b604080515f60208201520160405160208183030381529060405291505092915050565b60606019805480602002602001604051908101604052809291908181526020015f905b82821015610424578382905f5260205f20018054610ab19061149b565b80601f0160208091040260200160405190810160405280929190818152602001828054610add9061149b565b8015610b285780601f10610aff57610100808354040283529160200191610b28565b820191905f5260205f20905b815481529060010190602001808311610b0b57829003601f168201915b505050505081526020019060010190610a94565b6008545f9060ff1615610b53575060085460ff1690565b604051630667f9d760e41b8152737109709ecfa91a80626ff3989d68f67f5b1dd12d600482018190526519985a5b195960d21b60248301525f9163667f9d7090604401602060405180830381865afa158015610bb1573d5f803e3d5ffd5b505050506040513d601f19601f82011682018060405250810190610bd591906116ca565b1415905090565b7f00000000000000000000000000000000000000000000000000000000000000006001600160a01b031663815483196040518060a00160405280336001600160a01b03168152602001856001600160a01b03168152602001866001600160a01b031681526020018481526020015f151581525060405160200161064e91906114d3565b606060158054806020026020016040519081016040528092919081815260200182805480156102e757602002820191905f5260205f209081546001600160a01b031681526001909101906020018083116102c9575050505050905090565b5f60016001607f1b03821115610ce6576040516393dafdf160e01b815260040160405180910390fd5b5090565b610cf782600f0b5f6110af565b8015610eff576001600160a01b038416610dbd576001600160a01b037f000000000000000000000000000000000000000000000000000000000000000016636a256b29610d438461169a565b6040516001600160e01b031960e084901b1681526001600160a01b03881660048201526001600160801b03919091169060240160206040518083038185885af1158015610d92573d5f803e3d5ffd5b50505050506040513d601f19601f82011682018060405250810190610db791906116ca565b506106bb565b6001600160a01b0384166323b872dd847f0000000000000000000000000000000000000000000000000000000000000000610df78661169a565b6040516001600160e01b031960e086901b1681526001600160a01b0393841660048201529290911660248301526001600160801b031660448201526064016020604051808303815f875af1158015610e51573d5f803e3d5ffd5b505050506040513d601f19601f82011682018060405250810190610e7591906116e1565b50604051636a256b2960e01b81526001600160a01b0385811660048301527f00000000000000000000000000000000000000000000000000000000000000001690636a256b29906024016020604051808303815f875af1158015610edb573d5f803e3d5ffd5b505050506040513d601f19601f82011682018060405250810190610db791906116ca565b7f00000000000000000000000000000000000000000000000000000000000000006001600160a01b031663f5298aca84610f48876001600160a01b03166001600160a01b031690565b610f518661169a565b6040518463ffffffff1660e01b8152600401610f6f93929190611670565b5f604051808303815f87803b158015610f86575f80fd5b505af1158015610f98573d5f803e3d5ffd5b5050505050505050565b610faf82600f0b5f611119565b801561104757604051630b0d9c0960e01b81526001600160a01b03858116600483015284811660248301526001600160801b03841660448301527f00000000000000000000000000000000000000000000000000000000000000001690630b0d9c09906064015f604051808303815f87803b15801561102c575f80fd5b505af115801561103e573d5f803e3d5ffd5b505050506106bb565b7f00000000000000000000000000000000000000000000000000000000000000006001600160a01b031663156e29f684611090876001600160a01b03166001600160a01b031690565b856040518463ffffffff1660e01b8152600401610f6f93929190611670565b604051627d228160e71b81526004810183905260248101829052737109709ecfa91a80626ff3989d68f67f5b1dd12d90633e914080906044015b5f6040518083038186803b1580156110ff575f80fd5b505afa158015611111573d5f803e3d5ffd5b505050505050565b604051635a362d4560e01b81526004810183905260248101829052737109709ecfa91a80626ff3989d68f67f5b1dd12d90635a362d45906044016110e9565b602080825282518282018190525f9190848201906040850190845b818110156111985783516001600160a01b031683529284019291840191600101611173565b50909695505050505050565b5f5b838110156111be5781810151838201526020016111a6565b50505f910152565b5f81518084526111dd8160208601602086016111a4565b601f01601f19169290920160200192915050565b602080825282518282018190525f919060409081850190600581811b87018401888601875b8481101561129f57603f198a8403018652815180516001600160a01b03168452880151888401889052805188850181905290890190606081871b8601810191908601905f5b8181101561128957605f198885030183526112778486516111c6565b948d01949350918c019160010161125b565b5050509689019693505090870190600101611216565b50909998505050505050505050565b5f60208083018184528085518083526040925060408601915060408160051b8701018488015f5b8381101561135157888303603f19018552815180516001600160a01b031684528701518784018790528051878501819052908801905f9060608601905b8083101561133c5783516001600160e01b0319168252928a019260019290920191908a0190611312565b509689019694505050908601906001016112d5565b509098975050505050505050565b6001600160a01b0381168114611373575f80fd5b50565b5f805f60608486031215611388575f80fd5b83356113938161135f565b925060208401356113a38161135f565b929592945050506040919091013590565b5f60208083016020845280855180835260408601915060408160051b8701019250602087015f5b8281101561140957603f198886030184526113f78583516111c6565b945092850192908501906001016113db565b5092979650505050505050565b5f8060208385031215611427575f80fd5b823567ffffffffffffffff8082111561143e575f80fd5b818501915085601f830112611451575f80fd5b81358181111561145f575f80fd5b866020828501011115611470575f80fd5b60209290920196919550909350505050565b602081525f61149460208301846111c6565b9392505050565b600181811c908216806114af57607f821691505b6020821081036114cd57634e487b7160e01b5f52602260045260245ffd5b50919050565b81516001600160a01b039081168252602080840151821690830152604080840151909116908201526060808301519082015260809182015115159181019190915260a00190565b634e487b7160e01b5f52604160045260245ffd5b5f6020828403121561153e575f80fd5b815167ffffffffffffffff80821115611555575f80fd5b818401915084601f830112611568575f80fd5b81518181111561157a5761157a61151a565b604051601f8201601f19908116603f011681019083821181831017156115a2576115a261151a565b816040528281528760208487010111156115ba575f80fd5b6115cb8360208301602088016111a4565b979650505050505050565b8015158114611373575f80fd5b5f60a082840312156115f3575f80fd5b60405160a0810181811067ffffffffffffffff821117156116165761161661151a565b60405282356116248161135f565b815260208301356116348161135f565b602082015260408301356116478161135f565b6040820152606083810135908201526080830135611664816115d6565b60808201529392505050565b6001600160a01b0393909316835260208301919091526001600160801b0316604082015260600190565b5f81600f0b60016001607f1b031981036116c257634e487b7160e01b5f52601160045260245ffd5b5f0392915050565b5f602082840312156116da575f80fd5b5051919050565b5f602082840312156116f1575f80fd5b8151611494816115d656fea26469706673582212205bf820860497b6ac4c93ed971a37ec8e726620b265d3205bfe54ebe5ca9b532864736f6c63430008180033","linkReferences":{}},"methodIdentifiers":{"deposit(address,address,uint256)":"8340f549","excludeArtifacts()":"b5508aa9","excludeContracts()":"e20c9f71","excludeSenders()":"1ed7831c","failed()":"ba414fa6","lockAcquired(bytes)":"ab6291fe","manager()":"481c6a75","targetArtifactSelectors()":"66d9a9a0","targetArtifacts()":"85226c81","targetContracts()":"3f7286f4","targetInterfaces()":"2ade3880","targetSelectors()":"916a17c6","targetSenders()":"3e5e3c23","withdraw(address,address,uint256)":"d9caed12"},"id":74}