{"abi":[{"type":"constructor","inputs":[{"name":"_manager","type":"address","internalType":"contract IPoolManager"}],"stateMutability":"nonpayable"},{"type":"function","name":"excludeArtifacts","inputs":[],"outputs":[{"name":"excludedArtifacts_","type":"string[]","internalType":"string[]"}],"stateMutability":"view"},{"type":"function","name":"excludeContracts","inputs":[],"outputs":[{"name":"excludedContracts_","type":"address[]","internalType":"address[]"}],"stateMutability":"view"},{"type":"function","name":"excludeSenders","inputs":[],"outputs":[{"name":"excludedSenders_","type":"address[]","internalType":"address[]"}],"stateMutability":"view"},{"type":"function","name":"executor","inputs":[],"outputs":[{"name":"","type":"address","internalType":"contract NestedActionExecutor"}],"stateMutability":"view"},{"type":"function","name":"failed","inputs":[],"outputs":[{"name":"","type":"bool","internalType":"bool"}],"stateMutability":"view"},{"type":"function","name":"lock","inputs":[{"name":"data","type":"bytes","internalType":"bytes"}],"outputs":[],"stateMutability":"nonpayable"},{"type":"function","name":"lockAcquired","inputs":[{"name":"data","type":"bytes","internalType":"bytes"}],"outputs":[{"name":"","type":"bytes","internalType":"bytes"}],"stateMutability":"nonpayable"},{"type":"function","name":"targetArtifactSelectors","inputs":[],"outputs":[{"name":"targetedArtifactSelectors_","type":"tuple[]","internalType":"struct StdInvariant.FuzzSelector[]","components":[{"name":"addr","type":"address","internalType":"address"},{"name":"selectors","type":"bytes4[]","internalType":"bytes4[]"}]}],"stateMutability":"view"},{"type":"function","name":"targetArtifacts","inputs":[],"outputs":[{"name":"targetedArtifacts_","type":"string[]","internalType":"string[]"}],"stateMutability":"view"},{"type":"function","name":"targetContracts","inputs":[],"outputs":[{"name":"targetedContracts_","type":"address[]","internalType":"address[]"}],"stateMutability":"view"},{"type":"function","name":"targetInterfaces","inputs":[],"outputs":[{"name":"targetedInterfaces_","type":"tuple[]","internalType":"struct StdInvariant.FuzzInterface[]","components":[{"name":"addr","type":"address","internalType":"address"},{"name":"artifacts","type":"string[]","internalType":"string[]"}]}],"stateMutability":"view"},{"type":"function","name":"targetSelectors","inputs":[],"outputs":[{"name":"targetedSelectors_","type":"tuple[]","internalType":"struct StdInvariant.FuzzSelector[]","components":[{"name":"addr","type":"address","internalType":"address"},{"name":"selectors","type":"bytes4[]","internalType":"bytes4[]"}]}],"stateMutability":"view"},{"type":"function","name":"targetSenders","inputs":[],"outputs":[{"name":"targetedSenders_","type":"address[]","internalType":"address[]"}],"stateMutability":"view"},{"type":"event","name":"log","inputs":[{"name":"","type":"string","indexed":false,"internalType":"string"}],"anonymous":false},{"type":"event","name":"log_address","inputs":[{"name":"","type":"address","indexed":false,"internalType":"address"}],"anonymous":false},{"type":"event","name":"log_array","inputs":[{"name":"val","type":"uint256[]","indexed":false,"internalType":"uint256[]"}],"anonymous":false},{"type":"event","name":"log_array","inputs":[{"name":"val","type":"int256[]","indexed":false,"internalType":"int256[]"}],"anonymous":false},{"type":"event","name":"log_array","inputs":[{"name":"val","type":"address[]","indexed":false,"internalType":"address[]"}],"anonymous":false},{"type":"event","name":"log_bytes","inputs":[{"name":"","type":"bytes","indexed":false,"internalType":"bytes"}],"anonymous":false},{"type":"event","name":"log_bytes32","inputs":[{"name":"","type":"bytes32","indexed":false,"internalType":"bytes32"}],"anonymous":false},{"type":"event","name":"log_int","inputs":[{"name":"","type":"int256","indexed":false,"internalType":"int256"}],"anonymous":false},{"type":"event","name":"log_named_address","inputs":[{"name":"key","type":"string","indexed":false,"internalType":"string"},{"name":"val","type":"address","indexed":false,"internalType":"address"}],"anonymous":false},{"type":"event","name":"log_named_array","inputs":[{"name":"key","type":"string","indexed":false,"internalType":"string"},{"name":"val","type":"uint256[]","indexed":false,"internalType":"uint256[]"}],"anonymous":false},{"type":"event","name":"log_named_array","inputs":[{"name":"key","type":"string","indexed":false,"internalType":"string"},{"name":"val","type":"int256[]","indexed":false,"internalType":"int256[]"}],"anonymous":false},{"type":"event","name":"log_named_array","inputs":[{"name":"key","type":"string","indexed":false,"internalType":"string"},{"name":"val","type":"address[]","indexed":false,"internalType":"address[]"}],"anonymous":false},{"type":"event","name":"log_named_bytes","inputs":[{"name":"key","type":"string","indexed":false,"internalType":"string"},{"name":"val","type":"bytes","indexed":false,"internalType":"bytes"}],"anonymous":false},{"type":"event","name":"log_named_bytes32","inputs":[{"name":"key","type":"string","indexed":false,"internalType":"string"},{"name":"val","type":"bytes32","indexed":false,"internalType":"bytes32"}],"anonymous":false},{"type":"event","name":"log_named_decimal_int","inputs":[{"name":"key","type":"string","indexed":false,"internalType":"string"},{"name":"val","type":"int256","indexed":false,"internalType":"int256"},{"name":"decimals","type":"uint256","indexed":false,"internalType":"uint256"}],"anonymous":false},{"type":"event","name":"log_named_decimal_uint","inputs":[{"name":"key","type":"string","indexed":false,"internalType":"string"},{"name":"val","type":"uint256","indexed":false,"internalType":"uint256"},{"name":"decimals","type":"uint256","indexed":false,"internalType":"uint256"}],"anonymous":false},{"type":"event","name":"log_named_int","inputs":[{"name":"key","type":"string","indexed":false,"internalType":"string"},{"name":"val","type":"int256","indexed":false,"internalType":"int256"}],"anonymous":false},{"type":"event","name":"log_named_string","inputs":[{"name":"key","type":"string","indexed":false,"internalType":"string"},{"name":"val","type":"string","indexed":false,"internalType":"string"}],"anonymous":false},{"type":"event","name":"log_named_uint","inputs":[{"name":"key","type":"string","indexed":false,"internalType":"string"},{"name":"val","type":"uint256","indexed":false,"internalType":"uint256"}],"anonymous":false},{"type":"event","name":"log_string","inputs":[{"name":"","type":"string","indexed":false,"internalType":"string"}],"anonymous":false},{"type":"event","name":"log_uint","inputs":[{"name":"","type":"uint256","indexed":false,"internalType":"uint256"}],"anonymous":false},{"type":"event","name":"logs","inputs":[{"name":"","type":"bytes","indexed":false,"internalType":"bytes"}],"anonymous":false}],"bytecode":{"object":"0x6080604052600c805460ff1916600117905534801561001c575f80fd5b50604051620042c5380380620042c583398101604081905261003d916100d9565b601e80546001600160a01b03199081166001600160a01b0384169081179092556020805433921682179055604051610074906100cb565b6001600160a01b03928316815291166020820152604001604051809103905ff0801580156100a4573d5f803e3d5ffd5b50601f80546001600160a01b0319166001600160a01b039290921691909117905550610106565b612fc780620012fe83390190565b5f602082840312156100e9575f80fd5b81516001600160a01b03811681146100ff575f80fd5b9392505050565b6111ea80620001145f395ff3fe608060405234801561000f575f80fd5b50600436106100cb575f3560e01c806385226c8111610088578063b5508aa911610063578063b5508aa914610179578063ba414fa614610181578063c34c08e514610199578063e20c9f71146101c4575f80fd5b806385226c811461013c578063916a17c614610151578063ab6291fe14610159575f80fd5b80631ed7831c146100cf5780632ade3880146100ed5780633e5e3c23146101025780633f7286f41461010a57806366d9a9a0146101125780638154831914610127575b5f80fd5b6100d76101cc565b6040516100e49190610c2b565b60405180910390f35b6100f561022c565b6040516100e49190610cc4565b6100d7610368565b6100d76103c6565b61011a610424565b6040516100e49190610d81565b61013a610135366004610e32565b610505565b005b61014461057e565b6040516100e49190610e9e565b61011a610649565b61016c610167366004610e32565b61072a565b6040516100e49190610f00565b6101446107fb565b6101896108c6565b60405190151581526020016100e4565b601f546101ac906001600160a01b031681565b6040516001600160a01b0390911681526020016100e4565b6100d7610966565b6060601680548060200260200160405190810160405280929190818152602001828054801561022257602002820191905f5260205f20905b81546001600160a01b03168152600190910190602001808311610204575b5050505050905090565b6060601d805480602002602001604051908101604052809291908181526020015f905b8282101561035f575f84815260208082206040805180820182526002870290920180546001600160a01b03168352600181018054835181870281018701909452808452939591948681019491929084015b82821015610348578382905f5260205f200180546102bd90610f19565b80601f01602080910402602001604051908101604052809291908181526020018280546102e990610f19565b80156103345780601f1061030b57610100808354040283529160200191610334565b820191905f5260205f20905b81548152906001019060200180831161031757829003601f168201915b5050505050815260200190600101906102a0565b50505050815250508152602001906001019061024f565b50505050905090565b6060601880548060200260200160405190810160405280929190818152602001828054801561022257602002820191905f5260205f209081546001600160a01b03168152600190910190602001808311610204575050505050905090565b6060601780548060200260200160405190810160405280929190818152602001828054801561022257602002820191905f5260205f209081546001600160a01b03168152600190910190602001808311610204575050505050905090565b6060601b805480602002602001604051908101604052809291908181526020015f905b8282101561035f575f8481526020908190206040805180820182526002860290920180546001600160a01b031683526001810180548351818702810187019094528084529394919385830193928301828280156104ed57602002820191905f5260205f20905f905b82829054906101000a900460e01b6001600160e01b031916815260200190600401906020826003010492830192600103820291508084116104af5790505b50505050508152505081526020019060010190610447565b601e54604051638154831960e01b81526001600160a01b03909116906381548319906105379085908590600401610f51565b5f604051808303815f875af1158015610552573d5f803e3d5ffd5b505050506040513d5f823e601f3d908101601f191682016040526105799190810190610fc4565b505050565b6060601a805480602002602001604051908101604052809291908181526020015f905b8282101561035f578382905f5260205f200180546105be90610f19565b80601f01602080910402602001604051908101604052809291908181526020018280546105ea90610f19565b80156106355780601f1061060c57610100808354040283529160200191610635565b820191905f5260205f20905b81548152906001019060200180831161061857829003601f168201915b5050505050815260200190600101906105a1565b6060601c805480602002602001604051908101604052809291908181526020015f905b8282101561035f575f8481526020908190206040805180820182526002860290920180546001600160a01b0316835260018101805483518187028101870190945280845293949193858301939283018282801561071257602002820191905f5260205f20905f905b82829054906101000a900460e01b6001600160e01b031916815260200190600401906020826003010492830192600103820291508084116106d45790505b5050505050815250508152602001906001019061066c565b60605f61073983850185611053565b90508051600114801561077557505f815f8151811061075a5761075a611117565b6020026020010151600681111561077357610773611103565b145b15610787576107826109c4565b6107e5565b601f54604051633c9c191d60e11b81526001600160a01b0390911690637938323a906107b790849060040161112b565b5f604051808303815f87803b1580156107ce575f80fd5b505af11580156107e0573d5f803e3d5ffd5b505050505b505060408051602081019091525f815292915050565b60606019805480602002602001604051908101604052809291908181526020015f905b8282101561035f578382905f5260205f2001805461083b90610f19565b80601f016020809104026020016040519081016040528092919081815260200182805461086790610f19565b80156108b25780601f10610889576101008083540402835291602001916108b2565b820191905f5260205f20905b81548152906001019060200180831161089557829003601f168201915b50505050508152602001906001019061081e565b6008545f9060ff16156108dd575060085460ff1690565b604051630667f9d760e41b8152737109709ecfa91a80626ff3989d68f67f5b1dd12d600482018190526519985a5b195960d21b60248301525f9163667f9d7090604401602060405180830381865afa15801561093b573d5f803e3d5ffd5b505050506040513d601f19601f8201168201806040525081019061095f919061117e565b1415905090565b6060601580548060200260200160405190810160405280929190818152602001828054801561022257602002820191905f5260205f209081546001600160a01b03168152600190910190602001808311610204575050505050905090565b601e546040805163366c152d60e21b815290515f926001600160a01b03169163d9b054b49160048083019260209291908290030181865afa158015610a0b573d5f803e3d5ffd5b505050506040513d601f19601f82011682018060405250810190610a2f9190611195565b9050610a3c816001610bbf565b6040805160048082526024820183526020820180516001600160e01b03166317c3335f60e21b179052915163f28dceb360e01b8152737109709ecfa91a80626ff3989d68f67f5b1dd12d9263f28dceb392610a9992909101610f00565b5f604051808303815f87803b158015610ab0575f80fd5b505af1158015610ac2573d5f803e3d5ffd5b5050601e54604051638154831960e01b8152602060048201525f60248201526001600160a01b039091169250638154831991506044015f604051808303815f875af1158015610b13573d5f803e3d5ffd5b505050506040513d5f823e601f3d908101601f19168201604052610b3a9190810190610fc4565b50601e5f9054906101000a90046001600160a01b03166001600160a01b031663d9b054b46040518163ffffffff1660e01b8152600401602060405180830381865afa158015610b8b573d5f803e3d5ffd5b505050506040513d601f19601f82011682018060405250810190610baf9190611195565b9050610bbc816001610bbf565b50565b60405163f7fe347760e01b815282151560048201528115156024820152737109709ecfa91a80626ff3989d68f67f5b1dd12d9063f7fe3477906044015f6040518083038186803b158015610c11575f80fd5b505afa158015610c23573d5f803e3d5ffd5b505050505050565b602080825282518282018190525f9190848201906040850190845b81811015610c6b5783516001600160a01b031683529284019291840191600101610c46565b50909695505050505050565b5f5b83811015610c91578181015183820152602001610c79565b50505f910152565b5f8151808452610cb0816020860160208601610c77565b601f01601f19169290920160200192915050565b602080825282518282018190525f919060409081850190600581811b87018401888601875b84811015610d7257603f198a8403018652815180516001600160a01b03168452880151888401889052805188850181905290890190606081871b8601810191908601905f5b81811015610d5c57605f19888503018352610d4a848651610c99565b948d01949350918c0191600101610d2e565b5050509689019693505090870190600101610ce9565b50909998505050505050505050565b5f60208083018184528085518083526040925060408601915060408160051b8701018488015f5b83811015610e2457888303603f19018552815180516001600160a01b031684528701518784018790528051878501819052908801905f9060608601905b80831015610e0f5783516001600160e01b0319168252928a019260019290920191908a0190610de5565b50968901969450505090860190600101610da8565b509098975050505050505050565b5f8060208385031215610e43575f80fd5b823567ffffffffffffffff80821115610e5a575f80fd5b818501915085601f830112610e6d575f80fd5b813581811115610e7b575f80fd5b866020828501011115610e8c575f80fd5b60209290920196919550909350505050565b5f60208083016020845280855180835260408601915060408160051b8701019250602087015f5b82811015610ef357603f19888603018452610ee1858351610c99565b94509285019290850190600101610ec5565b5092979650505050505050565b602081525f610f126020830184610c99565b9392505050565b600181811c90821680610f2d57607f821691505b602082108103610f4b57634e487b7160e01b5f52602260045260245ffd5b50919050565b60208152816020820152818360408301375f818301604090810191909152601f909201601f19160101919050565b634e487b7160e01b5f52604160045260245ffd5b604051601f8201601f1916810167ffffffffffffffff81118282101715610fbc57610fbc610f7f565b604052919050565b5f60208284031215610fd4575f80fd5b815167ffffffffffffffff80821115610feb575f80fd5b818401915084601f830112610ffe575f80fd5b81518181111561101057611010610f7f565b611023601f8201601f1916602001610f93565b9150808252856020828501011115611039575f80fd5b61104a816020840160208601610c77565b50949350505050565b5f6020808385031215611064575f80fd5b823567ffffffffffffffff8082111561107b575f80fd5b818501915085601f83011261108e575f80fd5b8135818111156110a0576110a0610f7f565b8060051b91506110b1848301610f93565b81815291830184019184810190888411156110ca575f80fd5b938501935b838510156110f75784359250600783106110e7575f80fd5b82825293850193908501906110cf565b98975050505050505050565b634e487b7160e01b5f52602160045260245ffd5b634e487b7160e01b5f52603260045260245ffd5b602080825282518282018190525f9190848201906040850190845b81811015610c6b5783516007811061116c57634e487b7160e01b5f52602160045260245ffd5b83529284019291840191600101611146565b5f6020828403121561118e575f80fd5b5051919050565b5f602082840312156111a5575f80fd5b81518015158114610f12575f80fdfea264697066735822122097b1c1619f328f611e6d83e8dd3ec25bfc3bace5fab63c8f3059e6fa9b462e5f64736f6c63430008180033600c805460ff19908116600190811790925560771960a0819052607860c0819052670de0b6b3a764000060e0819052602280546378ffff8865ffffffffffff1991821681179092556023929092556101009390935261012091909152670de0b6b3a763ffff196101408190526024805490921690921790556025556101c06040526101608290526063196101808190526bb504f333f9de6484597d89b36101a081905260268054909316909317909155602755602880546001600160a01b03191690911790556402dfd1c040602955633ade57d0602a55348015620000e2575f80fd5b5060405162002fc738038062002fc7833981016040819052620001059162000146565b6001600160a01b03918216608052602180546001600160a01b0319169190921617905562000183565b6001600160a01b038116811462000143575f80fd5b50565b5f806040838503121562000158575f80fd5b825162000165816200012e565b602084015190925062000178816200012e565b809150509250929050565b608051612d83620002445f395f81816101c201528181610a8d01528181610bbc01528181610c3501528181610cc601528181610de7015281816110a5015281816111c6015281816113b9015281816114da01528181611698015281816117b9015281816119ef01528181611b1001528181611bb501528181611c5101528181611d8001528181611dc601528181611e5b01528181611f6801528181612022015281816120e8015281816121540152818161225f01526122bd0152612d835ff3fe608060405234801561000f575f80fd5b50600436106100e5575f3560e01c80637938323a11610088578063ab6291fe11610063578063ab6291fe14610241578063b5508aa914610261578063ba414fa614610269578063e20c9f7114610281575f80fd5b80637938323a1461021157806385226c8114610224578063916a17c614610239575f80fd5b80633e5e3c23116100c35780633e5e3c23146101ad5780633f7286f4146101b5578063481c6a75146101bd57806366d9a9a0146101fc575f80fd5b80631b9ec89e146100e95780631ed7831c1461017a5780632ade388014610198575b5f80fd5b6101786100f736600461257b565b8051601e80546001600160a01b03199081166001600160a01b0393841617909155602080840151601f8054604087015160608801519387166001600160b81b031990921691909117600160a01b62ffffff928316021762ffffff60b81b1916600160b81b919093160291909117905560809093015183549091169116179055565b005b610182610289565b60405161018f9190612611565b60405180910390f35b6101a06102e9565b60405161018f91906126aa565b610182610425565b610182610483565b6101e47f000000000000000000000000000000000000000000000000000000000000000081565b6040516001600160a01b03909116815260200161018f565b6102046104e1565b60405161018f9190612767565b61017861021f366004612818565b6105c2565b61022c610700565b60405161018f91906128c8565b6102046107cb565b61025461024f36600461292a565b6108ac565b60405161018f9190612996565b61022c6108c1565b61027161098c565b604051901515815260200161018f565b610182610a2c565b606060168054806020026020016040519081016040528092919081815260200182805480156102df57602002820191905f5260205f20905b81546001600160a01b031681526001909101906020018083116102c1575b5050505050905090565b6060601d805480602002602001604051908101604052809291908181526020015f905b8282101561041c575f84815260208082206040805180820182526002870290920180546001600160a01b03168352600181018054835181870281018701909452808452939591948681019491929084015b82821015610405578382905f5260205f2001805461037a906129af565b80601f01602080910402602001604051908101604052809291908181526020018280546103a6906129af565b80156103f15780601f106103c8576101008083540402835291602001916103f1565b820191905f5260205f20905b8154815290600101906020018083116103d457829003601f168201915b50505050508152602001906001019061035d565b50505050815250508152602001906001019061030c565b50505050905090565b606060188054806020026020016040519081016040528092919081815260200182805480156102df57602002820191905f5260205f209081546001600160a01b031681526001909101906020018083116102c1575050505050905090565b606060178054806020026020016040519081016040528092919081815260200182805480156102df57602002820191905f5260205f209081546001600160a01b031681526001909101906020018083116102c1575050505050905090565b6060601b805480602002602001604051908101604052809291908181526020015f905b8282101561041c575f8481526020908190206040805180820182526002860290920180546001600160a01b031683526001810180548351818702810187019094528084529394919385830193928301828280156105aa57602002820191905f5260205f20905f905b82829054906101000a900460e01b6001600160e01b0319168152602001906004019060208260030104928301926001038202915080841161056c5790505b50505050508152505081526020019060010190610504565b601e546001600160a01b03166105eb57604051639096cccb60e01b815260040160405180910390fd5b5f5b81518110156106fc575f828281518110610609576106096129e7565b6020026020010151905060016006811115610626576106266129fb565b816006811115610638576106386129fb565b0361064a57610645610a8a565b6106f3565b600281600681111561065e5761065e6129fb565b0361066c5761064533610cc3565b6004816006811115610680576106806129fb565b0361068e57610645336110a2565b60058160068111156106a2576106a26129fb565b036106b057610645336113b6565b60038160068111156106c4576106c46129fb565b036106d25761064533611695565b60068160068111156106e6576106e66129fb565b036106f3576106f36119ec565b506001016105ed565b5050565b6060601a805480602002602001604051908101604052809291908181526020015f905b8282101561041c578382905f5260205f20018054610740906129af565b80601f016020809104026020016040519081016040528092919081815260200182805461076c906129af565b80156107b75780601f1061078e576101008083540402835291602001916107b7565b820191905f5260205f20905b81548152906001019060200180831161079a57829003601f168201915b505050505081526020019060010190610723565b6060601c805480602002602001604051908101604052809291908181526020015f905b8282101561041c575f8481526020908190206040805180820182526002860290920180546001600160a01b0316835260018101805483518187028101870190945280845293949193858301939283018282801561089457602002820191905f5260205f20905f905b82829054906101000a900460e01b6001600160e01b031916815260200190600401906020826003010492830192600103820291508084116108565790505b505050505081525050815260200190600101906107ee565b60408051602081019091525f81525b92915050565b60606019805480602002602001604051908101604052809291908181526020015f905b8282101561041c578382905f5260205f20018054610901906129af565b80601f016020809104026020016040519081016040528092919081815260200182805461092d906129af565b80156109785780601f1061094f57610100808354040283529160200191610978565b820191905f5260205f20905b81548152906001019060200180831161095b57829003601f168201915b5050505050815260200190600101906108e4565b6008545f9060ff16156109a3575060085460ff1690565b604051630667f9d760e41b8152737109709ecfa91a80626ff3989d68f67f5b1dd12d600482018190526519985a5b195960d21b60248301525f9163667f9d7090604401602060405180830381865afa158015610a01573d5f803e3d5ffd5b505050506040513d601f19601f82011682018060405250810190610a259190612a0f565b1415905090565b606060158054806020026020016040519081016040528092919081815260200182805480156102df57602002820191905f5260205f209081546001600160a01b031681526001909101906020018083116102c1575050505050905090565b5f7f00000000000000000000000000000000000000000000000000000000000000006001600160a01b031663d9b054b46040518163ffffffff1660e01b8152600401602060405180830381865afa158015610ae7573d5f803e3d5ffd5b505050506040513d601f19601f82011682018060405250810190610b0b9190612a26565b9050610b18816001611ceb565b6040805160048082526024820183526020820180516001600160e01b03166317c3335f60e21b179052915163f28dceb360e01b8152737109709ecfa91a80626ff3989d68f67f5b1dd12d9263f28dceb392610b7592909101612996565b5f604051808303815f87803b158015610b8c575f80fd5b505af1158015610b9e573d5f803e3d5ffd5b5050604051638154831960e01b8152602060048201525f60248201527f00000000000000000000000000000000000000000000000000000000000000006001600160a01b03169250638154831991506044015f604051808303815f875af1158015610c0b573d5f803e3d5ffd5b505050506040513d5f823e601f3d908101601f19168201604052610c329190810190612a45565b507f00000000000000000000000000000000000000000000000000000000000000006001600160a01b031663d9b054b46040518163ffffffff1660e01b8152600401602060405180830381865afa158015610c8f573d5f803e3d5ffd5b505050506040513d601f19601f82011682018060405250810190610cb39190612a26565b9050610cc0816001611ceb565b50565b5f7f00000000000000000000000000000000000000000000000000000000000000006001600160a01b031663d9b054b46040518163ffffffff1660e01b8152600401602060405180830381865afa158015610d20573d5f803e3d5ffd5b505050506040513d601f19601f82011682018060405250810190610d449190612a26565b9050610d51816001611ceb565b601e546021545f91610d70916001600160a01b03918216911685611d58565b601f546021549195505f9450610d9593506001600160a01b0390811692501686611d58565b601e546021549195505f9450610dba93506001600160a01b0390811692501630611d58565b601f546021549195505f9450610ddf93506001600160a01b0390811692501630611d58565b93505050505f7f00000000000000000000000000000000000000000000000000000000000000006001600160a01b031663f3cd914c601e60266040518363ffffffff1660e01b8152600401610e35929190612b19565b6020604051808303815f875af1158015610e51573d5f803e3d5ffd5b505050506040513d601f19601f82011682018060405250810190610e759190612a0f565b601e546021549192505f91610e97916001600160a01b0390811691168a611d58565b601f546021549195505f9450610ebc93506001600160a01b039081169250168b611d58565b601e546021549195505f9450610ee193506001600160a01b0390811692501630611d58565b601f546021549195505f9450610f0693506001600160a01b0390811692501630611d58565b9350505050610f3c89856040518060400160405280600e81526020016d043616c6c65722064656c746120360941b815250611ed1565b610f6d88846040518060400160405280600e81526020016d43616c6c65722064656c7461203160901b815250611ed1565b602754610fad90610f7e9089612b7f565b836040518060400160405280601081526020016f04578656375746f722064656c746120360841b815250611ed1565b610fea610fbb876062612b7f565b826040518060400160405280601081526020016f4578656375746f722064656c7461203160801b815250611ed1565b611025610ff78660801c90565b600f0b836040518060400160405280600c81526020016b0537761702064656c746120360a41b815250611ed1565b61105785600f0b826040518060400160405280600c81526020016b537761702064656c7461203160a01b815250611ed1565b601e54602154611076916001600160a01b039081169116846001611f3d565b601f54602154611095916001600160a01b039081169116836001612216565b5050505050505050505050565b5f7f00000000000000000000000000000000000000000000000000000000000000006001600160a01b031663d9b054b46040518163ffffffff1660e01b8152600401602060405180830381865afa1580156110ff573d5f803e3d5ffd5b505050506040513d601f19601f820116820180604052508101906111239190612a26565b9050611130816001611ceb565b601e546021545f9161114f916001600160a01b03918216911685611d58565b601f546021549195505f945061117493506001600160a01b0390811692501686611d58565b601e546021549195505f945061119993506001600160a01b0390811692501630611d58565b601f546021549195505f94506111be93506001600160a01b0390811692501630611d58565b93505050505f7f00000000000000000000000000000000000000000000000000000000000000006001600160a01b031663bec999dd601e60226040518363ffffffff1660e01b8152600401611214929190612ba6565b6020604051808303815f875af1158015611230573d5f803e3d5ffd5b505050506040513d601f19601f820116820180604052508101906112549190612a0f565b601e546021549192505f91611276916001600160a01b0390811691168a611d58565b601f546021549195505f945061129b93506001600160a01b039081169250168b611d58565b601e546021549195505f94506112c093506001600160a01b0390811692501630611d58565b601f546021549195505f94506112e593506001600160a01b0390811692501630611d58565b935050505061131b89856040518060400160405280600e81526020016d043616c6c65722064656c746120360941b815250611ed1565b61134c88846040518060400160405280600e81526020016d43616c6c65722064656c7461203160901b815250611ed1565b6113666113598660801c90565b610f7e90600f0b89612b7f565b611378855b610fbb90600f0b88612b7f565b601e54602154611397916001600160a01b039081169116846001611f3d565b601f54602154611095916001600160a01b039081169116836001611f3d565b5f7f00000000000000000000000000000000000000000000000000000000000000006001600160a01b031663d9b054b46040518163ffffffff1660e01b8152600401602060405180830381865afa158015611413573d5f803e3d5ffd5b505050506040513d601f19601f820116820180604052508101906114379190612a26565b9050611444816001611ceb565b601e546021545f91611463916001600160a01b03918216911685611d58565b601f546021549195505f945061148893506001600160a01b0390811692501686611d58565b601e546021549195505f94506114ad93506001600160a01b0390811692501630611d58565b601f546021549195505f94506114d293506001600160a01b0390811692501630611d58565b93505050505f7f00000000000000000000000000000000000000000000000000000000000000006001600160a01b031663bec999dd601e60246040518363ffffffff1660e01b8152600401611528929190612ba6565b6020604051808303815f875af1158015611544573d5f803e3d5ffd5b505050506040513d601f19601f820116820180604052508101906115689190612a0f565b601e546021549192505f9161158a916001600160a01b0390811691168a611d58565b601f546021549195505f94506115af93506001600160a01b039081169250168b611d58565b601e546021549195505f94506115d493506001600160a01b0390811692501630611d58565b601f546021549195505f94506115f993506001600160a01b0390811692501630611d58565b935050505061162f89856040518060400160405280600e81526020016d043616c6c65722064656c746120360941b815250611ed1565b61166088846040518060400160405280600e81526020016d43616c6c65722064656c7461203160901b815250611ed1565b61166d6113598660801c90565b6116768561136b565b601e54602154611076916001600160a01b039081169116846001612216565b5f7f00000000000000000000000000000000000000000000000000000000000000006001600160a01b031663d9b054b46040518163ffffffff1660e01b8152600401602060405180830381865afa1580156116f2573d5f803e3d5ffd5b505050506040513d601f19601f820116820180604052508101906117169190612a26565b9050611723816001611ceb565b601e546021545f91611742916001600160a01b03918216911685611d58565b601f546021549195505f945061176793506001600160a01b0390811692501686611d58565b601e546021549195505f945061178c93506001600160a01b0390811692501630611d58565b601f546021549195505f94506117b193506001600160a01b0390811692501630611d58565b93505050505f7f00000000000000000000000000000000000000000000000000000000000000006001600160a01b031663234266d7601e602954602a546040518463ffffffff1660e01b815260040161180c93929190612bf1565b6020604051808303815f875af1158015611828573d5f803e3d5ffd5b505050506040513d601f19601f8201168201806040525081019061184c9190612a0f565b601e546021549192505f9161186e916001600160a01b0390811691168a611d58565b601f546021549195505f945061189393506001600160a01b039081169250168b611d58565b601e546021549195505f94506118b893506001600160a01b0390811692501630611d58565b601f546021549195505f94506118dd93506001600160a01b0390811692501630611d58565b935050505061191389856040518060400160405280600e81526020016d043616c6c65722064656c746120360941b815250611ed1565b61194488846040518060400160405280600e81526020016d43616c6c65722064656c7461203160901b815250611ed1565b61195560295488610f7e9190612c26565b611966602a5487610fbb9190612c26565b6119ae6119738660801c90565b61197c90612c4c565b600f0b6029546040518060400160405280600e81526020016d0446f6e6174652064656c746120360941b815250611ed1565b6113786119ba86612c4c565b600f0b602a546040518060400160405280600e81526020016d446f6e6174652064656c7461203160901b815250611ed1565b5f7f00000000000000000000000000000000000000000000000000000000000000006001600160a01b031663d9b054b46040518163ffffffff1660e01b8152600401602060405180830381865afa158015611a49573d5f803e3d5ffd5b505050506040513d601f19601f82011682018060405250810190611a6d9190612a26565b9050611a7a816001611ceb565b601f8054601960b91b62ffffff60b81b19821617918290556040805160a081018252601e546001600160a01b039081168252928316602080830191909152600160a01b850462ffffff1692820192909252600160b81b90930460020b6060840152541660808201525f90611aed90612344565b604051633205590760e21b8152600481018290529091505f906001600160a01b037f0000000000000000000000000000000000000000000000000000000000000000169063c815641c90602401608060405180830381865afa158015611b55573d5f803e3d5ffd5b505050506040513d601f19601f82011682018060405250810190611b799190612c79565b5050506001600160a01b03169050611b91815f6123b9565b604080515f8152602081019182905263695c5bf560e01b9091526001600160a01b037f0000000000000000000000000000000000000000000000000000000000000000169063695c5bf590611bfa90601e906bb504f333f9de6484597d89b39060248101612cdb565b6020604051808303815f875af1158015611c16573d5f803e3d5ffd5b505050506040513d601f19601f82011682018060405250810190611c3a9190612d14565b50604051633205590760e21b8152600481018390527f00000000000000000000000000000000000000000000000000000000000000006001600160a01b03169063c815641c90602401608060405180830381865afa158015611c9e573d5f803e3d5ffd5b505050506040513d601f19601f82011682018060405250810190611cc29190612c79565b5050506001600160a01b03169050611ce6816bb504f333f9de6484597d89b36123b9565b505050565b60405163f7fe347760e01b815282151560048201528115156024820152737109709ecfa91a80626ff3989d68f67f5b1dd12d9063f7fe3477906044015b5f6040518083038186803b158015611d3e575f80fd5b505afa158015611d50573d5f803e3d5ffd5b505050505050565b5f808080611d6f6001600160a01b038816876123f8565b9350611da46001600160a01b0388167f00000000000000000000000000000000000000000000000000000000000000006123f8565b6040516393c85a2160e01b81526001600160a01b0389811660048301529194507f0000000000000000000000000000000000000000000000000000000000000000909116906393c85a2190602401602060405180830381865afa158015611e0d573d5f803e3d5ffd5b505050506040513d601f19601f82011682018060405250810190611e319190612a0f565b60405163a54b283160e01b81526001600160a01b03878116600483015289811660248301529193507f00000000000000000000000000000000000000000000000000000000000000009091169063a54b283190604401602060405180830381865afa158015611ea2573d5f803e3d5ffd5b505050506040513d601f19601f82011682018060405250810190611ec69190612a0f565b905093509350935093565b60405163714a2f1360e01b8152737109709ecfa91a80626ff3989d68f67f5b1dd12d9063714a2f1390611f0c90869086908690600401612d2f565b5f6040518083038186803b158015611f22575f80fd5b505afa158015611f34573d5f803e3d5ffd5b50505050505050565b611f4a82600f0b5f612487565b8015612152576001600160a01b038416612010576001600160a01b037f000000000000000000000000000000000000000000000000000000000000000016636a256b29611f9684612c4c565b6040516001600160e01b031960e084901b1681526001600160a01b03881660048201526001600160801b03919091169060240160206040518083038185885af1158015611fe5573d5f803e3d5ffd5b50505050506040513d601f19601f8201168201806040525081019061200a9190612a0f565b50612210565b6001600160a01b0384166323b872dd847f000000000000000000000000000000000000000000000000000000000000000061204a86612c4c565b6040516001600160e01b031960e086901b1681526001600160a01b0393841660048201529290911660248301526001600160801b031660448201526064016020604051808303815f875af11580156120a4573d5f803e3d5ffd5b505050506040513d601f19601f820116820180604052508101906120c89190612a26565b50604051636a256b2960e01b81526001600160a01b0385811660048301527f00000000000000000000000000000000000000000000000000000000000000001690636a256b29906024016020604051808303815f875af115801561212e573d5f803e3d5ffd5b505050506040513d601f19601f8201168201806040525081019061200a9190612a0f565b7f00000000000000000000000000000000000000000000000000000000000000006001600160a01b031663f5298aca8461219b876001600160a01b03166001600160a01b031690565b6121a486612c4c565b6040516001600160e01b031960e086901b1681526001600160a01b03909316600484015260248301919091526001600160801b031660448201526064015b5f604051808303815f87803b1580156121f9575f80fd5b505af115801561220b573d5f803e3d5ffd5b505050505b50505050565b61222382600f0b5f6124c5565b80156122bb57604051630b0d9c0960e01b81526001600160a01b03858116600483015284811660248301526001600160801b03841660448301527f00000000000000000000000000000000000000000000000000000000000000001690630b0d9c09906064015f604051808303815f87803b1580156122a0575f80fd5b505af11580156122b2573d5f803e3d5ffd5b50505050612210565b7f00000000000000000000000000000000000000000000000000000000000000006001600160a01b031663156e29f684612304876001600160a01b03166001600160a01b031690565b6040516001600160e01b031960e085901b1681526001600160a01b03909216600483015260248201526001600160801b03851660448201526064016121e2565b5f8160405160200161239c919081516001600160a01b03908116825260208084015182169083015260408084015162ffffff169083015260608084015160020b90830152608092830151169181019190915260a00190565b604051602081830303815290604052805190602001209050919050565b60405163260a5b1560e21b81526004810183905260248101829052737109709ecfa91a80626ff3989d68f67f5b1dd12d906398296c5490604401611d28565b5f6001600160a01b03831661241857506001600160a01b038116316108bb565b6040516370a0823160e01b81526001600160a01b0383811660048301528416906370a0823190602401602060405180830381865afa15801561245c573d5f803e3d5ffd5b505050506040513d601f19601f820116820180604052508101906124809190612a0f565b90506108bb565b604051627d228160e71b81526004810183905260248101829052737109709ecfa91a80626ff3989d68f67f5b1dd12d90633e91408090604401611d28565b604051635a362d4560e01b81526004810183905260248101829052737109709ecfa91a80626ff3989d68f67f5b1dd12d90635a362d4590604401611d28565b634e487b7160e01b5f52604160045260245ffd5b604051601f8201601f1916810167ffffffffffffffff8111828210171561254157612541612504565b604052919050565b6001600160a01b0381168114610cc0575f80fd5b62ffffff81168114610cc0575f80fd5b8060020b8114610cc0575f80fd5b5f60a0828403121561258b575f80fd5b60405160a0810181811067ffffffffffffffff821117156125ae576125ae612504565b60405282356125bc81612549565b815260208301356125cc81612549565b602082015260408301356125df8161255d565b604082015260608301356125f28161256d565b6060820152608083013561260581612549565b60808201529392505050565b602080825282518282018190525f9190848201906040850190845b818110156126515783516001600160a01b03168352928401929184019160010161262c565b50909695505050505050565b5f5b8381101561267757818101518382015260200161265f565b50505f910152565b5f815180845261269681602086016020860161265d565b601f01601f19169290920160200192915050565b602080825282518282018190525f919060409081850190600581811b87018401888601875b8481101561275857603f198a8403018652815180516001600160a01b03168452880151888401889052805188850181905290890190606081871b8601810191908601905f5b8181101561274257605f1988850301835261273084865161267f565b948d01949350918c0191600101612714565b50505096890196935050908701906001016126cf565b50909998505050505050505050565b5f60208083018184528085518083526040925060408601915060408160051b8701018488015f5b8381101561280a57888303603f19018552815180516001600160a01b031684528701518784018790528051878501819052908801905f9060608601905b808310156127f55783516001600160e01b0319168252928a019260019290920191908a01906127cb565b5096890196945050509086019060010161278e565b509098975050505050505050565b5f6020808385031215612829575f80fd5b823567ffffffffffffffff80821115612840575f80fd5b818501915085601f830112612853575f80fd5b81358181111561286557612865612504565b8060051b9150612876848301612518565b818152918301840191848101908884111561288f575f80fd5b938501935b838510156128bc5784359250600783106128ac575f80fd5b8282529385019390850190612894565b98975050505050505050565b5f60208083016020845280855180835260408601915060408160051b8701019250602087015f5b8281101561291d57603f1988860301845261290b85835161267f565b945092850192908501906001016128ef565b5092979650505050505050565b5f806020838503121561293b575f80fd5b823567ffffffffffffffff80821115612952575f80fd5b818501915085601f830112612965575f80fd5b813581811115612973575f80fd5b866020828501011115612984575f80fd5b60209290920196919550909350505050565b602081525f6129a8602083018461267f565b9392505050565b600181811c908216806129c357607f821691505b6020821081036129e157634e487b7160e01b5f52602260045260245ffd5b50919050565b634e487b7160e01b5f52603260045260245ffd5b634e487b7160e01b5f52602160045260245ffd5b5f60208284031215612a1f575f80fd5b5051919050565b5f60208284031215612a36575f80fd5b815180151581146129a8575f80fd5b5f60208284031215612a55575f80fd5b815167ffffffffffffffff80821115612a6c575f80fd5b818401915084601f830112612a7f575f80fd5b815181811115612a9157612a91612504565b612aa4601f8201601f1916602001612518565b9150808252856020828501011115612aba575f80fd5b612acb81602084016020860161265d565b50949350505050565b80546001600160a01b0390811683526001820154808216602085015260a081901c62ffffff16604085015260b81c600290810b60608501529091015416608090910152565b5f610120612b278386612ad4565b835460ff16151560a0840152600184015460c08401526002909301546001600160a01b031660e08301525061010081018290525f9181019190915261014001919050565b634e487b7160e01b5f52601160045260245ffd5b8082018281125f831280158216821582161715612b9e57612b9e612b6b565b505092915050565b5f610120612bb48386612ad4565b83548060020b60a08501528060181c60020b60c085015250600184015460e0840152806101008401525f8184015250610140820190509392505050565b5f610100612bff8387612ad4565b8460a08401528360c08401528060e08401525f818401525061012082019050949350505050565b8181035f831280158383131683831282161715612c4557612c45612b6b565b5092915050565b5f81600f0b6f7fffffffffffffffffffffffffffffff198103612c7157612c71612b6b565b5f0392915050565b5f805f8060808587031215612c8c575f80fd5b8451612c9781612549565b6020860151909450612ca88161256d565b604086015190935061ffff81168114612cbf575f80fd5b6060860151909250612cd08161255d565b939692955090935050565b612ce58185612ad4565b6001600160a01b03831660a082015260e060c082018190525f90612d0b9083018461267f565b95945050505050565b5f60208284031215612d24575f80fd5b81516129a88161256d565b838152826020820152606060408201525f612d0b606083018461267f56fea26469706673582212201ae1f54777a1945e04b845389c41e5836a718bb9d0d7a3abfb87d8dff8693f0564736f6c63430008180033","linkReferences":{}},"methodIdentifiers":{"excludeArtifacts()":"b5508aa9","excludeContracts()":"e20c9f71","excludeSenders()":"1ed7831c","executor()":"c34c08e5","failed()":"ba414fa6","lock(bytes)":"81548319","lockAcquired(bytes)":"ab6291fe","targetArtifactSelectors()":"66d9a9a0","targetArtifacts()":"85226c81","targetContracts()":"3f7286f4","targetInterfaces()":"2ade3880","targetSelectors()":"916a17c6","targetSenders()":"3e5e3c23"},"id":77}