{"abi":[{"type":"constructor","inputs":[{"name":"registerSystem","type":"address","internalType":"address"}],"stateMutability":"nonpayable"},{"type":"function","name":"swapInPool","inputs":[{"name":"amountIn","type":"uint256","internalType":"uint256"}],"outputs":[{"name":"amountOut","type":"uint256","internalType":"uint256"}],"stateMutability":"nonpayable"}],"bytecode":{"object":"0x608060405234801561000f575f80fd5b5060405161012338038061012383398101604081905261002e91610052565b5f80546001600160a01b0319166001600160a01b039290921691909117905561007f565b5f60208284031215610062575f80fd5b81516001600160a01b0381168114610078575f80fd5b9392505050565b60988061008b5f395ff3fe6080604052348015600e575f80fd5b50600436106026575f3560e01c8063022e0e2914602a575b5f80fd5b603a6035366004604c565b505f90565b60405190815260200160405180910390f35b5f60208284031215605b575f80fd5b503591905056fea26469706673582212209c2d48309b03b7b9b0448b91b99c35f9b2979b695b5b4b160ba8904a1f04a62f64736f6c63430008180033","linkReferences":{}},"methodIdentifiers":{"swapInPool(uint256)":"022e0e29"},"id":88}