{"abi":[{"type":"constructor","inputs":[{"name":"_manager","type":"address","internalType":"contract IPoolManager"}],"stateMutability":"nonpayable"},{"type":"function","name":"excludeArtifacts","inputs":[],"outputs":[{"name":"excludedArtifacts_","type":"string[]","internalType":"string[]"}],"stateMutability":"view"},{"type":"function","name":"excludeContracts","inputs":[],"outputs":[{"name":"excludedContracts_","type":"address[]","internalType":"address[]"}],"stateMutability":"view"},{"type":"function","name":"excludeSenders","inputs":[],"outputs":[{"name":"excludedSenders_","type":"address[]","internalType":"address[]"}],"stateMutability":"view"},{"type":"function","name":"failed","inputs":[],"outputs":[{"name":"","type":"bool","internalType":"bool"}],"stateMutability":"view"},{"type":"function","name":"lockAcquired","inputs":[{"name":"rawData","type":"bytes","internalType":"bytes"}],"outputs":[{"name":"","type":"bytes","internalType":"bytes"}],"stateMutability":"nonpayable"},{"type":"function","name":"manager","inputs":[],"outputs":[{"name":"","type":"address","internalType":"contract IPoolManager"}],"stateMutability":"view"},{"type":"function","name":"modifyLiquidity","inputs":[{"name":"key","type":"tuple","internalType":"struct PoolKey","components":[{"name":"currency0","type":"address","internalType":"Currency"},{"name":"currency1","type":"address","internalType":"Currency"},{"name":"fee","type":"uint24","internalType":"uint24"},{"name":"tickSpacing","type":"int24","internalType":"int24"},{"name":"hooks","type":"address","internalType":"contract IHooks"}]},{"name":"params","type":"tuple","internalType":"struct IPoolManager.ModifyLiquidityParams","components":[{"name":"tickLower","type":"int24","internalType":"int24"},{"name":"tickUpper","type":"int24","internalType":"int24"},{"name":"liquidityDelta","type":"int256","internalType":"int256"}]},{"name":"hookData","type":"bytes","internalType":"bytes"},{"name":"settleUsingTransfer","type":"bool","internalType":"bool"},{"name":"withdrawTokens","type":"bool","internalType":"bool"}],"outputs":[{"name":"delta","type":"int256","internalType":"BalanceDelta"}],"stateMutability":"payable"},{"type":"function","name":"modifyLiquidity","inputs":[{"name":"key","type":"tuple","internalType":"struct PoolKey","components":[{"name":"currency0","type":"address","internalType":"Currency"},{"name":"currency1","type":"address","internalType":"Currency"},{"name":"fee","type":"uint24","internalType":"uint24"},{"name":"tickSpacing","type":"int24","internalType":"int24"},{"name":"hooks","type":"address","internalType":"contract IHooks"}]},{"name":"params","type":"tuple","internalType":"struct IPoolManager.ModifyLiquidityParams","components":[{"name":"tickLower","type":"int24","internalType":"int24"},{"name":"tickUpper","type":"int24","internalType":"int24"},{"name":"liquidityDelta","type":"int256","internalType":"int256"}]},{"name":"hookData","type":"bytes","internalType":"bytes"}],"outputs":[{"name":"delta","type":"int256","internalType":"BalanceDelta"}],"stateMutability":"payable"},{"type":"function","name":"targetArtifactSelectors","inputs":[],"outputs":[{"name":"targetedArtifactSelectors_","type":"tuple[]","internalType":"struct StdInvariant.FuzzSelector[]","components":[{"name":"addr","type":"address","internalType":"address"},{"name":"selectors","type":"bytes4[]","internalType":"bytes4[]"}]}],"stateMutability":"view"},{"type":"function","name":"targetArtifacts","inputs":[],"outputs":[{"name":"targetedArtifacts_","type":"string[]","internalType":"string[]"}],"stateMutability":"view"},{"type":"function","name":"targetContracts","inputs":[],"outputs":[{"name":"targetedContracts_","type":"address[]","internalType":"address[]"}],"stateMutability":"view"},{"type":"function","name":"targetInterfaces","inputs":[],"outputs":[{"name":"targetedInterfaces_","type":"tuple[]","internalType":"struct StdInvariant.FuzzInterface[]","components":[{"name":"addr","type":"address","internalType":"address"},{"name":"artifacts","type":"string[]","internalType":"string[]"}]}],"stateMutability":"view"},{"type":"function","name":"targetSelectors","inputs":[],"outputs":[{"name":"targetedSelectors_","type":"tuple[]","internalType":"struct StdInvariant.FuzzSelector[]","components":[{"name":"addr","type":"address","internalType":"address"},{"name":"selectors","type":"bytes4[]","internalType":"bytes4[]"}]}],"stateMutability":"view"},{"type":"function","name":"targetSenders","inputs":[],"outputs":[{"name":"targetedSenders_","type":"address[]","internalType":"address[]"}],"stateMutability":"view"},{"type":"event","name":"log","inputs":[{"name":"","type":"string","indexed":false,"internalType":"string"}],"anonymous":false},{"type":"event","name":"log_address","inputs":[{"name":"","type":"address","indexed":false,"internalType":"address"}],"anonymous":false},{"type":"event","name":"log_array","inputs":[{"name":"val","type":"uint256[]","indexed":false,"internalType":"uint256[]"}],"anonymous":false},{"type":"event","name":"log_array","inputs":[{"name":"val","type":"int256[]","indexed":false,"internalType":"int256[]"}],"anonymous":false},{"type":"event","name":"log_array","inputs":[{"name":"val","type":"address[]","indexed":false,"internalType":"address[]"}],"anonymous":false},{"type":"event","name":"log_bytes","inputs":[{"name":"","type":"bytes","indexed":false,"internalType":"bytes"}],"anonymous":false},{"type":"event","name":"log_bytes32","inputs":[{"name":"","type":"bytes32","indexed":false,"internalType":"bytes32"}],"anonymous":false},{"type":"event","name":"log_int","inputs":[{"name":"","type":"int256","indexed":false,"internalType":"int256"}],"anonymous":false},{"type":"event","name":"log_named_address","inputs":[{"name":"key","type":"string","indexed":false,"internalType":"string"},{"name":"val","type":"address","indexed":false,"internalType":"address"}],"anonymous":false},{"type":"event","name":"log_named_array","inputs":[{"name":"key","type":"string","indexed":false,"internalType":"string"},{"name":"val","type":"uint256[]","indexed":false,"internalType":"uint256[]"}],"anonymous":false},{"type":"event","name":"log_named_array","inputs":[{"name":"key","type":"string","indexed":false,"internalType":"string"},{"name":"val","type":"int256[]","indexed":false,"internalType":"int256[]"}],"anonymous":false},{"type":"event","name":"log_named_array","inputs":[{"name":"key","type":"string","indexed":false,"internalType":"string"},{"name":"val","type":"address[]","indexed":false,"internalType":"address[]"}],"anonymous":false},{"type":"event","name":"log_named_bytes","inputs":[{"name":"key","type":"string","indexed":false,"internalType":"string"},{"name":"val","type":"bytes","indexed":false,"internalType":"bytes"}],"anonymous":false},{"type":"event","name":"log_named_bytes32","inputs":[{"name":"key","type":"string","indexed":false,"internalType":"string"},{"name":"val","type":"bytes32","indexed":false,"internalType":"bytes32"}],"anonymous":false},{"type":"event","name":"log_named_decimal_int","inputs":[{"name":"key","type":"string","indexed":false,"internalType":"string"},{"name":"val","type":"int256","indexed":false,"internalType":"int256"},{"name":"decimals","type":"uint256","indexed":false,"internalType":"uint256"}],"anonymous":false},{"type":"event","name":"log_named_decimal_uint","inputs":[{"name":"key","type":"string","indexed":false,"internalType":"string"},{"name":"val","type":"uint256","indexed":false,"internalType":"uint256"},{"name":"decimals","type":"uint256","indexed":false,"internalType":"uint256"}],"anonymous":false},{"type":"event","name":"log_named_int","inputs":[{"name":"key","type":"string","indexed":false,"internalType":"string"},{"name":"val","type":"int256","indexed":false,"internalType":"int256"}],"anonymous":false},{"type":"event","name":"log_named_string","inputs":[{"name":"key","type":"string","indexed":false,"internalType":"string"},{"name":"val","type":"string","indexed":false,"internalType":"string"}],"anonymous":false},{"type":"event","name":"log_named_uint","inputs":[{"name":"key","type":"string","indexed":false,"internalType":"string"},{"name":"val","type":"uint256","indexed":false,"internalType":"uint256"}],"anonymous":false},{"type":"event","name":"log_string","inputs":[{"name":"","type":"string","indexed":false,"internalType":"string"}],"anonymous":false},{"type":"event","name":"log_uint","inputs":[{"name":"","type":"uint256","indexed":false,"internalType":"uint256"}],"anonymous":false},{"type":"event","name":"logs","inputs":[{"name":"","type":"bytes","indexed":false,"internalType":"bytes"}],"anonymous":false},{"type":"error","name":"ERC20TransferFailed","inputs":[]},{"type":"error","name":"NativeTransferFailed","inputs":[]}],"bytecode":{"object":"0x60a0604052600c805460ff1916600117905534801561001c575f80fd5b50604051611e4c380380611e4c83398101604081905261003b9161004c565b6001600160a01b0316608052610079565b5f6020828403121561005c575f80fd5b81516001600160a01b0381168114610072575f80fd5b9392505050565b608051611d676100e55f395f81816101820152818161043c015281816108a7015281816108e201528181610d9201528181610dd801528181610e6d01528181610f0e01528181610fc80152818161108e015281816110fa0152818161120401526112620152611d675ff3fe6080604052600436106100d9575f3560e01c806385226c811161007c578063b5508aa911610057578063b5508aa91461023e578063ba414fa614610252578063bec999dd14610276578063e20c9f7114610289575f80fd5b806385226c81146101dd578063916a17c6146101fe578063ab6291fe14610212575f80fd5b80633e5e3c23116100b75780633e5e3c23146101495780633f7286f41461015d578063481c6a751461017157806366d9a9a0146101bc575f80fd5b80631ed7831c146100dd5780632ade388014610107578063350a355414610128575b5f80fd5b3480156100e8575f80fd5b506100f161029d565b6040516100fe9190611421565b60405180910390f35b348015610112575f80fd5b5061011b6102fd565b6040516100fe91906114ba565b61013b6101363660046117a8565b610439565b6040519081526020016100fe565b348015610154575f80fd5b506100f1610551565b348015610168575f80fd5b506100f16105af565b34801561017c575f80fd5b506101a47f000000000000000000000000000000000000000000000000000000000000000081565b6040516001600160a01b0390911681526020016100fe565b3480156101c7575f80fd5b506101d061060d565b6040516100fe919061182f565b3480156101e8575f80fd5b506101f16106ee565b6040516100fe91906118e0565b348015610209575f80fd5b506101d06107b9565b34801561021d575f80fd5b5061023161022c366004611942565b61089a565b6040516100fe91906119ae565b348015610249575f80fd5b506101f1610af2565b34801561025d575f80fd5b50610266610bbd565b60405190151581526020016100fe565b61013b6102843660046119c7565b610c5d565b348015610294575f80fd5b506100f1610c74565b606060168054806020026020016040519081016040528092919081815260200182805480156102f357602002820191905f5260205f20905b81546001600160a01b031681526001909101906020018083116102d5575b5050505050905090565b6060601d805480602002602001604051908101604052809291908181526020015f905b82821015610430575f84815260208082206040805180820182526002870290920180546001600160a01b03168352600181018054835181870281018701909452808452939591948681019491929084015b82821015610419578382905f5260205f2001805461038e90611a25565b80601f01602080910402602001604051908101604052809291908181526020018280546103ba90611a25565b80156104055780601f106103dc57610100808354040283529160200191610405565b820191905f5260205f20905b8154815290600101906020018083116103e857829003601f168201915b505050505081526020019060010190610371565b505050508152505081526020019060010190610320565b50505050905090565b5f7f00000000000000000000000000000000000000000000000000000000000000006001600160a01b031663815483196040518060c00160405280336001600160a01b0316815260200189815260200188815260200187815260200186151581526020018515158152506040516020016104b39190611aa0565b6040516020818303038152906040526040518263ffffffff1660e01b81526004016104de91906119ae565b5f604051808303815f875af11580156104f9573d5f803e3d5ffd5b505050506040513d5f823e601f3d908101601f191682016040526105209190810190611b2e565b8060200190518101906105339190611ba0565b9050478015610547576105475f3383610cd2565b5095945050505050565b606060188054806020026020016040519081016040528092919081815260200182805480156102f357602002820191905f5260205f209081546001600160a01b031681526001909101906020018083116102d5575050505050905090565b606060178054806020026020016040519081016040528092919081815260200182805480156102f357602002820191905f5260205f209081546001600160a01b031681526001909101906020018083116102d5575050505050905090565b6060601b805480602002602001604051908101604052809291908181526020015f905b82821015610430575f8481526020908190206040805180820182526002860290920180546001600160a01b031683526001810180548351818702810187019094528084529394919385830193928301828280156106d657602002820191905f5260205f20905f905b82829054906101000a900460e01b6001600160e01b031916815260200190600401906020826003010492830192600103820291508084116106985790505b50505050508152505081526020019060010190610630565b6060601a805480602002602001604051908101604052809291908181526020015f905b82821015610430578382905f5260205f2001805461072e90611a25565b80601f016020809104026020016040519081016040528092919081815260200182805461075a90611a25565b80156107a55780601f1061077c576101008083540402835291602001916107a5565b820191905f5260205f20905b81548152906001019060200180831161078857829003601f168201915b505050505081526020019060010190610711565b6060601c805480602002602001604051908101604052809291908181526020015f905b82821015610430575f8481526020908190206040805180820182526002860290920180546001600160a01b0316835260018101805483518187028101870190945280845293949193858301939283018282801561088257602002820191905f5260205f20905f905b82829054906101000a900460e01b6001600160e01b031916815260200190600401906020826003010492830192600103820291508084116108445790505b505050505081525050815260200190600101906107dc565b6060336001600160a01b037f000000000000000000000000000000000000000000000000000000000000000016146108d0575f80fd5b5f6108dd83850185611bb7565b90505f7f00000000000000000000000000000000000000000000000000000000000000006001600160a01b031663bec999dd8360200151846040015185606001516040518463ffffffff1660e01b815260040161093c93929190611c7c565b6020604051808303815f875af1158015610958573d5f803e3d5ffd5b505050506040513d601f19601f8201168201806040525081019061097c9190611ba0565b90505f61099483602001515f0151845f015130610d6a565b93505050505f6109b0846020015160200151855f015130610d6a565b93505050505f84604001516040015112156109fd575f8213806109d257505f81135b6109de576109de611cc9565b5f8212806109eb57505f81125b156109f8576109f8611cc9565b610a40565b5f8460400151604001511315610a40575f821280610a1a57505f81125b610a2657610a26611cc9565b5f821380610a3357505f81135b15610a4057610a40611cc9565b5f821215610a6257610a6284602001515f0151855f0151848760800151610ee3565b5f811215610a8557610a85846020015160200151855f0151838760800151610ee3565b5f821315610aa757610aa784602001515f0151855f0151848760a001516111bb565b5f811315610aca57610aca846020015160200151855f0151838760a001516111bb565b6040805160208101859052016040516020818303038152906040529450505050505b92915050565b60606019805480602002602001604051908101604052809291908181526020015f905b82821015610430578382905f5260205f20018054610b3290611a25565b80601f0160208091040260200160405190810160405280929190818152602001828054610b5e90611a25565b8015610ba95780601f10610b8057610100808354040283529160200191610ba9565b820191905f5260205f20905b815481529060010190602001808311610b8c57829003601f168201915b505050505081526020019060010190610b15565b6008545f9060ff1615610bd4575060085460ff1690565b604051630667f9d760e41b8152737109709ecfa91a80626ff3989d68f67f5b1dd12d600482018190526519985a5b195960d21b60248301525f9163667f9d7090604401602060405180830381865afa158015610c32573d5f803e3d5ffd5b505050506040513d601f19601f82011682018060405250810190610c569190611ba0565b1415905090565b5f610c6c848484600180610439565b949350505050565b606060158054806020026020016040519081016040528092919081815260200182805480156102f357602002820191905f5260205f209081546001600160a01b031681526001909101906020018083116102d5575050505050905090565b5f6001600160a01b038416610d0e575f805f8085875af1905080610d0957604051633d2cec6f60e21b815260040160405180910390fd5b610d64565b60405163a9059cbb60e01b5f52836004528260245260205f60445f80895af13d15601f3d1160015f511416171691505f606052806040525080610d6457604051633c9fd93960e21b815260040160405180910390fd5b50505050565b5f808080610d816001600160a01b038816876112e9565b9350610db66001600160a01b0388167f00000000000000000000000000000000000000000000000000000000000000006112e9565b6040516393c85a2160e01b81526001600160a01b0389811660048301529194507f0000000000000000000000000000000000000000000000000000000000000000909116906393c85a2190602401602060405180830381865afa158015610e1f573d5f803e3d5ffd5b505050506040513d601f19601f82011682018060405250810190610e439190611ba0565b60405163a54b283160e01b81526001600160a01b03878116600483015289811660248301529193507f00000000000000000000000000000000000000000000000000000000000000009091169063a54b283190604401602060405180830381865afa158015610eb4573d5f803e3d5ffd5b505050506040513d601f19601f82011682018060405250810190610ed89190611ba0565b905093509350935093565b610ef082600f0b5f611378565b80156110f8576001600160a01b038416610fb6576001600160a01b037f000000000000000000000000000000000000000000000000000000000000000016636a256b29610f3c84611cdd565b6040516001600160e01b031960e084901b1681526001600160a01b03881660048201526001600160801b03919091169060240160206040518083038185885af1158015610f8b573d5f803e3d5ffd5b50505050506040513d601f19601f82011682018060405250810190610fb09190611ba0565b50610d64565b6001600160a01b0384166323b872dd847f0000000000000000000000000000000000000000000000000000000000000000610ff086611cdd565b6040516001600160e01b031960e086901b1681526001600160a01b0393841660048201529290911660248301526001600160801b031660448201526064016020604051808303815f875af115801561104a573d5f803e3d5ffd5b505050506040513d601f19601f8201168201806040525081019061106e9190611d16565b50604051636a256b2960e01b81526001600160a01b0385811660048301527f00000000000000000000000000000000000000000000000000000000000000001690636a256b29906024016020604051808303815f875af11580156110d4573d5f803e3d5ffd5b505050506040513d601f19601f82011682018060405250810190610fb09190611ba0565b7f00000000000000000000000000000000000000000000000000000000000000006001600160a01b031663f5298aca84611141876001600160a01b03166001600160a01b031690565b61114a86611cdd565b6040516001600160e01b031960e086901b1681526001600160a01b03909316600484015260248301919091526001600160801b031660448201526064015b5f604051808303815f87803b15801561119f575f80fd5b505af11580156111b1573d5f803e3d5ffd5b5050505050505050565b6111c882600f0b5f6113e2565b801561126057604051630b0d9c0960e01b81526001600160a01b03858116600483015284811660248301526001600160801b03841660448301527f00000000000000000000000000000000000000000000000000000000000000001690630b0d9c09906064015f604051808303815f87803b158015611245575f80fd5b505af1158015611257573d5f803e3d5ffd5b50505050610d64565b7f00000000000000000000000000000000000000000000000000000000000000006001600160a01b031663156e29f6846112a9876001600160a01b03166001600160a01b031690565b6040516001600160e01b031960e085901b1681526001600160a01b03909216600483015260248201526001600160801b0385166044820152606401611188565b5f6001600160a01b03831661130957506001600160a01b03811631610aec565b6040516370a0823160e01b81526001600160a01b0383811660048301528416906370a0823190602401602060405180830381865afa15801561134d573d5f803e3d5ffd5b505050506040513d601f19601f820116820180604052508101906113719190611ba0565b9050610aec565b604051627d228160e71b81526004810183905260248101829052737109709ecfa91a80626ff3989d68f67f5b1dd12d90633e914080906044015b5f6040518083038186803b1580156113c8575f80fd5b505afa1580156113da573d5f803e3d5ffd5b505050505050565b604051635a362d4560e01b81526004810183905260248101829052737109709ecfa91a80626ff3989d68f67f5b1dd12d90635a362d45906044016113b2565b602080825282518282018190525f9190848201906040850190845b818110156114615783516001600160a01b03168352928401929184019160010161143c565b50909695505050505050565b5f5b8381101561148757818101518382015260200161146f565b50505f910152565b5f81518084526114a681602086016020860161146d565b601f01601f19169290920160200192915050565b602080825282518282018190525f919060409081850190600581811b87018401888601875b8481101561156857603f198a8403018652815180516001600160a01b03168452880151888401889052805188850181905290890190606081871b8601810191908601905f5b8181101561155257605f1988850301835261154084865161148f565b948d01949350918c0191600101611524565b50505096890196935050908701906001016114df565b50909998505050505050505050565b634e487b7160e01b5f52604160045260245ffd5b60405160c0810167ffffffffffffffff811182821017156115ae576115ae611577565b60405290565b604051601f8201601f1916810167ffffffffffffffff811182821017156115dd576115dd611577565b604052919050565b6001600160a01b03811681146115f9575f80fd5b50565b8035600281900b811461160d575f80fd5b919050565b5f60a08284031215611622575f80fd5b60405160a0810181811067ffffffffffffffff8211171561164557611645611577565b6040529050808235611656816115e5565b81526020830135611666816115e5565b6020820152604083013562ffffff81168114611680575f80fd5b6040820152611691606084016115fc565b606082015260808301356116a4816115e5565b6080919091015292915050565b5f606082840312156116c1575f80fd5b6040516060810181811067ffffffffffffffff821117156116e4576116e4611577565b6040529050806116f3836115fc565b8152611701602084016115fc565b6020820152604083013560408201525092915050565b5f67ffffffffffffffff82111561173057611730611577565b50601f01601f191660200190565b5f82601f83011261174d575f80fd5b813561176061175b82611717565b6115b4565b818152846020838601011115611774575f80fd5b816020850160208301375f918101602001919091529392505050565b80151581146115f9575f80fd5b803561160d81611790565b5f805f805f61016086880312156117bd575f80fd5b6117c78787611612565b94506117d68760a088016116b1565b935061010086013567ffffffffffffffff8111156117f2575f80fd5b6117fe8882890161173e565b93505061012086013561181081611790565b915061014086013561182181611790565b809150509295509295909350565b5f60208083018184528085518083526040925060408601915060408160051b8701018488015f5b838110156118d257888303603f19018552815180516001600160a01b031684528701518784018790528051878501819052908801905f9060608601905b808310156118bd5783516001600160e01b0319168252928a019260019290920191908a0190611893565b50968901969450505090860190600101611856565b509098975050505050505050565b5f60208083016020845280855180835260408601915060408160051b8701019250602087015f5b8281101561193557603f1988860301845261192385835161148f565b94509285019290850190600101611907565b5092979650505050505050565b5f8060208385031215611953575f80fd5b823567ffffffffffffffff8082111561196a575f80fd5b818501915085601f83011261197d575f80fd5b81358181111561198b575f80fd5b86602082850101111561199c575f80fd5b60209290920196919550909350505050565b602081525f6119c0602083018461148f565b9392505050565b5f805f61012084860312156119da575f80fd5b6119e48585611612565b92506119f38560a086016116b1565b915061010084013567ffffffffffffffff811115611a0f575f80fd5b611a1b8682870161173e565b9150509250925092565b600181811c90821680611a3957607f821691505b602082108103611a5757634e487b7160e01b5f52602260045260245ffd5b50919050565b80516001600160a01b03908116835260208083015182169084015260408083015162ffffff169084015260608083015160020b9084015260809182015116910152565b602080825282516001600160a01b0316828201528201515f90611ac66040840182611a5d565b506040838101518051600290810b60e08601526020820151900b610100850152015161012083015260608301516101806101408401819052611b0c6101a085018361148f565b6080860151151561016086015260a09095015115159301929092525090919050565b5f60208284031215611b3e575f80fd5b815167ffffffffffffffff811115611b54575f80fd5b8201601f81018413611b64575f80fd5b8051611b7261175b82611717565b818152856020838501011115611b86575f80fd5b611b9782602083016020860161146d565b95945050505050565b5f60208284031215611bb0575f80fd5b5051919050565b5f60208284031215611bc7575f80fd5b813567ffffffffffffffff80821115611bde575f80fd5b908301906101808286031215611bf2575f80fd5b611bfa61158b565b8235611c05816115e5565b8152611c148660208501611612565b6020820152611c268660c085016116b1565b604082015261012083013582811115611c3d575f80fd5b611c498782860161173e565b606083015250611c5c610140840161179d565b6080820152611c6e610160840161179d565b60a082015295945050505050565b5f610120611c8a8387611a5d565b8451600290810b60a08501526020860151900b60c0840152604085015160e084015280610100840152611cbf8184018561148f565b9695505050505050565b634e487b7160e01b5f52600160045260245ffd5b5f81600f0b6f7fffffffffffffffffffffffffffffff198103611d0e57634e487b7160e01b5f52601160045260245ffd5b5f0392915050565b5f60208284031215611d26575f80fd5b81516119c08161179056fea2646970667358221220d90e9451c100566493d7833bbf87a5e182605795a9208e17e04d4bd684864fcb64736f6c63430008180033","linkReferences":{}},"methodIdentifiers":{"excludeArtifacts()":"b5508aa9","excludeContracts()":"e20c9f71","excludeSenders()":"1ed7831c","failed()":"ba414fa6","lockAcquired(bytes)":"ab6291fe","manager()":"481c6a75","modifyLiquidity((address,address,uint24,int24,address),(int24,int24,int256),bytes)":"bec999dd","modifyLiquidity((address,address,uint24,int24,address),(int24,int24,int256),bytes,bool,bool)":"350a3554","targetArtifactSelectors()":"66d9a9a0","targetArtifacts()":"85226c81","targetContracts()":"3f7286f4","targetInterfaces()":"2ade3880","targetSelectors()":"916a17c6","targetSenders()":"3e5e3c23"},"id":76}