{"abi":[{"type":"constructor","inputs":[{"name":"_poolManager","type":"address","internalType":"contract IPoolManager"}],"stateMutability":"nonpayable"},{"type":"function","name":"afterAddLiquidity","inputs":[{"name":"","type":"address","internalType":"address"},{"name":"","type":"tuple","internalType":"struct PoolKey","components":[{"name":"currency0","type":"address","internalType":"Currency"},{"name":"currency1","type":"address","internalType":"Currency"},{"name":"fee","type":"uint24","internalType":"uint24"},{"name":"tickSpacing","type":"int24","internalType":"int24"},{"name":"hooks","type":"address","internalType":"contract IHooks"}]},{"name":"","type":"tuple","internalType":"struct IPoolManager.ModifyLiquidityParams","components":[{"name":"tickLower","type":"int24","internalType":"int24"},{"name":"tickUpper","type":"int24","internalType":"int24"},{"name":"liquidityDelta","type":"int256","internalType":"int256"}]},{"name":"","type":"int256","internalType":"BalanceDelta"},{"name":"","type":"bytes","internalType":"bytes"}],"outputs":[{"name":"","type":"bytes4","internalType":"bytes4"}],"stateMutability":"nonpayable"},{"type":"function","name":"afterDonate","inputs":[{"name":"","type":"address","internalType":"address"},{"name":"","type":"tuple","internalType":"struct PoolKey","components":[{"name":"currency0","type":"address","internalType":"Currency"},{"name":"currency1","type":"address","internalType":"Currency"},{"name":"fee","type":"uint24","internalType":"uint24"},{"name":"tickSpacing","type":"int24","internalType":"int24"},{"name":"hooks","type":"address","internalType":"contract IHooks"}]},{"name":"","type":"uint256","internalType":"uint256"},{"name":"","type":"uint256","internalType":"uint256"},{"name":"","type":"bytes","internalType":"bytes"}],"outputs":[{"name":"","type":"bytes4","internalType":"bytes4"}],"stateMutability":"nonpayable"},{"type":"function","name":"afterInitialize","inputs":[{"name":"","type":"address","internalType":"address"},{"name":"","type":"tuple","internalType":"struct PoolKey","components":[{"name":"currency0","type":"address","internalType":"Currency"},{"name":"currency1","type":"address","internalType":"Currency"},{"name":"fee","type":"uint24","internalType":"uint24"},{"name":"tickSpacing","type":"int24","internalType":"int24"},{"name":"hooks","type":"address","internalType":"contract IHooks"}]},{"name":"","type":"uint160","internalType":"uint160"},{"name":"","type":"int24","internalType":"int24"},{"name":"","type":"bytes","internalType":"bytes"}],"outputs":[{"name":"","type":"bytes4","internalType":"bytes4"}],"stateMutability":"nonpayable"},{"type":"function","name":"afterRemoveLiquidity","inputs":[{"name":"","type":"address","internalType":"address"},{"name":"","type":"tuple","internalType":"struct PoolKey","components":[{"name":"currency0","type":"address","internalType":"Currency"},{"name":"currency1","type":"address","internalType":"Currency"},{"name":"fee","type":"uint24","internalType":"uint24"},{"name":"tickSpacing","type":"int24","internalType":"int24"},{"name":"hooks","type":"address","internalType":"contract IHooks"}]},{"name":"","type":"tuple","internalType":"struct IPoolManager.ModifyLiquidityParams","components":[{"name":"tickLower","type":"int24","internalType":"int24"},{"name":"tickUpper","type":"int24","internalType":"int24"},{"name":"liquidityDelta","type":"int256","internalType":"int256"}]},{"name":"","type":"int256","internalType":"BalanceDelta"},{"name":"","type":"bytes","internalType":"bytes"}],"outputs":[{"name":"","type":"bytes4","internalType":"bytes4"}],"stateMutability":"nonpayable"},{"type":"function","name":"afterSwap","inputs":[{"name":"","type":"address","internalType":"address"},{"name":"","type":"tuple","internalType":"struct PoolKey","components":[{"name":"currency0","type":"address","internalType":"Currency"},{"name":"currency1","type":"address","internalType":"Currency"},{"name":"fee","type":"uint24","internalType":"uint24"},{"name":"tickSpacing","type":"int24","internalType":"int24"},{"name":"hooks","type":"address","internalType":"contract IHooks"}]},{"name":"","type":"tuple","internalType":"struct IPoolManager.SwapParams","components":[{"name":"zeroForOne","type":"bool","internalType":"bool"},{"name":"amountSpecified","type":"int256","internalType":"int256"},{"name":"sqrtPriceLimitX96","type":"uint160","internalType":"uint160"}]},{"name":"","type":"int256","internalType":"BalanceDelta"},{"name":"","type":"bytes","internalType":"bytes"}],"outputs":[{"name":"","type":"bytes4","internalType":"bytes4"}],"stateMutability":"nonpayable"},{"type":"function","name":"beforeAddLiquidity","inputs":[{"name":"","type":"address","internalType":"address"},{"name":"","type":"tuple","internalType":"struct PoolKey","components":[{"name":"currency0","type":"address","internalType":"Currency"},{"name":"currency1","type":"address","internalType":"Currency"},{"name":"fee","type":"uint24","internalType":"uint24"},{"name":"tickSpacing","type":"int24","internalType":"int24"},{"name":"hooks","type":"address","internalType":"contract IHooks"}]},{"name":"","type":"tuple","internalType":"struct IPoolManager.ModifyLiquidityParams","components":[{"name":"tickLower","type":"int24","internalType":"int24"},{"name":"tickUpper","type":"int24","internalType":"int24"},{"name":"liquidityDelta","type":"int256","internalType":"int256"}]},{"name":"","type":"bytes","internalType":"bytes"}],"outputs":[{"name":"","type":"bytes4","internalType":"bytes4"}],"stateMutability":"nonpayable"},{"type":"function","name":"beforeDonate","inputs":[{"name":"","type":"address","internalType":"address"},{"name":"","type":"tuple","internalType":"struct PoolKey","components":[{"name":"currency0","type":"address","internalType":"Currency"},{"name":"currency1","type":"address","internalType":"Currency"},{"name":"fee","type":"uint24","internalType":"uint24"},{"name":"tickSpacing","type":"int24","internalType":"int24"},{"name":"hooks","type":"address","internalType":"contract IHooks"}]},{"name":"","type":"uint256","internalType":"uint256"},{"name":"","type":"uint256","internalType":"uint256"},{"name":"","type":"bytes","internalType":"bytes"}],"outputs":[{"name":"","type":"bytes4","internalType":"bytes4"}],"stateMutability":"nonpayable"},{"type":"function","name":"beforeInitialize","inputs":[{"name":"","type":"address","internalType":"address"},{"name":"","type":"tuple","internalType":"struct PoolKey","components":[{"name":"currency0","type":"address","internalType":"Currency"},{"name":"currency1","type":"address","internalType":"Currency"},{"name":"fee","type":"uint24","internalType":"uint24"},{"name":"tickSpacing","type":"int24","internalType":"int24"},{"name":"hooks","type":"address","internalType":"contract IHooks"}]},{"name":"","type":"uint160","internalType":"uint160"},{"name":"","type":"bytes","internalType":"bytes"}],"outputs":[{"name":"","type":"bytes4","internalType":"bytes4"}],"stateMutability":"nonpayable"},{"type":"function","name":"beforeRemoveLiquidity","inputs":[{"name":"","type":"address","internalType":"address"},{"name":"","type":"tuple","internalType":"struct PoolKey","components":[{"name":"currency0","type":"address","internalType":"Currency"},{"name":"currency1","type":"address","internalType":"Currency"},{"name":"fee","type":"uint24","internalType":"uint24"},{"name":"tickSpacing","type":"int24","internalType":"int24"},{"name":"hooks","type":"address","internalType":"contract IHooks"}]},{"name":"","type":"tuple","internalType":"struct IPoolManager.ModifyLiquidityParams","components":[{"name":"tickLower","type":"int24","internalType":"int24"},{"name":"tickUpper","type":"int24","internalType":"int24"},{"name":"liquidityDelta","type":"int256","internalType":"int256"}]},{"name":"","type":"bytes","internalType":"bytes"}],"outputs":[{"name":"","type":"bytes4","internalType":"bytes4"}],"stateMutability":"nonpayable"},{"type":"function","name":"beforeSwap","inputs":[{"name":"","type":"address","internalType":"address"},{"name":"key","type":"tuple","internalType":"struct PoolKey","components":[{"name":"currency0","type":"address","internalType":"Currency"},{"name":"currency1","type":"address","internalType":"Currency"},{"name":"fee","type":"uint24","internalType":"uint24"},{"name":"tickSpacing","type":"int24","internalType":"int24"},{"name":"hooks","type":"address","internalType":"contract IHooks"}]},{"name":"","type":"tuple","internalType":"struct IPoolManager.SwapParams","components":[{"name":"zeroForOne","type":"bool","internalType":"bool"},{"name":"amountSpecified","type":"int256","internalType":"int256"},{"name":"sqrtPriceLimitX96","type":"uint160","internalType":"uint160"}]},{"name":"hookData","type":"bytes","internalType":"bytes"}],"outputs":[{"name":"","type":"bytes4","internalType":"bytes4"}],"stateMutability":"nonpayable"},{"type":"function","name":"getHookPermissions","inputs":[],"outputs":[{"name":"","type":"tuple","internalType":"struct Hooks.Permissions","components":[{"name":"beforeInitialize","type":"bool","internalType":"bool"},{"name":"afterInitialize","type":"bool","internalType":"bool"},{"name":"beforeAddLiquidity","type":"bool","internalType":"bool"},{"name":"afterAddLiquidity","type":"bool","internalType":"bool"},{"name":"beforeRemoveLiquidity","type":"bool","internalType":"bool"},{"name":"afterRemoveLiquidity","type":"bool","internalType":"bool"},{"name":"beforeSwap","type":"bool","internalType":"bool"},{"name":"afterSwap","type":"bool","internalType":"bool"},{"name":"beforeDonate","type":"bool","internalType":"bool"},{"name":"afterDonate","type":"bool","internalType":"bool"}]}],"stateMutability":"pure"},{"type":"function","name":"lockAcquired","inputs":[{"name":"data","type":"bytes","internalType":"bytes"}],"outputs":[{"name":"","type":"bytes","internalType":"bytes"}],"stateMutability":"nonpayable"},{"type":"function","name":"poolManager","inputs":[],"outputs":[{"name":"","type":"address","internalType":"contract IPoolManager"}],"stateMutability":"view"},{"type":"function","name":"registerUser","inputs":[],"outputs":[{"name":"","type":"address","internalType":"address"}],"stateMutability":"view"},{"type":"function","name":"setDynamicFee","inputs":[{"name":"key","type":"tuple","internalType":"struct PoolKey","components":[{"name":"currency0","type":"address","internalType":"Currency"},{"name":"currency1","type":"address","internalType":"Currency"},{"name":"fee","type":"uint24","internalType":"uint24"},{"name":"tickSpacing","type":"int24","internalType":"int24"},{"name":"hooks","type":"address","internalType":"contract IHooks"}]},{"name":"user","type":"address","internalType":"address"}],"outputs":[],"stateMutability":"nonpayable"},{"type":"error","name":"HookAddressNotValid","inputs":[{"name":"hooks","type":"address","internalType":"address"}]},{"type":"error","name":"HookNotImplemented","inputs":[]},{"type":"error","name":"InvalidPool","inputs":[]},{"type":"error","name":"LockFailure","inputs":[]},{"type":"error","name":"NotPoolManager","inputs":[]},{"type":"error","name":"NotSelf","inputs":[]}],"bytecode":{"object":"0x60a06040525f80546001600160a01b0319167342748ea007d03dccac380804db628b381d803a1717905534801562000035575f80fd5b5060405162000ef638038062000ef683398101604081905262000058916200025c565b6001600160a01b03811660805280620000713062000079565b50506200028b565b6200012c816200012660408051610140810182525f80825260208201819052918101829052606081018290526080810182905260a0810182905260c0810182905260e0810182905261010081018290526101208101919091525060408051610140810182525f80825260208201819052918101829052606081018290526080810182905260a08101829052600160c082015260e08101829052610100810182905261012081019190915290565b6200012f565b50565b805115156001609f1b83161515141580620001585750602081015115156001609e1b8316151514155b80620001725750604081015115156001609d1b8316151514155b806200018c5750606081015115156001609c1b8316151514155b80620001a65750608081015115156001609b1b8316151514155b80620001c0575060a081015115156001609a1b8316151514155b80620001da575060c08101511515600160991b8316151514155b80620001f4575060e08101511515600160981b8316151514155b806200020f57506101008101511515600160971b8316151514155b806200022a57506101208101511515600160961b8316151514155b156200025857604051630732d7b560e51b81526001600160a01b038316600482015260240160405180910390fd5b5050565b5f602082840312156200026d575f80fd5b81516001600160a01b038116811462000284575f80fd5b9392505050565b608051610c1a620002dc5f395f8181610288015281816102fe01528181610465015281816104ef015281816105470152818161059f015281816105f70152818161064f015261069f0152610c1a5ff3fe608060405234801561000f575f80fd5b50600436106100f0575f3560e01c8063b47b2fb111610093578063c4e833ce11610063578063c4e833ce146101ba578063cd74e7521461026e578063dc4c90d314610283578063e1b4af69146101ac575f80fd5b8063b47b2fb11461019e578063b505b4ce1461019e578063b6a8b0fa146101ac578063c3d5d4e61461019e575f80fd5b8063575e24b4116100ce578063575e24b41461015d578063a6ab2a43146100f4578063a910f80f14610170578063ab6291fe1461017e575f80fd5b80632b58404e146100f45780633440d820146101255780634d3820eb14610133575b5f80fd5b61010761010236600461075a565b6102aa565b6040516001600160e01b031990911681526020015b60405180910390f35b6101076101023660046107d1565b5f54610145906001600160a01b031681565b6040516001600160a01b03909116815260200161011c565b61010761016b36600461075a565b6102c4565b610107610102366004610841565b61019161018c3660046108c9565b6102f1565b60405161011c9190610908565b610107610102366004610954565b6101076101023660046109b7565b61026160408051610140810182525f80825260208201819052918101829052606081018290526080810182905260a0810182905260c0810182905260e0810182905261010081018290526101208101919091525060408051610140810182525f80825260208201819052918101829052606081018290526080810182905260a08101829052600160c082015260e08101829052610100810182905261012081019190915290565b60405161011c9190610a11565b61028161027c366004610ac9565b6103d9565b005b6101457f000000000000000000000000000000000000000000000000000000000000000081565b5f604051630a85dc2960e01b815260040160405180910390fd5b5f806102d283850185610aff565b90506102de86826103d9565b506315d7892d60e21b9695505050505050565b6060336001600160a01b037f0000000000000000000000000000000000000000000000000000000000000000161461033c5760405163570c108560e11b815260040160405180910390fd5b5f80306001600160a01b03168585604051610358929190610b21565b5f604051808303815f865af19150503d805f8114610391576040519150601f19603f3d011682016040523d82523d5f602084013e610396565b606091505b509150915081156103aa5791506103d39050565b80515f036103cb576040516314815f4760e31b815260040160405180910390fd5b805160208201fd5b92915050565b5f805460405163022f0a3d60e51b81526001600160a01b038481166004830152909116906345e147a090602401602060405180830381865afa158015610421573d5f803e3d5ffd5b505050506040513d601f19601f820116820180604052508101906104459190610b30565b9050805f036104d057604051631482573b60e31b81526001600160a01b037f0000000000000000000000000000000000000000000000000000000000000000169063a412b9d89061049e90869061271090600401610bc4565b5f604051808303815f87803b1580156104b5575f80fd5b505af11580156104c7573d5f803e3d5ffd5b50505050505050565b8060010361052857604051631482573b60e31b81526001600160a01b037f0000000000000000000000000000000000000000000000000000000000000000169063a412b9d89061049e90869061251c90600401610bc4565b8060020361058057604051631482573b60e31b81526001600160a01b037f0000000000000000000000000000000000000000000000000000000000000000169063a412b9d89061049e90869061232890600401610bc4565b806003036105d857604051631482573b60e31b81526001600160a01b037f0000000000000000000000000000000000000000000000000000000000000000169063a412b9d89061049e90869061213490600401610bc4565b8060040361063057604051631482573b60e31b81526001600160a01b037f0000000000000000000000000000000000000000000000000000000000000000169063a412b9d89061049e908690611f4090600401610bc4565b8060050361068857604051631482573b60e31b81526001600160a01b037f0000000000000000000000000000000000000000000000000000000000000000169063a412b9d89061049e908690611d4c90600401610bc4565b604051631482573b60e31b81526001600160a01b037f0000000000000000000000000000000000000000000000000000000000000000169063a412b9d89061049e90869061271090600401610bc4565b6001600160a01b03811681146106ec575f80fd5b50565b5f60a082840312156106ff575f80fd5b50919050565b5f606082840312156106ff575f80fd5b5f8083601f840112610725575f80fd5b50813567ffffffffffffffff81111561073c575f80fd5b602083019150836020828501011115610753575f80fd5b9250929050565b5f805f805f610140868803121561076f575f80fd5b853561077a816106d8565b945061078987602088016106ef565b93506107988760c08801610705565b925061012086013567ffffffffffffffff8111156107b4575f80fd5b6107c088828901610715565b969995985093965092949392505050565b5f805f805f61010086880312156107e6575f80fd5b85356107f1816106d8565b945061080087602088016106ef565b935060c0860135610810816106d8565b925060e086013567ffffffffffffffff8111156107b4575f80fd5b8035600281900b811461083c575f80fd5b919050565b5f805f805f806101208789031215610857575f80fd5b8635610862816106d8565b955061087188602089016106ef565b945060c0870135610881816106d8565b935061088f60e0880161082b565b925061010087013567ffffffffffffffff8111156108ab575f80fd5b6108b789828a01610715565b979a9699509497509295939492505050565b5f80602083850312156108da575f80fd5b823567ffffffffffffffff8111156108f0575f80fd5b6108fc85828601610715565b90969095509350505050565b5f602080835283518060208501525f5b8181101561093457858101830151858201604001528201610918565b505f604082860101526040601f19601f8301168501019250505092915050565b5f805f805f80610160878903121561096a575f80fd5b8635610975816106d8565b955061098488602089016106ef565b94506109938860c08901610705565b9350610120870135925061014087013567ffffffffffffffff8111156108ab575f80fd5b5f805f805f8061012087890312156109cd575f80fd5b86356109d8816106d8565b95506109e788602089016106ef565b945060c0870135935060e0870135925061010087013567ffffffffffffffff8111156108ab575f80fd5b81511515815261014081016020830151610a2f602084018215159052565b506040830151610a43604084018215159052565b506060830151610a57606084018215159052565b506080830151610a6b608084018215159052565b5060a0830151610a7f60a084018215159052565b5060c0830151610a9360c084018215159052565b5060e0830151610aa760e084018215159052565b5061010083810151151590830152610120928301511515929091019190915290565b5f8060c08385031215610ada575f80fd5b610ae484846106ef565b915060a0830135610af4816106d8565b809150509250929050565b5f60208284031215610b0f575f80fd5b8135610b1a816106d8565b9392505050565b818382375f9101908152919050565b5f60208284031215610b40575f80fd5b5051919050565b8035610b52816106d8565b6001600160a01b039081168352602082013590610b6e826106d8565b908116602084015260408201359062ffffff8216808314610b8d575f80fd5b6040850152610b9e6060840161082b565b60020b606085015260808301359150610bb6826106d8565b808216608085015250505050565b60c08101610bd28285610b47565b62ffffff831660a0830152939250505056fea26469706673582212208a80ee3b3e0284631f26a266b8633213253ba7611a09c02de3fea6e361eca76f64736f6c63430008180033","linkReferences":{}},"methodIdentifiers":{"afterAddLiquidity(address,(address,address,uint24,int24,address),(int24,int24,int256),int256,bytes)":"b505b4ce","afterDonate(address,(address,address,uint24,int24,address),uint256,uint256,bytes)":"e1b4af69","afterInitialize(address,(address,address,uint24,int24,address),uint160,int24,bytes)":"a910f80f","afterRemoveLiquidity(address,(address,address,uint24,int24,address),(int24,int24,int256),int256,bytes)":"c3d5d4e6","afterSwap(address,(address,address,uint24,int24,address),(bool,int256,uint160),int256,bytes)":"b47b2fb1","beforeAddLiquidity(address,(address,address,uint24,int24,address),(int24,int24,int256),bytes)":"a6ab2a43","beforeDonate(address,(address,address,uint24,int24,address),uint256,uint256,bytes)":"b6a8b0fa","beforeInitialize(address,(address,address,uint24,int24,address),uint160,bytes)":"3440d820","beforeRemoveLiquidity(address,(address,address,uint24,int24,address),(int24,int24,int256),bytes)":"2b58404e","beforeSwap(address,(address,address,uint24,int24,address),(bool,int256,uint160),bytes)":"575e24b4","getHookPermissions()":"c4e833ce","lockAcquired(bytes)":"ab6291fe","poolManager()":"dc4c90d3","registerUser()":"4d3820eb","setDynamicFee((address,address,uint24,int24,address),address)":"cd74e752"},"id":88}